:020000040800F2
:1000000080060020890100088D0400081F040008F4
:1000100089040008D5020008CF0B0008000000008A
:100020000000000000000000000000008107000840
:10003000D902000800000000150500086D0800083E
:10004000A3010008A3010008A3010008A301000800
:10005000A3010008A3010008A3010008A3010008F0
:10006000A3010008A3010008A3010008A3010008E0
:10007000A3010008A3010008A3010008A3010008D0
:10008000A3010008A3010008A3010008A3010008C0
:10009000A3010008A3010008A3010008A3010008B0
:1000A000A3010008A3010008A3010008A3010008A0
:1000B000A3010008A3010008A3010008A301000890
:1000C000A3010008A3010008A3010008A301000880
:1000D000A30100087D090008A3010008A30100088E
:1000E000A3010008A3010008A301000800F002F822
:1000F00000F03AF80AA090E8000C82448344AAF188
:100100000107DA4501D100F02FF8AFF2090EBAE885
:100110000F0013F0010F18BFFB1A43F0010318473B
:10012000500B0000700B0000103A24BF78C878C153
:10013000FAD8520724BF30C830C144BF04680C60ED
:10014000704700000023002400250026103A28BF35
:1001500078C1FBD8520728BF30C148BF0B60704739
:100160001FB51FBD10B510BD00F06EF81146FFF7AA
:10017000F7FF00F069FD00F0A0F803B4FFF7F2FF0D
:1001800003BC00F04DFD00000948804709480047C6
:10019000FEE7FEE7FEE7FEE7FEE7FEE7FEE7FEE737
:1001A000FEE7FEE704480549054A064B7047000094
:1001B0001D090008ED0000088000002080060020D6
:1001C0008002002080020020704700000FB4044924
:1001D00010B503AA029800F009F810BC5DF814FBF2
:1001E000040000207047704770477047074B70B598
:1001F0000D467B4400F011F80446284600F020F834
:1002000010B14FF0FF3070BD204670BD2F0A0000C6
:1002100001694A1C02610878704700B58FB0CDE9CA
:1002200001310021059105497944CDE903101146BA
:10023000684600F02EF80FB000BD0000E5FFFFFF9C
:10024000007B00F080007047754600F03FF8AE4636
:1002500005006946534620F00700854618B020B5D2
:10026000FFF7A0FFBDE820404FF000064FF0000769
:100270004FF000084FF0000B21F00701AC46ACE84E
:10028000C009ACE8C009ACE8C009ACE8C0098D46BB
:1002900070472DE9F04106460024D6E90170F56863
:1002A0008046304603E04146B847641C3046A847C4
:1002B0000028F8D12046BDE8F08110B50446AFF320
:1002C00000802046BDE81040FFF757BF0048704748
:1002D0001C00002000BFFEE7704701B502E0009857
:1002E000401E009000980028F9D108BD014600206A
:1002F000034A106800F0380008431060704700009F
:10030000002002402DE9F041024600250026002091
:1003100000230024002791F803C00CF00F0591F88A
:1003200003C00CF0100CBCF1000F03D091F802C018
:100330004CEA050591F800C0BCF1000F31D01468FB
:1003400000202BE04FF0010C0CFA00F3B1F800C0D4
:100350000CEA03069E4220D183004FF00F0C0CFAEA
:1003600003F7BC4305FA03FC4CEA040491F803C00C
:10037000BCF1280F06D14FF0010C0CFA00FCC2F8BA
:1003800014C00AE091F803C0BCF1480F05D14FF04A
:10039000010C0CFA00FCC2F810C0401C0828D1D394
:1003A0001460B1F800C0BCF1FF0F34DD54680020C8
:1003B0002EE000F1080C4FF0010808FA0CF3B1F838
:1003C00000C00CEA03069E4221D183004FF00F0CBF
:1003D0000CFA03F7BC4305FA03FC4CEA040491F859
:1003E00003C0BCF1280F05D100F1080C08FA0CF885
:1003F000C2F8148091F803C0BCF1480F07D100F196
:10040000080C4FF0010808FA0CF8C2F81080401CE4
:100410000828CED35460BDE8F0814161704700BF29
:10042000FEE7000008B50121082000F075F804205F
:10043000ADF8000010208DF8030003208DF80200B5
:1004400069460448FFF75EFF04210248FFF7E5FF15
:1004500008BD0000000C014000B50948006800F02C
:10046000040020B904200649091D086003E00420A7
:100470000349083108600348FFF72FFF00BD000063
:100480000C0C0140FFFF0F0000BFFEE770470000AB
:1004900070B5002100230F22C47804B3154C2468E2
:1004A00004F4E064C4F5E064210AC1F10403CA4025
:1004B000447804FA03F184781440214309010E4C76
:1004C0000678A155047804F01F050124AC40057896
:1004D0006D11AD0005F1E025C5F8004109E0047893
:1004E00004F01F050124AC40044D0678761145F850
:1004F000264070BD0CED00E000E400E080E100E08B
:1005000002490143024A1160704700000000FA05E9
:100510000CED00E07047000029B1064A92690243E1
:10052000044B9A6104E0034A92698243014B9A6149
:1005300070470000001002400F48006840F00100C2
:100540000D490860084640680C4908400A4948605F
:10055000084600680A4908400749086008460068DC
:1005600020F4802008600846406820F4FE004860BF
:100570004FF41F0088607047001002400000FFF831
:10058000FFFFF6FE30B500210022002400232D4D90
:100590006D6805F00C0121B1042905D0082923D18B
:1005A00005E0294D056022E0274D05601FE0254D3F
:1005B0006D6805F47012234D6D6805F480340225D2
:1005C00005EB92421CB9214D554305600BE01D4DD2
:1005D0006D6805F400351DB11C4D5543056002E002
:1005E000194D5543056002E0174D056000BF00BF7F
:1005F000144D6D6805F0F0010909154D6B5C056837
:10060000DD4045600F4D6D6805F4E061090A104D4D
:100610006B5C4568DD4085600A4D6D6805F460518E
:10062000C90A0B4D6B5C4568DD40C560054D6D68C2
:1006300005F44041890B074D6B5CC568B5FBF3F5CC
:10064000056130BD0010024000127A0000093D0033
:10065000080000201800002010B5014600220023E9
:1006600000204A11012A02D1094C236806E0022A1F
:1006700002D1074C236A01E0054C636A01F01F02B6
:10068000012494401C400CB1012000E0002010BD6A
:100690000010024001460020034A506820F0F0009C
:1006A000084350607047000000100240114909687B
:1006B00021F480310F4A11601146096821F480212C
:1006C0001160B0F5803F03D0B0F5802F0ED106E069
:1006D0000849096841F48031064A116007E005497C
:1006E000096841F4A021034A116000E000BF00BF87
:1006F0007047000000100240014908607047000088
:1007000000004242014908607047000080044242F4
:1007100001460020034A506820F4E060084350601E
:10072000704700000010024001460020034A506854
:1007300020F4605040EAC100506070470010024051
:10074000014908667047000000004242024600204E
:10075000044B586820F47C1042EA01031843014B13
:10076000586070470010024001460020034A50685C
:1007700020F0030008435060704700000010024062
:10078000704710B500F002F810BD00000CB5002055
:10079000019000903348006840F48030314908608F
:1007A00000BF3048006800F4003000900198401C01
:1007B0000190009818B90198B0F5A06FF1D12948BF
:1007C000006800F4003010B10120009001E000202A
:1007D00000900098012843D12348006840F01000A1
:1007E000214908600846006820F0030008600846B8
:1007F000006840F0020008601A48406819494860E3
:100800000846406848600846406840F48060486098
:100810000846406820F47C1048600846406840F470
:10082000E81048600846006840F08070086000BF2B
:100830000C48006800F000700028F9D009484068B2
:1008400020F00300074948600846406840F0020075
:10085000486000BF0348406800F00C000828F9D148
:100860000CBD000000100240002002400448006857
:1008700020B103480068401E01490860704700002D
:100880000000002010B5FFF757FE4FF48030FFF74F
:100890000DFF00BF3120FFF7DFFE0028FAD0022055
:1008A000FFF724FD00BF1B48006800F0030002288A
:1008B000F9D10020FFF744FF17494FF48030FFF7CC
:1008C00045FF0120FFF73CFF00BF3920FFF7C4FEC2
:1008D0000028FAD00220FFF747FF0020FFF7DAFEDA
:1008E0004FF48060FFF714FF0020FFF71DFF012089
:1008F000FFF708FF00BF6120FFF7AEFE0028FAD027
:100900000120FFF7F9FE00BF2120FFF7A5FE002818
:10091000FAD010BD002002400000281010B5134886
:10092000006840F00100114908600846406810491D
:1009300008400E494860084600680E4908400B49C7
:1009400008600846006820F4802008600846406877
:1009500020F4FE0048604FF41F008860FFF711FF8D
:100960004FF000600449086010BD00000010024014
:100970000000FFF8FFFFF6FE08ED00E010B540F2C2
:100980002551074800F05FF848B1054800F016F916
:10099000312803D103A0FFF719FC00BF00BF10BD31
:1009A00000380140320D0A0010B586B0044600F050
:1009B00011F902940020ADF80C00ADF80E00ADF86E
:1009C0001000ADF814000C20ADF8120002A9104878
:1009D00000F088F84FF4A060FFF792FD25208DF815
:1009E000040001208DF805008DF806008DF8070041
:1009F00001A8FFF74DFD012240F22551044800F007
:100A00004CF80121024800F005F806B010BD0000C6
:100A10000038014021B1828942F40052828104E011
:100A200082894DF6FF731A4082817047024600208A
:100A3000B1F5007F00D100BF13880B400BB101203E
:100A400000E00020704770B5024600240023002516
:100A5000002040F66A16B14200D100BFC1F3421532
:100A600001F01F03012606FA03F3012D02D1968936
:100A7000334006E0022D02D1168A334001E0968A07
:100A800033400C12012606FA04F41688344013B1E0
:100A90000CB1012000E0002070BDF0B50346002439
:100AA00000260025002040F66A17B94200D100BF99
:100AB0001846C1F3421401F01F06012707FA06F594
:100AC000012C01D10C3004E0022C01D1103000E0E7
:100AD00014301AB107682F43076002E00768AF437C
:100AE0000760F0BD2DE9F04786B005460E460024AC
:100AF000A24600BFA1460027B08900B100BF2F4623
:100B00002C8A4CF6FF700440F08804432C82AC8998
:100B10004EF6F3100440B0883189084371890843C8
:100B20000443AC81AC8A4FF6FF400440B0890443D3
:100B3000AC8201A8FFF726FD1F48874202D1DDF8ED
:100B400010A001E0DDF80CA0A88900F4004040B13D
:100B50000AEBCA0000EB0A1031684900B0FBF1F85B
:100B600007E00AEBCA0000EB0A1031688900B0FB0D
:100B7000F1F86420B8FBF0F004012009642101FBC6
:100B80001089A88900F4004040B1322000EBC90070
:100B9000B0FBF1F000F00700044308E0322000EB66
:100BA00009106421B0FBF1F000F00F0004432C8128
:100BB00006B0BDE8F0870000003801400146888893
:100BC000C0F308007047C1F308028280704700BF7D
:100BD000FEE7000008B501210420FFF79DFC01217C
:100BE0008803FFF799FC4FF40070ADF8000018205F
:100BF0008DF8030003208DF8020069460748FFF7CF
:100C000081FB4FF48060ADF8000004208DF80300F4
:100C100069460248FFF776FB08BD00000008014066
:100C200000BF704770B504460D46E1B20548FFF7B6
:100C3000CAFF00BF80210348FFF7F8FE0028F9D063
:100C4000204670BD00380140FFF71CFE4FF4E13034
:100C5000FFF7AAFEFFF7E6FB03A0FFF7B7FA01E0F4
:100C6000FFF7FAFBFCE70000696E6974206F6B0008
:100C7000900C0008000000201C0000002801000863
:100C8000AC0C00081C0000206406000044010008B1
:100C9000000000000000000000000000010203044A
:0C0CA0000102030406070809020406080C
:04000005080000ED02
:00000001FF
