:020000040800F2
:10000000302100209D010008D7180008F5160008CF
:10001000D51800088302000815370008000000000A
:1000200000000000000000000000000005010008C2
:10003000910200080000000049010008ED1B0008C3
:10004000B7010008B7010008B7010008B7010008B0
:10005000B7010008B7010008B7010008B7010008A0
:10006000B7010008B7010008B7010008B701000890
:10007000B7010008B7010008B7010008B701000880
:10008000B7010008B7010008B7010008B701000870
:1000900071360008B7010008B7010008B701000871
:1000A000B7010008B7010008B7010008B701000850
:1000B000B7010008B7010008B7010008B701000840
:1000C000B7010008B7010008B7010008B701000830
:1000D000B7010008B7010008B7010008B701000820
:1000E00093020008B7010008B7010008DFF810D03C
:1000F00000F08AF80048004765370008AFF3008039
:1001000030210020224B19680868B0E8F00F80F316
:100110000988BFF36F8F4FF0000080F311884EF015
:100120000D0E70470000000006480068006880F36C
:10013000088862B661B6BFF34F8FBFF36F8F00DFE1
:1001400000BF00BF08ED00E0EFF30980BFF36F8F41
:100150000F4B1A6820E9F00F106008B54FF05000FF
:1001600080F31188BFF34F8FBFF36F8F03F0CAFE88
:100170004FF0000080F31188BDE808401968086856
:10018000B0E8F00F80F30988BFF36F8F704700BFAE
:1001900018000020EFF305807047000006488047F4
:1001A00006480047FEE7FEE7FEE7FEE7FEE7FEE75C
:1001B000FEE7FEE7FEE7FEE77D1C0008ED00000815
:1001C00040EA01039B0703D009E008C9121F08C0D9
:1001D000042AFAD203E011F8013B00F8013B521E59
:1001E000F9D27047D2B201E000F8012B491EFBD2D0
:1001F00070470022F6E710B513460A460446194632
:10020000FFF7F0FF204610BD064C074D06E0E06802
:1002100040F0010394E8070098471034AC42F6D34D
:10022000FFF768FFD4440008F444000870B58C1848
:1002300010F8015B15F0070301D110F8013B2A11FA
:1002400006D110F8012B03E010F8016B01F8016BE7
:100250005B1EF9D12B0705D40023521E0DD401F8E3
:10026000013BFAE710F8013BCB1A921C03E013F8AC
:10027000015B01F8015B521EF9D5A142D8D30020E1
:1002800070BDFEE7002070470020704700207047D7
:10029000704710B54FF4805000F052F84FF4005002
:1002A00000F04EF8BDE810404FF4804000F048B830
:1002B00072B6FEE7002200F001B8000010B48446D8
:1002C00001200F4B5C7A012C17D8587A00241C545B
:1002D000587A03EB8000C0F804C0587A03F1080C88
:1002E00000F80C20587A421C5A72303008703A20BC
:1002F00048702F208870CC70002010BC7047000020
:10030000201D002070B50B480168001D0568001D08
:100310000068084400280CD0074C0822A11C01F0FA
:10032000EAF904F112012846BDE87040042201F008
:10033000E2B970BDE8F7FF1FC4000020704700005D
:10034000044910B50A68024202D00860FFF7F6FFC0
:1003500010BD0000140401402DE9F84FDFF8B891FA
:10036000002409F1040A0AF1040B23460F270BF1BC
:10037000040EC9E00125A5402A40AA427DD1674E5E
:10038000D1F804C0ACEB0608B44532D014DCBCF1A3
:10039000030F3AD009DCBCF1000F2AD0BCF1010FE9
:1003A0001CD0BCF1020F31D11DE0BCF1110F17D0F0
:1003B000BCF1120F2AD119E0B8F5881F19D006DC5C
:1003C000B8F5803F15D0B8F5801F1FD111E0B8F502
:1003D000001F0ED0B8F5041F18D10AE0CB6815E055
:1003E000CB681B1D12E0CB6808330FE0CB680C33E1
:1003F0000CE08B682BB1012B4FF0080303D0456153
:1004000004E0042302E0056100E00023FF2A01D894
:10041000064601E000F104064FEA840501D9A5F182
:100420002005D6F8008007FA05FC28EA0C0803FA34
:1004300005F548EA0508C6F800804D68ED0062D56C
:10044000374DAE6946F00106AE61AD6924F0030692
:1004500005F001050095334D06EB050CDCF808505E
:10046000A607360F07FA06F825EA0805DFF8B88070
:10047000404503D14FF0000817E044E0DFF8AC80BE
:10048000404502D14FF001080FE0DFF8A48040455D
:1004900002D14FF0020808E0DFF89880404502D111
:1004A0004FF0030801E04FF0040808FA06F848EAA4
:1004B0000508CCF808804D68D9F80060ED034D467A
:1004C00001D5164300E096432E604D68DAF80060CF
:1004D000AD03554601D5164300E096432E604D68A6
:1004E000DBF80060ED025D4601D5164300E096435F
:1004F0002E604D68DEF80060AD02754601D51643EA
:1005000000E096432E60641C0D682A46E5407FF4A7
:1005100031AFBDE8F88F0000000401400000111069
:10052000001002400000014000080140000C0140A2
:100530000010014000140140C26821EA02030A4091
:1005400043EA0241016170470AB101617047090441
:10055000FBE70000014880687047000008000020A9
:1005600002488168027811448160704708000020C9
:10057000074810B5016841F010010160032000F048
:1005800071F80F2000F006F800F024F8002010BDEC
:100590000020024070B50D4D04464FF47A71287862
:1005A000B1FBF0F00A490968B1FBF0F001F024F862
:1005B00048B9102C07D200222146501E00F032F814
:1005C00000206C6070BD012070BD0000080000209C
:1005D000140000200B4882B0816941F00101816163
:1005E000816901F001010091C16941F08051C1614F
:1005F000C069002200F0805000900F21901E02B0D0
:1006000000F010B800100240002809DB00F01F02C3
:10061000012191404009800000F1E020C0F8001164
:1006200070470000F0B40E4B1B680C46C3F3022366
:10063000C3F10705042D00D90425191D072901D28E
:10064000002300E0DB1E012606FA05F1491E2140C9
:1006500099409E40761E16403143F0BC03F05BB8D3
:100660000CED00E0064900F0070208684FF6FF03B2
:10067000184040EA0220034A104308607047000017
:100680000CED00E00000FA0510B50C0607D501F0EE
:10069000070101EB810100EBC100283005E001EB0F
:1006A000810100EBC10000F5B47099B232B10122B2
:1006B00002730181190C4181002010BD00220273D8
:1006C000C180F9E7704701EB810200EBC202D0F86C
:1006D000E802D26B01F0B2BE01EB810200EBC20274
:1006E000D0F8E802D2F87C2101F013BF70B50446BF
:1006F0000B0601F0070000EB800104EBC1014FF095
:1007000001024FF0000503D581F82920283103E0CC
:1007100081F8695101F5B471087094F8A8020128B4
:1007200008D084F8A822206802F0A0FB84F8A85220
:10073000002070BD022070BD70B5044601F00F00AE
:100740006268904201D9012070BD0B0601F00700DC
:1007500000EB800104EBC1014FF001024FF00005F6
:1007600003D581F82920283103E081F8695101F58A
:10077000B4718D70087094F8A802012808D084F82C
:10078000A822206802F00FFC84F8A852002070BD57
:10079000022070BD2DE9F05F04685FEA424C0B78DF
:1007A0008D69B4F850C04FF000064BF68F7948F2CF
:1007B000800A48F68F7B48F2C00E4FF480672AD536
:1007C0004FF0020808EBC308C44407EB4C07E45B96
:1007D000C4F30904A54203D32D1B8D6101D00BE0A6
:1007E0008E61066836F8235005EA090585F4005540
:1007F00045EA0A0526F82350520609D50D78036804
:1008000033F8252002EA0B0242EA0E0223F82520E3
:1008100084B30A8929E04FF0060808EBC308C444F2
:1008200007EB4C07E45BC4F30904A54203D32D1B7B
:100830008D6101D00BE08E61066836F8235005EA21
:10084000090585F4005545EA0A0526F823505206A5
:1008500009D40B78056835F8232002EA0B0242EA36
:100860000E0225F823202CB14A89496900682346E5
:1008700002F008FF2046BDE8F09F2DE9F05F054635
:1008800000680C465FEA426C16468B692278B0F825
:1008900050C048F68F774CF280094FF6FF7B4FF43B
:1008A000004E4FF4806A4FF000017BD54FF00208F4
:1008B00008EBC208E0440AEB480C30F80C00C0F327
:1008C0000900834211D91B1AA3610FD0730407D505
:1008D0002E6836F822303B4043EA090326F82230DE
:1008E00094F82420012A50D04EE1A161607810B123
:1008F000012813D01AE02868B0F85030184400EBF3
:100900000210B0F8042422F4F842A0F80424B0F84D
:10091000042442F40042A0F8042407E02868B0F858
:100920005030184400EB0210A0F8041462782868D4
:1009300012B1012A11D018E0B0F850100844217803
:1009400000EB0110B0F80C1421F4F841A0F80C14DD
:10095000B0F80C1441F4004105E0B0F85020104408
:10096000227800EB0210A0F80C1421782846FFF73B
:10097000AAFE7004B8D521782A6832F821003840E0
:1009800040EA090022F82100FEE062690244626147
:10099000E2690244E2612369226A9A4203D318465B
:1009A000111A04E038E084F824100AB110462162DC
:1009B000617811B1012923D02BE02968B1F85020CA
:1009C0001144227801EB021101F2044148B13E28A2
:1009D0000FD84208C30700D0521C0BEA82220A80BB
:1009E00017E00A8822F4F8420A800A8842F400429A
:1009F000F5E74209C30600D1521E4EEA8222EEE715
:100A00002968B1F850201144227801EB0211A1F8B5
:100A1000040483B22289B3E04FF0060808EBC20851
:100A2000E0440AEB480C30F80C00C0F309008342A4
:100A300011D31B1AA3610FD0730407D42E6836F8A4
:100A400022303B4043EA090326F8223094F8242060
:100A5000012A50D098E0A161607810B1012813D02C
:100A60001AE02868B0F85030184400EB0210B0F8D3
:100A7000042422F4F842A0F80424B0F8042442F438
:100A80000042A0F8042407E02868B0F85030184469
:100A900000EB0210A0F804146278286812B1012A51
:100AA00011D018E0B0F850100844217800EB011084
:100AB000B0F80C1421F4F841A0F80C14B0F80C14A0
:100AC00041F4004105E0B0F850201044227800EBDA
:100AD0000210A0F80C1421782846FFF7F4FD7004EA
:100AE00052D42278296831F82200384040EA0900BF
:100AF00021F8220048E0626902446261E26902442E
:100B0000E2612369226A9A4203D31846111A2162CC
:100B100004E00AB11046216284F824106278296842
:100B200012B1012A22D029E0B1F8502011442278D4
:100B300001EB021101F20C4148B13E280FD84208E6
:100B4000C30700D0521C0BEA82220A8016E00A88F2
:100B500022F4F8420A800A8842F40042F5E742098A
:100B6000C30600D1521E4EEA8222EEE7B1F85020B1
:100B70001144227801EB0211A1F80C04628983B2BE
:100B80006169286802F09CFD21782A6832F821000A
:100B900048F6BF73184080F0300048F280031843D5
:100BA00022F821000020BDE8F09F2DE9F041044625
:100BB0000F0601F0070000EB800104EBC1014FF0CC
:100BC00001064FF0000503D581F82960283103E0C4
:100BD00081F8695101F5B47108700A61CB704A78E7
:100BE00002B1C881022B00D10D7194F8A80201282E
:100BF00009D084F8A862206802F00AF8284684F830
:100C0000A852BDE8F0810220FBE770B50C4601F068
:100C1000070505EB850100EBC101C1E95F23002257
:100C2000C1F8842181F8692181F8685101F5B47116
:100C30006207006802F00CFA002070BD70B504462F
:100C40000D4601F007006168884201D9012070BD9E
:100C500029064FF000064FF0010207D500EB800196
:100C600004EBC10181F82920283107E005EB85015B
:100C700004EBC10181F8696101F5B4718A700870F3
:100C800094F8A802012807D084F8A822206802F06E
:100C9000C6F9680702D006E0022070BD04F52C7189
:100CA000206802F07EF984F8A862002070BD70B55B
:100CB0000C4601F0070505EB850100EBC101C1E918
:100CC0000F23012281F84C208B6400234B6481F8B0
:100CD000292001F8285F6207006802F0B9F90020B6
:100CE00070BD1FB50446006802F0C8FC000402D5C0
:100CF000204600F0F1FD206802F0C0FC40050CD554
:100D0000206830F8441F21F480610180204600F003
:100D10001FF90021204600F036F9206802F0AEFCF1
:100D2000400405D5206830F8441F21F4804101803B
:100D3000206802F0A3FC800405D5206830F8441F29
:100D400021F400510180206802F098FCC00414D501
:100D5000206830F8401F21F004010180206830F83D
:100D6000401F21F008010180204600F004F92068AE
:100D700030F8441F21F480510180206802F07EFC8D
:100D800000053ED522680020694632F8203021F85F
:100D90001030401CC0B20828F7D332F8400F40F0A2
:100DA00001001080206830F8402F22F001020280FC
:100DB0002068B0F844205205FBD530F8442F22F4C7
:100DC000806202800020236831F8102023F8202060
:100DD000401CC0B20828F6D3206830F8401F41F00C
:100DE00008010180206830F8441F21F4006101806F
:100DF000206830F8401F41F004010180204600F0D7
:100E0000F7F8206802F03AFC800508D5206830F831
:100E1000441F21F400710180204600F0B0F82068E2
:100E200002F02CFCC00505D5206830F8441F21F4E1
:100E3000807101801FBD00002DE9F04186B00400E3
:100E400004D094F8A902002520B108E0012006B0E2
:100E5000BDE8F08184F8A852204600F05BF803203A
:100E600084F8A902206802F095F804F11001142218
:100E700088466846FFF7A4F994E80F0001F0F4FFF4
:100E80000226D0BB0021206802F012FC00200127BE
:100E90000FE000BF00EB800104EBC10181F8297075
:100EA00001F8280FC881CD700D614D61401CC0B2A2
:100EB0008D6161688142EDD8002011E000EB800176
:100EC00004EBC10181F8695181F8680181F86B5127
:100ED000C1F87851C1F87C51401CC0B2C1F88051B2
:100EE00061688142EAD8142241466846FFF768F9F2
:100EF00094E80F0002F045F810B184F8A962A5E764
:100F000084F8245084F8A972206802F038F8002090
:100F10009DE7000008B50068A0F18041B1F5B84137
:100F200012D10A48C16941F40001C161C06900F4ED
:100F300000000090002205211420FFF773FBBDE89C
:100F400008401420FFF760BB08BD000000100240FD
:100F500070B504460125A068022801D0FFF7A8F962
:100F60002946D4F8E80201F0B6FBD4F8E802BDE85F
:100F7000704001F071BBD0F8E80201F096BBD0F8E8
:100F8000E80201F09CBB10B5044690F8A8020128C5
:100F90000BD0012084F8A80284F82410206802F005
:100FA00089FB002084F8A80210BD022010BDD0F8F3
:100FB000E82200F52C71104601F099BB10B50446EB
:100FC00090F8A802012810D0012084F8A802206817
:100FD00002F044FB01212046FFF774FB206801F07A
:100FE000CCFF002084F8A80210BD022010BD000034
:100FF00010B50446D4F8E80201F0BAFBA069002855
:1010000004D00348016841F00601016010BD0000F2
:1010100010ED00E02DE9F84305460078354CC00797
:1010200054D0E0690026C00008D4E06940F0805048
:10103000E061E069012600F0805000902E480168D0
:10104000C90512D40168804641F480710160FFF740
:1010500081FA074605E000BFFFF77CFAC01B642851
:1010600023D8D8F80000C005F6D5206A10F44070E7
:1010700021D0A98801F4407181421CD0206A1F4907
:10108000012220F440700A6000220A602062C0073A
:1010900011D0FFF75FFA074641F2883808E000BF39
:1010A000FFF758FAC11B414502D90320BDE8F88378
:1010B000206A8007F4D5206A696820F440700843EC
:1010C00020621EB1E06920F08050E061287880073E
:1010D00005D56068A96820F440400843606028781E
:1010E000C00605D56068E96820F4800008436060A8
:1010F0000020DBE700100240007000404004424244
:101100002DE9F0470F46050061D0434E306800F0EE
:101110000700B84209D2306820F007003843306039
:10112000306800F00700B84251D128683B4C810775
:1011300012D5400703D5606840F4E060606028780D
:10114000000703D5606840F4605060606068A9687B
:1011500020F0F000084360602878C00728D0686855
:10116000012810D02168022810D0890700292EDA22
:10117000616821F0030101436160FFF7EBF98046EC
:1011800041F288390DE021688903EFE78901EDE735
:10119000FFF7E0F9A0EB0801494502D90320BDE8BB
:1011A000F0876068696800F00C00B0EB810FEFD148
:1011B000306800F00700B8420BD9306820F0070013
:1011C00038433060306800F00700B84201D0012099
:1011D000E5E72878400705D56068E96820F4E06015
:1011E000084360602878000706D56068296920F404
:1011F000605040EAC100606000F038F86168084A59
:10120000C1F30311515CC8400649086006480068F4
:10121000FFF7C0F90020C2E70020024000100240A2
:10122000B4440008140000200C00002004480549C4
:1012300000684968044AC1F30221515CC840704704
:101240001400002000100240C4440008044805496E
:1012500000684968044AC1F3C221515CC840704724
:101260001400002000100240C444000812A185B000
:101270000FC98DE80F0014A0144A0068049051684B
:10128000134801F00C03042B10D0082B0ED1C1F32E
:101290008343C9031DF803000AD5516804AAC1F3AA
:1012A0004041515C0A4A5043B0FBF1F005B0704731
:1012B00008494843FAE70000020304050607080945
:1012C0000A0B0C0D0E0F101001020000001002405E
:1012D00000127A0000093D002DE9F84F040070D09B
:1012E0002078C04DC00749D06868C0F3810001284C
:1012F00007D06868C0F38100022809D16868C0037C
:1013000006D52868800339D560680028E7D035E025
:101310006068B0F5803F0BD010B1B0F5A02F11D0B0
:10132000286820F480302860286820F4802002E0BB
:10133000286840F480302860606890B1FFF70AF9AF
:1013400006460AE0286840F480202860F0E700BFE5
:10135000FFF700F9801B642873D828688003F7D54D
:101360000CE0FFF7F7F8064605E000BFFFF7F2F8DC
:10137000801B6428F0D828688003F7D420789A4E20
:1013800080074FF001094FF0000839D5686810F068
:101390000C0F07D06868C0F38100022809D1686883
:1013A000C00306D42868800714D52069012808D115
:1013B00010E02069B0B1C6F80090FFF7CBF80746FF
:1013C00005E00AE1FFF7C6F8C01B0228C4D8286868
:1013D0008007F7D52868616920F0F80040EAC1006D
:1013E00028600DE0C6F80080FFF7B4F8074604E077
:1013F000FFF7B0F8C01B022823D828688007F7D46D
:10140000207800072CD57948A169D9B1C0F800909F
:10141000FFF7A0F8074604E0FFF79CF8C01B02287E
:101420000FD8686A8007F7D571484FF4FA51006801
:10143000B0FBF1F0009000BF0098411E0091FAD27D
:101440000EE080E0C0F80080FFF784F8074604E073
:10145000FFF780F8C01B022875D8686A8007F7D4A8
:101460002078400760D5E8690027C00008D4E86903
:1014700040F08050E861E869012700F0805000905A
:101480005C480168C90513D40168834641F4807142
:101490000160FFF75FF8824606E000BFFFF75AF8E9
:1014A000A0EB0A0064284ED8DBF80000C005F5D593
:1014B000E06801280AD008B1052813D0286A20F076
:1014C00001002862286A20F0040002E0286A40F047
:1014D00001002862E06841F2883B98B1FFF73AF8D2
:1014E00082460BE0286A40F004002862EEE700BF65
:1014F000FFF730F8A0EB0A0159455AD8286A80074F
:10150000F6D50CE0FFF726F8824605E0FFF722F853
:10151000A0EB0A0159454CD8286A8007F6D41FB1C0
:10152000E86920F08050E861E06988B36968C1F338
:101530008101022944D00228C6F8608004D0FFF758
:1015400009F8044638E034E0FFF704F8074604E001
:10155000FFF700F8C01B02282BD828688001F7D4B9
:10156000206AB0F5803F05D16868A16820F400309A
:1015700008436860D4E908010843696821F47411DC
:1015800008436860C6F86090FEF7E4FF044606E092
:1015900025E000BFFEF7DEFF001B022809D82868FF
:1015A0008001F7D51BE000BFFEF7D4FF001B022827
:1015B00002D90320BDE8F88F28688001F4D40EE03A
:1015C0000128F7D06868226A00F48031914204D182
:1015D000616A00F47010884201D00120EAE700201F
:1015E000E8E700000010024000004242800442424E
:1015F000140000200070004010B5401EB0F1807F44
:1016000001D3012010BD4FF0E02460610F2160176D
:1016100002F081F80020A06107202061002010BDA9
:1016200070B5040004D094F83D00002510B106E028
:10163000012070BD84F83C50204600F023F824209F
:1016400084F83D002068C16821F40051C160204643
:1016500000F016FB2068016921F4904101612068C7
:10166000416921F02A0141612068C16841F40051BB
:10167000C1602564202084F83D0084F83E000020ED
:1016800070BD000030B585B0002400940194029430
:10169000039400681449884224D11448816941F4B4
:1016A00080418161816901F480410491816941F047
:1016B0000401816180690E4D00F0040004904FF434
:1016C0000070009002200190032003906946284694
:1016D000FEF742FE2815CDE900046946284602942B
:1016E000FEF73AFE05B030BD003801400010024060
:1016F00000080140FEE7F0B40023002A18D90A24AC
:10170000302537269C46B4EB107F04D905EB1077C3
:1017100001F8137003E006EB107701F81370000175
:1017200001EB430787F801C05B1CDBB29342EAD3AD
:10173000F0BC704700F0A4F84FF4FA7402F00AF815
:10174000204602F024F8F9E710B503490348FEF7F4
:10175000B1FD0349087010BD89000020740000200D
:101760008800002010B58AB0002007900890022160
:1017700007A802F018F8074C1C2207496060684669
:10178000FEF71EFD0021684602F02CF820600AB02A
:1017900010BD0000000000209844000870B586B01D
:1017A000002425480094019402940394816941F037
:1017B00010018161816901F010010491816941F09A
:1017C00020018161816901F020010491816941F06A
:1017D00008018161816901F008010491816941F08A
:1017E000040181618069154E00F004004FF400553A
:1017F0000490002229463046FEF7A6FE01200095FF
:10180000CDE901040224694630460394FEF7A4FDA5
:101810004FF4E04000900A48CDE9010469460948C8
:10182000FEF79AFD002205212820FEF7FBFE282066
:10183000FEF7EAFE06B070BD001002400010014045
:1018400000001110000C01400C4810B50A4901605D
:101850004FF4E1314160002181600C22C160C0E998
:1018600004128161C161FFF7DBFE002803D0BDE8EF
:101870001040FEF71DBD10BD0038014020040020BF
:1018800010B500220F49104800F0B0FD08B1FEF776
:101890000FFD0E490C4800F091FF08B1FEF708FD5E
:1018A0000B49094800F0D0FA08B1FEF701FD0648DF
:1018B00001F036F8002803D0BDE81040FEF7F8BC70
:1018C00010BD00009000002054150020F8000020FA
:1018D000E4000020FEE7FEE72DE9F84F044640F65D
:1018E0008F7B48F60F7A4FF002094FF4806874E15D
:1018F000B0F8441011F00F063AD030F826703904D1
:101900007DD530F8261001EA0B0141F0800120F866
:10191000261006EB860004EBC00595F8740105F56A
:10192000B47500286CD0E87802286AD0287822683C
:1019300032F8201048F68F73194048F2C00319435B
:1019400022F820102878D4F800C03CF82010BCF809
:10195000502049047ED509EBC000111808EB410066
:101960003CF800008005800D009074D02A89D8E0F2
:10197000C9062DD4018801EA0A0141F40041018021
:10198000216804F12805B1F850202B7809EBC30039
:10199000024408EB4200085AC0F309006064E16B9E
:1019A0000844E06300212046FEF78DFE94F82400F1
:1019B00000289CD0A869002899D194F824002168B7
:1019C00040F08000A1F84C00002084F8240004E1DD
:1019D000018804F5B4750A0521D5B0F850202B789C
:1019E000062101EBC3010A4408EB4201405A04F509
:1019F0002C71C0F30903EB61EA88206802E0ACE0D7
:101A000068E07AE001F03EFE2168088800EA0B00F9
:101A100040F0800008802046FFF7C9FADDE00904A5
:101A2000D5D5018801EA0B0141F0800101802068D1
:101A3000B0F850202B78062101EBC3010A4408EBD3
:101A40004201405A83059B0DEB6110D0696971B169
:101A5000EA8801E058E056E0206801F013FEE969E9
:101A600068690844686100212046FEF735FE206859
:101A7000018809052DD4B0F850100844296900F2F6
:101A80000C4051B13E2910D84A08C90700D0521C59
:101A90004FF6FF7101EA82210FE0018821F4F8413D
:101AA0000180018841F4004107E04A09C90600D1DC
:101AB000521E4FF4004141EA8221018020680188D2
:101AC0004BF68F72114081F4405148F2800211436D
:101AD000018082E0D4F800C0BCF850102A780620BB
:101AE00000EBC200014408EB41003CF80000800517
:101AF000800D00901AD0EA8813E03A462946204625
:101B0000FEF748FE009011E0062101EBC00011181D
:101B100008EB41003CF800008005800D009005D0E6
:101B20006A8903466046696901F0ACFDE96900987D
:101B30000844E8616969009808446861A86918B1B7
:101B400029690098814204D929782046FEF7C4FD0E
:101B500003E02946206801F07BFA38063DD506EB04
:101B6000860004EBC001206830F8262002EA0A0251
:101B700042F4004220F8262091F82B002831032857
:101B800004D018B1022824D1F80522D42368B3F870
:101B900050200D7809EBC500024408EB4200185AAA
:101BA0008A69C0F3090082420CD9121A8A610BD0EB
:101BB0004A6902444A61CA691044C861206801F058
:101BC00047FA0AE000208861E9B22046FEF77BFD73
:101BD00003E03A462046FEF750FE2068B0F8441075
:101BE00009043FF585AE0020BDE8F88F10B5FEF77B
:101BF000B7FC02F025FB012803D0BDE8104002F03D
:101C0000BBB910BD30B593B028216846FEF7F1FA94
:101C100014210AA8FEF7EDFA002401200F94109475
:101C20001194010412948DE8130004904FF4601095
:101C3000CDE90810022507956846FFF74DFB08B16E
:101C400072B6FEE70F20CDE90A054FF48060CDE9BA
:101C50000C4002210AA80E94FFF752FA08B172B69E
:101C6000FEE710200F90800412900FA8FFF7D2F922
:101C7000002801D072B6FEE713B030BD70470000F7
:101C800070B5044600680169E26821F440511143CF
:101C900001612169A0680843616908432168CA6835
:101CA00041F20C639A430243CA6020684169A26909
:101CB00021F44071114341611E492068884202D1DC
:101CC000FFF7C4FA01E0FFF7B1FA00EBC00101EB46
:101CD0000012606864218000B2FBF0F3B3FBF1F303
:101CE0006FF018067343B2FBF0F5B2FBF0F605EBAC
:101CF0008305322303EB0515B5FBF1F5B6FBF1F6D1
:101D000005F0F00505EB0615B2FBF0F6B2FBF0F0BE
:101D1000B0FBF1F06FF01802504306EB800003EBCC
:101D20000010B0FBF1F0216800F00F00284488603B
:101D300070BD000000380140D0F8B80200210175E4
:101D40000020704770B50546D5F8B842D5F8BC22DA
:101D50006178D268207890470223224601212846E4
:101D600000F071FC002070BD70B504468121204652
:101D700000F05BFB0025E5620121204600F055FBE9
:101D8000C4F86C51D4F8B80248B1D4F8BC028068E9
:101D90008047D4F8B80200F035FFC4F8B8520020EC
:101DA00070BD10B5D0F8B8422169012908D1D0F82A
:101DB000BC0223786178C2681846904700202061F1
:101DC000002010BD0A21018000487047C00100209A
:101DD000292101800048704730010020292101801D
:101DE000004870475C0100202921018000487047AD
:101DF0008801002070B504460026022303228121B9
:101E0000204600F014FC0125E56202230322012193
:101E1000204600F00CFCC4F86C51182000F0F4FED1
:101E2000C4F8B80270B1054600202875D4F8BC0289
:101E30004068804702232A460121204600F003FC27
:101E4000304670BD0126FBE702460220002902D081
:101E5000C2F8BC120020704738B5D0F8B832002262
:101E600000259446CDF800C0002491F800C01CF075
:101E7000600C2FD0BCF1200F04D000F0ABF802248E
:101E8000204638BD4A78921E0A2A1FD2DFE802F0A7
:101E900011081E1E1E1E1E170D0588785860EFE7DC
:101EA0000122191D00F0BCF8EAE74888000A986092
:101EB000E6E7012203F1080100F0B2F8E0E70122B1
:101EC0001A61CA88194600F091F8D9E700F082F843
:101ED0000224D5E791F801C0BCF1000F0CD0BCF191
:101EE000060F16D0BCF10A0F2FD0BCF10B0F3AD061
:101EF00000F070F80224C3E790F89C22032A03D074
:101F000000F068F80224BBE70222694600F088F876
:101F1000B6E74B884FF0220CBCEB132F07D1CA88D1
:101F2000022A00D90222D0F8BC120D6809E04FF055
:101F3000210CBCEB132F04D1104DCA88092A00D9FB
:101F40000922294600F06CF89AE790F89C22032AAF
:101F500003D000F03FF8022492E7012203F10C01C4
:101F600000F05EF88CE790F89C22032A03D000F082
:101F700031F8022484E78878D86081E7B401002032
:101F800010B5D0F8B42252689047002010BD90F8E8
:101F90009C22012A05D0022A03D0032A01D000F096
:101FA00019B84988012904D10021C0F8A41200F011
:101FB00044B8704710B513460A46002100F043FBB1
:101FC000002010BD10B513460A46002100F0D9FBD1
:101FD000002010BD10B504468021204600F0B6FB5D
:101FE0002046BDE81040002100F0B0BB10B503232F
:101FF000C0F89432C0F85C21C0F8602113460A464C
:10200000002100F020FB002010BD10B50521C0F814
:10201000941200231A46194600F015FB002010BD4B
:1020200010B50223C0F89432C261026213460A4618
:10203000002100F0A6FB002010BD10B50421C0F85F
:10204000941200231A46194600F09BFB002010BD95
:1020500010B5002806D00A46054906A000F092F9FE
:10206000034810BD0A46024902A000F08BF9F7E7C9
:1020700018180020437573746F6D2048494420433D
:102080006F6E666967000000122008800048704784
:10209000B000002010B5002806D00A46054906A069
:1020A00000F070F9034810BD0A46024902A000F092
:1020B00069F9F7E718180020437573746F6D2048AD
:1020C000494420496E7465726661636500000000D2
:1020D0000420088000487047AC00002010B50A4674
:1020E000024903A000F04EF9004810BD1818002066
:1020F00053544D5F4B6579626F617264000000005C
:1021000010B5002806D00A46054906A000F03AF9A5
:10211000034810BD0A46024902A000F033F9F7E770
:102120001818002053544D333220437573746F6D6B
:102130002048756D616E20696E74657266616365B5
:102140000000000010B51A200880FEF7DBF80148F7
:1021500010BD0000C4000020CA88012A01D0FFF78A
:1021600039BF90F89C22012A05D0022A03D0032A05
:1021700008D0FFF72FBF00218160012200F1080184
:10218000FFF74EBF0122011DFFF74ABF2DE9F843BB
:1021900004460F4600200090002600257888010A9A
:1021A000082970D2DFE801F0AB040C22ABAB8B9AAC
:1021B000D4F8B012207C0A68694690470646A3E02E
:1021C000207C4FF0020840B1D4F8B402C16A6846DE
:1021D0008847064686F8018096E0D4F8B402816A02
:1021E00068468847064686F801808DE0C0B206281A
:1021F0005FD2DFE800F0031221303F4FD4F8B00285
:10220000426822B1207C6946904706467CE0394608
:102210002046FFF7DFFE012576E0D4F8B0028268A1
:1022200022B1207C6946904706466DE0394620463B
:10223000FFF7D0FE012567E0D4F8B002C26822B1F2
:10224000207C6946904706465EE039462046FFF707
:10225000C1FE012558E0D4F8B002026922B1207C09
:102260006946904706464FE039462046FFF7B2FEE2
:10227000012549E0D4F8B00242692AB1207C6946C0
:102280009047064640E03AE039462046FFF7A2FE76
:10229000012539E0D4F8B002826922B1207C694678
:1022A0009047064630E039462046FFF793FE012569
:1022B0002AE039462046FFF78DFE012524E0207CE8
:1022C00028B139462046FFF785FE01251CE0D4F8E9
:1022D000B402416B68468847064615E0207C28B169
:1022E00039462046FFF776FE01250DE0D4F8B4020A
:1022F000016B6846884706460721717004E039463D
:102300002046FFF767FE0125002D12D1BDF8000021
:1023100048B1FA883AB1824200D902460092314669
:102320002046FFF77DFEF888002802D12046FFF7FF
:1023300084FEBDE8F88300210278002A05D0491CFC
:10234000C9B2401C0278002AF9D10846704790F8BB
:102350009C22012A05D0022A03D0032A01D0FFF7CC
:1023600039BECA88022A01D0FFF734BE0121C160FC
:10237000D0F8A41209B10321C160022200F10C01BE
:10238000FFF74EBE70B504460D461646002C1AD017
:102390002046FFF7D0FF022101EB4000308030786B
:1023A0002870032102206970217800290BD00022B7
:1023B00014F8013B411CC9B22B54481CC0B26A54EA
:1023C00021780029F4D170BD01460020002906D0F3
:1023D000012905D0022905D0032905D00220704724
:1023E00002207047012070470220704710B5002876
:1023F00010D0D0F8B43213B10023C0F8B43209B110
:10240000C0F8B012012180F89C12027000F0C6F8EA
:10241000002010BD022010BD10B5D0F8C002FEF79C
:102420008BF9BDE81040FFF7CFBF10B5D0F8C00260
:10243000FEF75CF9BDE81040FFF7C6BF70B5044673
:102440009446002909D0D4F8B40242691AB194F82C
:102450009C02032859D0022070BD04F11400D4F866
:1024600094120025022904D0042940D000293ED02E
:1024700041E0C36801698B420DD9591AC1608AB223
:1024800061462046FFF79EFD00231A461946204666
:1024900000F0D9F82FE08068B0FBF1F201FB1202E6
:1024A0009AB9884211D3D4F8981288420DD20022EA
:1024B00011462046FFF786FDC4F8985200231A46BD
:1024C0001946204600F0BFF815E0D4F8B402C16800
:1024D00029B194F89C02032801D120468847802125
:1024E000204600F033F92046FFF78FFD03E08021FE
:1024F000204600F02BF994F8A002012807D12046CD
:1025000000F065F984F8A05201E0204690470020D1
:1025100070BD10B5044608461146002809D0D4F80D
:10252000B4128A691AB194F89C12032931D002209E
:1025300010BD04F5AA70D4F89432032B02D0052BF9
:102540001FD029E0D0F810C0C36863450BD9A3EBB6
:102550000C03C3600069834200D303469AB220464D
:10256000FFF728FD18E0D4F8B402016929B194F806
:102570009C02032801D1204688472046FFF75DFDD5
:102580000AE00020C4F894020021204600F0DEF8A2
:1025900002E0014620469047002010BD10B50446D9
:1025A0001848C0F8E842C4F8C00217490160082181
:1025B00041600221816000218161C1610162FEF7F9
:1025C0003BFC08B1FDF774FE002218231146D4F835
:1025D000C002FEF759F8582300228021D4F8C00227
:1025E000FEF752F8982300228121D4F8C002FEF7AA
:1025F0004BF8D82300220121D4F8C002FEF744F89A
:10260000002010BD341A0020005C004011F0800F43
:1026100001F07F01D0F8C00201EB810100EBC100A5
:1026200002D090F82A00704790F86A01704710B500
:102630009C461346D0F8C0026246FEF7B6FABDE8E3
:102640001040FFF7C1BE10B5D0F8C002FEF7DDFAAA
:10265000BDE81040FFF7B8BE70B504460022402325
:1026600011462046FFF7E3FF0125C4F858514026E4
:10267000C4F864614023002280212046FFF7D7FF81
:10268000A561666284F89C520020C4F894026060E0
:10269000C4F8A402D4F8B80228B1D4F8B4020021D6
:1026A000426820469047002070BD90F89C12042993
:1026B00003D190F89D1280F89C120020704710B54D
:1026C00090F89C12032904D1D0F8B412C96901B161
:1026D0008847002010BD01740020704710B5D0F865
:1026E000C002FEF750FCBDE81040FFF76DBE10B50C
:1026F000044604F52A7000F04DF80120C4F8940255
:10270000B4F8AE02C4F8980294F8A81211F01F00B1
:102710000AD001280ED0022812D001F080012046F4
:1027200000F014F8002010BD04F52A71204600F0D6
:10273000FCF8F7E704F52A71204600F02EFAF1E7DD
:1027400004F52A71204600F030F9EBE710B5D0F817
:10275000C002FEF773FABDE81040FFF735BE10B5B2
:10276000D0F8C002FEF72AFCBDE81040FFF72CBEEF
:1027700090F89C1280F89D12042180F89C12002091
:10278000704710B5D0F8C002FEF791FABDE81040CE
:10279000FFF71ABE0A7802704A7842708A78CB78BE
:1027A00002EB032242800A794B7902EB03228280FA
:1027B0008A79C97902EB0121C18070470246002065
:1027C000002902D0C2F8B4127047022070470020DE
:1027D000704770B504468888002821D1C888F8B9A8
:1027E000488880281CD200F07F0594F89C020328BA
:1027F0000DD084F89E5229462046FFF76FFF2046F1
:10280000FFF71BFC45B1022084F89C0270BD2046F6
:10281000BDE87040FFF7DEBB012084F89C0270BD6C
:102820002046BDE87040FFF7D5BB10B50224D0F8B4
:10283000B422002A03D01268904700B90024204631
:1028400010BD000070B504460D46304EA9783170B9
:10285000012905D929462046BDE87040FFF7BABBDB
:1028600094F89C0202280BD0032823D02946204646
:10287000FFF7B0FB31782046BDE87040FFF780BB22
:1028800099B16160032084F89C022046FFF7CDFFD8
:10289000022804D02046BDE87040FFF7CEBB294691
:1028A0002046BDE87040FFF795BB2046BDE870406C
:1028B000FFF7C3BB91B16068884221D0C1B2204606
:1028C000FFF75EFB317861602046FFF7AEFF02281C
:1028D00010D02046BDE87040FFF7AFBB022084F85F
:1028E0009C0261602046FFF74BFB2046BDE870402C
:1028F000FFF7A3BB29462046BDE87040FFF76ABB3F
:102900002046BDE87040FFF798BB0000F4000020AF
:102910004988012903D1C0F8A412FFF78EBB704784
:1029200010B5FFF71CFF002010BD10B503460024B2
:10293000087810F060020ED0202A06D0402A04D079
:102940001846FFF747FB204610BDD3F8B402826853
:1029500018469047F7E748780A2822D2DFE800F0C7
:10296000151D211921090521110D1846FFF70EFC2F
:10297000E9E71846FFF72DFFE5E71846FFF762FF86
:10298000E1E71846FFF7E8FBDDE71846FFF7DFFC55
:10299000D9E71846FFF7BCFFD5E71846FFF7F7FA67
:1029A000D1E71846FFF716FBCDE72DE9F0410446C5
:1029B000084600260179037813F0600211D0202A1E
:1029C00008D0402A06D001462046FFF703FB3046D8
:1029D000BDE8F081D4F8B4128A68014620469047D9
:1029E000F5E703F06002202A0BD04278002A61D07C
:1029F000012A37D0032A0CD001462046FFF7EAFA15
:102A0000E5E7D4F8B4128A6801462046BDE8F041F3
:102A1000104794F89C22022A06D0032A14D00146BB
:102A20002046FFF7D7FAD2E749B1802907D02046E0
:102A3000FFF78CFE80212046FFF788FEC7E701469E
:102A40002046FFF7C7FAC2E742883AB931B1802978
:102A500004D0C08810B92046FFF778FE2046FFF763
:102A6000ECFAB4E794F89C22022A06D0032A14D088
:102A700001462046FFF7AEFAA9E749B1802907D001
:102A80002046FFF763FE80212046FFF75FFE9EE7AA
:102A900001462046FFF79EFA99E74088002896D124
:102AA00011F07F0F02D02046FFF7B6FC2046FFF75B
:102AB000C4FA8CE794F89C220027022A06D0032A45
:102AC00026D001462046FFF785FA80E731B18029FC
:102AD00004D001462046FFF77DFA78E711F0800F19
:102AE00008D001F07F0000EB800004EB800000F1D3
:102AF000140107E001F07F0000EB800004EB800090
:102B000000F5AA710F6002222046FFF789FA5EE7FE
:102B100011F0800F0CD001F00F0202EB820204EBE7
:102B2000820292696AB901462046FFF753FA4EE7DE
:102B300001F00F0202EB820204EB8202D2F858216C
:102B40005AB111F0800F0DD001F07F0000EB800032
:102B500004EB800000F114050CE001462046FFF76D
:102B600039FA34E701F07F0000EB800004EB8000CD
:102B700000F5AA7541B1802906D02046FFF746FD31
:102B800020B10120286002E02F6000E02F600222C7
:102B900029462046FFF744FA19E770B505460C466A
:102BA000207810F0600209D0202A07D0402A05D0F2
:102BB00021462846FFF70EFA002070BD95F89C22AA
:102BC000012A08D0022A06D0032A04D0214628462A
:102BD000FFF700FAF0E7207901280ED8D5F8B40203
:102BE0002146826828469047E1880029E4D10028E0
:102BF000E2D12846FFF721FADEE721462846FFF713
:102C0000E9F9D9E77047000000487047181A00201A
:102C10002DE9F0470C78002630F8243048F68F1262
:102C20001340CA78002A7DD0012A7CD0022A02D023
:102C3000032A7FD0012648F28002134320F8243073
:102C40000D7830F8254048F68F731C402C43144310
:102C500020F825400D7B48F2C00C48F6BF744CF2BA
:102C600080074BF68F79EDB391F80080C24630F8BB
:102C7000285048F280181D4045EA080520F82A50DF
:102C8000B0F8505091F80080054405EB0815B1F8F4
:102C9000088028F00108A5F80084B0F8505091F899
:102CA0000080054405EB0815B1F80A8028F00108FA
:102CB000A5F808844D78002D0D7830F825804FEA6E
:102CC00048487DD0B8F1000F07DA30F8258008EACF
:102CD000030848EA070820F825800F7830F82750C5
:102CE0006D0600E02CE006D530F827501D4045EA7F
:102CF0000C0520F82750CB780D78012B30F82530C3
:102D000003EA040301D083F02003134320F82530A5
:102D10000B7830F8231001EA0901114320F8231041
:102D2000304602E003E008E004E0BDE8F08743F449
:102D3000007380E743F4C0637DE743F480637AE780
:102D40004D782DB3B0F850500F78054405EB0715BA
:102D5000CF8827F00107A5F800740F7830F82750C6
:102D60006D0606D530F827501D4045EA0C0520F8C1
:102D70002750CB78012B06D00B7830F82310214058
:102D800081F02001C9E70B7830F823102140C4E717
:102D9000B0F850400D78044404EB0514CD8825F0BC
:102DA0000105A4F80854B0F850400D78044404EB31
:102DB00005140D6904F20C4475B13E2D14D800E0E1
:102DC00030E04FEA550CED0701D00CF1010C4FF645
:102DD000FF7505EA8C2511E0258825F4F845258046
:102DE000258845F4004509E04FEA551CED0601D160
:102DF000ACF1010C4FF4004545EA8C2525800D7897
:102E000030F82540640405D530F825401C403C438B
:102E100020F825400B7830F8231001EA090181F4ED
:102E200040517AE7B8F1000F07DA30F8258008EA58
:102E3000030848EA070820F825800F7830F8275063
:102E40006D0606D530F827501D4045EA0C0520F8E0
:102E500027500D7830F8253003EA090383F44053F6
:102E6000134320F825308EE7002070472DE9F0430A
:102E700091F80C804F780A7848F6BF7C4BF68F7932
:102E800048F2800348F2C0054CF2800648F68F7481
:102E9000B8F1000F28D0002F30F822704FEA4747D2
:102EA00048D0002F05DA30F822702740374320F849
:102EB00022700A7830F822707F0605D530F822702B
:102EC00027402F4320F822700D7830F8252022402B
:102ED000324320F825200C7830F8242002EA0C0236
:102EE0001A4320F824201AE07FB130F822607606D9
:102EF00005D530F8226026402E4320F822600A785B
:102F000030F8221001EA0C010EE030F822506D0476
:102F100005D530F822502540354320F822500A7854
:102F200030F8221001EA0901194320F8221000208C
:102F3000BDE8F083002F05DA30F8227027403743D0
:102F400020F822700A7830F82260760605D530F82D
:102F5000226026402E4320F822600E7830F826208A
:102F600022402A4320F826200C7830F8242002EA58
:102F700009021A4320F82420C1E7002070470020EE
:102F80007047012120F8401F0021018081800182CB
:102F90000846704730F8401F21F43F41018000206F
:102FA00070470020704730B50A7BB2BB4A7848F6BC
:102FB0008F7548F28004C2B10B7830F82320520696
:102FC00007D530F823202A4048F2C0052A4320F8CC
:102FD0002320CA78012A20D00A7830F8221048F637
:102FE000BF73194081F0200114E00A7830F82230D4
:102FF0005B0407D530F822302B404CF280052B4380
:1030000020F822300A7830F822104BF68F731940DE
:1030100081F44051214320F82210002030BD10B52A
:103020004A780978002A48F2800330F8212005D038
:1030300048F6BF74224082F0100204E04BF68F7411
:10304000224082F480521A4320F82120002010BD33
:103050002DE9F0470E464B78097B04464FF00009F6
:1030600048F68F7248F2800A4FF6FF774FF4004817
:10307000012B09D000296ED0F07802286CD00128ED
:103080006BD00120BDE8F087B5693069854200D971
:103090000546C9B1F17848F28013022923D031786E
:1030A00034F821001040184324F82100306A401BF6
:1030B0003062307834F82010490671787ED50029C6
:1030C0007DD001297CD03FE1ABB2F2882046716906
:1030D00000F0F6FAB4F850003178204400EB01100B
:1030E000A0F80454EAE0316A81426AD9317834F8B0
:1030F00021001040184324F82100306A401B306240
:10310000307834F82010490671786CD511B1012956
:1031100024D02AE0B4F85010214401EB001000F252
:103120000C404DB13E2D0FD86908EA0700D0491C6C
:1031300007EA8121018018E0018821F4F84101802B
:10314000018841F40041F5E76909EA0600D1491E0A
:1031500048EA8121EEE79CE1BCE126E2B4F8502088
:10316000111901EB0010A0F80C547289ABB2204683
:10317000716900F0A5FA7069284470613169306A9C
:10318000884202D9401B306202E00546C6F8209012
:10319000707800287CD1B4F850003178204400EBDE
:1031A000011000F204406DB13E2D13D86908EA0702
:1031B00000D0491C07EA8121018012E001E19BE077
:1031C000BBE084E0018821F4F8410180018841F4EA
:1031D0000041F1E76909EA0600D1491E48EA812168
:1031E000EAE7328965E011B1012921D027E0B4F87E
:1031F0005010214401EB001000F204404DB13E2D6F
:103200000FD86908EA0700D0491C07EA812101802C
:1032100015E0018821F4F8410180018841F4004162
:10322000F5E76909EA0600D1491E48EA8121EEE77F
:10323000B4F85010214401EB0010A0F80454328976
:10324000ABB22046716900F03BFA706928447061A6
:103250003169306A884202D9401B306202E005467B
:10326000C6F82090707800287ED1B4F850003178EC
:10327000204400EB011000F20C4055B13E2D10D857
:103280006908EA0700D0491C07EA812101800FE0A4
:1032900072E0018821F4F8410180018841F4004185
:1032A000F4E76909EA0600D1491E48EA8121EDE701
:1032B0007289ABB22046716900F002FA317834F8B5
:1032C000210048F6BF72104080F03000C0E1327833
:1032D00034F8220048F68F63184040EA0A0024F8C8
:1032E0002200B4F850003278204400EB02108BB278
:1032F000A0F804343289DDE7B4F85010214401EB22
:10330000001000F20C404DB13E2D0FD86908EA07BD
:1033100000D0491C07EA8121018015E0018821F4D1
:10332000F8410180018841F40041F5E76909EA06A6
:1033300000D1491E48EA8121EEE7B4F85020111966
:1033400001EB0010A0F80C547289ABB220467169F1
:1033500000F0B6F97069284470613169306A8842BA
:1033600003D9401B306203E06EE00546C6F82090AA
:10337000002DA3D0707858B101287FF41EAFB4F8A7
:1033800050003178204400EB0110A0F8045428E7E5
:10339000B4F850003178204400EB011101F20441EF
:1033A0003E2D06D86808EA0700D0401C07EA8020B6
:1033B00005E06809EA0600D1401E48EA802008803E
:1033C0000FE711B1012921D027E0B4F850102144B2
:1033D00001EB001000F204404DB13E2D0FD86908FA
:1033E000EA0700D0491C07EA8121018015E0018825
:1033F00021F4F8410180018841F40041F5E76909B1
:10340000EA0600D1491E48EA8121EEE7B4F85010DF
:10341000214401EB0010A0F804543289ABB22046DD
:10342000716900F04DF97069284470613169306A42
:10343000884202D9401B306202E00546C6F820905F
:10344000002D96D0707858B101287FF420AFB4F8E1
:1034500050100819317800EB0110A0F80C5427E740
:10346000B4F850003178204400EB011101F20C4116
:103470003E2D06D86808EA0700D0401C07EA8020E5
:1034800005E06809EA0600D1401E48EA802008806D
:103490000EE7B1693069814202D9091AB161B5E01C
:1034A0000846C6F81890B1E0088820F4F840088073
:1034B000088840F400400BE03E2875D84208C00759
:1034C00000D0521C07EA822002E000BF48EA8220B6
:1034D0000880B5E093B9B4F850003178204400EB8F
:1034E0000110316900F2044069B13E2913D84B083C
:1034F000C90700D05B1C07EA83210180707888B17E
:10350000012832D03AE0018821F4F8410180018895
:1035100041F40041F1E74B09C90600D15B1E48EABE
:103520008321EAE7B4F850003178204400EB011021
:10353000316900F20C4049B13E290FD84B08C90748
:1035400000D05B1C07EA8321018017E0018821F489
:10355000F8410180018841F40041F5E74B09C906B3
:1035600000D15B1E48EA8321EEE7B4F85010081939
:10357000317800EB0110318AA0F80C14F069A8B37F
:10358000317834F82100430401D5430603D444F2D2
:103590004003184254D134F82100104048F2C002D0
:1035A000104324F821004BE03CE0B16930698142CE
:1035B00002D9091AB16102E00846C6F818908BB921
:1035C000B4F850103278214401EB021101F20441A9
:1035D00068B13E2813D84208C30700D0521C07EA3E
:1035E00082220A80717889B1012921D028E00A88D5
:1035F00022F4F8420A800A8842F40042F1E74209C4
:10360000C30600D1521E48EA8222EAE7B4F85010FD
:103610003278214401EB021101F20C4100287FF4C1
:103620004BAF41E74209C0067FF450AF521E4DE751
:10363000B4F850201119327801EB0211A1F80C04F2
:10364000317834F821004BF68F72104080F44050EE
:1036500040EA0A0024F82100002013E50021A0F828
:1036600044104FF43F41A0F8401000207047000084
:103670000148FDF736BB0000341A0020B0F84400C2
:103680007047000010B500EB42005C0800F5806058
:1036900009D000BF30F8042B01F8012B120A01F801
:1036A000012B641EF6D1DA0701D00088087010BD26
:1036B0000020704711B98021A0F84C1000207047FD
:1036C00010B55B1C00EB42005B0800F5806009D080
:1036D00011F8012B11F8014B42EA042220F8042BC7
:1036E0005B1EF5D110BD0000024801210170007879
:1036F00070470000700000200120704700207047D4
:10370000024801210170007870470000700000201D
:1037100000207047FEE70907090E002804DB00F1CE
:10372000E02080F80014704700F00F0000F1E02066
:1037300080F8141D704702E008C8121F08C1002A53
:10374000FAD170477047002001E001C1121F002A22
:10375000FBD170474FF400510148FCF7EDBE00006B
:1037600000100140FCF704FFFEF74CFAFEF716F8D4
:10377000FEF76AF8FDF7E8FFFDF7F4FF00F00EF83A
:10378000FEE701460020842900D0C81C704710B510
:1037900000B9012000F042FB002010BD10B500F080
:1037A00073FB002010BD38B543684BB1012909D126
:1037B0000320002200901146012000F00EFC38BDCD
:1037C000012901D0002038BD03220021012000F092
:1037D000E9FB040004D000231A46194600F044FC1B
:1037E000204638BD7FB50D4604464169B0F9080052
:1037F00081B1A16971B1FFF7C4FFD4E905128DE869
:103800000700D4E900102B46226900F0FEFC03906B
:1038100004B070BDFFF7B5FF03A9CDE90001208A10
:103820002B4682B2D4E9001000F0C2FC012801D07E
:103830000020EDE70398EBE72DE9F041184C0F4627
:10384000054666692068001D00F04EFA38B9206808
:1038500090F82C1001208840A1698143A161681C67
:1038600007D137B12168BDE8F0410E48091D00F0CD
:103870007FBA20683544B5424560216805D2A0680A
:10388000BDE8F041091D00F05BBA6068091D00F059
:1038900057FA206B854200D22563BDE8F081000015
:1038A00018000020400500202DE9F041054600F0F9
:1038B0006BFA2E4C2069401C206120682C4F10B1FF
:1038C000E06940B32DE025602069012829D1002658
:1038D00006EB860007EB800000F024FA761C072E2A
:1038E000F6D323488C3000F01DFA2148A03000F0B8
:1038F00019FA1F48B43000F015FA1D48C83000F01E
:1039000011FA1B48DC3000F00DFA19488C30606069
:103910001430A06005E02068E96AC06A884200D8D7
:103920002560E06A401CE062E96A0120A2698840E3
:103930001043A06101EB810007EB8000291D00F01E
:1039400017FA00F02FFAE06900280CD02068E96A25
:10395000C06A884207D207494FF080500860BFF321
:103960004F8FBFF36F8FBDE8F0810000180000207B
:103970006404002004ED00E02DE9F041856B17465A
:1039800004460026026C82B1C7B1E068FCF718FC5F
:10399000E168206C091AE1602268914202D26168F4
:1039A000081AE060022F16D017E02068A8B96068F6
:1039B00000F0AEFC0646002060600EE0A068FCF758
:1039C000FFFB216CA0680844A0606168884204D3B2
:1039D0002068A06001E005B16D1E6D1CA563304636
:1039E000BDE8F08110B5044690F8510030B10128CF
:1039F00008D12046BDE8104000F0DEB9206B00F091
:103A0000DBF9F6E710BD000010484FF48051420783
:103A100006D0C01D0D4920F00700411AC1F58051A4
:103A20000B4A00230144C2E900030839103A21F08F
:103A3000070111604B600B600B1AC0E90013936023
:103A40004FF000405360D0607047000054050020E4
:103A500064000020144E154CA6F1C8074FF08058A2
:103A6000DFF84C9012E000BF00F08EF9F068C568F6
:103A7000281D00F039F92069401E2061E068401ED1
:103A8000E06000F08FF92846FFF7ACFFE0680028FF
:103A9000EAD138680128F9D9C9F80080BFF34F8FFF
:103AA000BFF36F8FF2E700002C0500201800002004
:103AB00004ED00E00346009829B10260C0E90F312F
:103AC000012100F097BA0060F8E72DE9F0479A4627
:103AD000DDE9096481466FF00303206B03EB82028A
:103AE0001044089D20F00708002023180A5C83F882
:103AF00034200A5C12B1401C1028F6D3002784F849
:103B00004370072D00D30625E562C4E91157201D37
:103B100000F013F904F1180000F00FF92461C5F169
:103B200007006462A061E76484F850705246494619
:103B3000404600F0C7F82060002E00D03460BDE899
:103B4000F087000030B5114900E011460A68824252
:103B5000FBD34B685C18844203D14068184448602A
:103B6000084643681C18944209D1084C103C24684C
:103B7000A24209D052681A4442600A681268026080
:103B8000814200D0086030BD0460F9E76400002085
:103B900006484168096829B14168C968C968496827
:103BA000016370474FF0FF31FAE700001800002072
:103BB000502080F31188BFF34F8FBFF36F8FFEE764
:103BC0002DE9F041044600F0DFF894F9455004F186
:103BD000240609E0606A48B1304600F0D1FB08B124
:103BE00000F03CF96D1E6DB2002DF3DC4FF0FF3696
:103BF00084F8456000F0D6F800F0C6F894F9445017
:103C000004F1100709E0206948B1384600F0B8FB1C
:103C100008B100F023F96D1E6DB2002DF3DC84F8BD
:103C20004460BDE8F04100F0BDB800002DE9F0416E
:103C30000546002700F05EF9214E306808B9FFF70D
:103C4000E3FEF068054236D1ADB30835680704D00D
:103C500005F00700C0F10800054465B370688542AF
:103C600029D81748103001460C6801E020460C4660
:103C70006168A94202D221680029F7D131688C42DB
:103C800019D007682168016060680837411B102956
:103C900004D9601941606560FFF754FF616870687E
:103CA000401A7060B268904200D2B060F068014380
:103CB0000020C4E9000100F095FB3846BDE8F08122
:103CC0005400002010B5031F4FF080741C601B1FB0
:103CD00021F001011960191F024B0B6014394038A3
:103CE0000A6010BDB13B0008D0E9013201699A6059
:103CF000D0E901235A604A68824201D182684A6051
:103D0000002202610868401E0860086870470000D1
:103D1000034B036003F1540008608020106070477B
:103D2000CC01002000F108014FF0FF32C0E9011280
:103D3000C16001610021016070470021016170478D
:103D400030B50B685A1C02D000F1080202E002698B
:103D500004E02246546825689D42FAD953684B60B6
:103D600099608A60516008610168491C016030BD3A
:103D700042684A6093688B609368596091600861FB
:103D80000168491C01607047502080F31188BFF31F
:103D90004F8FBFF36F8F02480168491C0160704765
:103DA0006C00002003490868401E086001D180F3C0
:103DB000118870476C00002070B5002818D00D4D98
:103DC000A0F108046068E968084211D02268002A5E
:103DD0000ED18843606000F08DF86068696808441F
:103DE00068602046FFF7AEFEBDE8704000F0FABA0A
:103DF00070BD0000540000204FF0E0200021016160
:103E0000816105494FF47A720968B1FBF2F1491EEC
:103E100041610721016170471400002010B50200C4
:103E200009D000F067F800211046FFF705FD00F00B
:103E3000D9FA002807D104494FF080500860BFF339
:103E40004F8FBFF36F8F10BD04ED00E002498A6A07
:103E50000260496941607047180000200149012053
:103E6000486270471800002010B50C4605490968E3
:103E70001831FFF765FF2046BDE810400121FFF72C
:103E8000DBBC00001800002010B586B000240394AD
:103E900005AA04A903A80494FFF73AFFDDE903018A
:103EA0000094CDE9011000230EA11048059A00F0FE
:103EB000ACF90F490028486311D0502080F31188D5
:103EC000BFF34F8FBFF36F8F4FF0FF3008630120B8
:103ED000C8614C6106B0BDE8104000F035B806B0CE
:103EE00010BD000049444C4500000000553A000850
:103EF000180000200248816B491C81637047000054
:103F0000180000200E48816B11B1012141627047F9
:103F10000021416281690B4AB1FA81F1C1F11F01AF
:103F200001EB810102EB810101F108034A6852684B
:103F30004A609A4201D152684A60D1680160704774
:103F40001800002064040020094810B5016841F4FD
:103F500070010160016841F070410160FFF74CFFA2
:103F6000044900200860FCF7DFF8002010BD0000C5
:103F700020ED00E06C00002010B5502080F3118887
:103F8000BFF34F8FBFF36F8F00F068F918B104498A
:103F90004FF080500860002080F3118810BD0000B1
:103FA00004ED00E0F8B517460E00054613D005FBFA
:103FB00006F04830FFF73AFE04000AD0002084F8EB
:103FC000460004F148023B46314628460094FFF77C
:103FD00071FD2046F8BD0020EBE738B51C00049DBC
:103FE00006D0012384F846302B460094FFF762FD8B
:103FF000204638BD70B50D460446FFF7C5FED4E92E
:104000000F12206801FB020060600020A06320689E
:10401000A0600146E06B401E00FB0210E0604FF024
:10402000FF3084F8440084F8450004F110004DB1DD
:10403000FFF778FE04F12400FFF774FEFFF7B2FEED
:10404000012070BD21690029F8D000F099F90028FD
:10405000F4D004494FF080500860BFF34F8FBFF396
:104060006F8FEBE704ED00E02DE9FF4700273B4EA3
:1040700082B099468A460446B8464FF0805500BF44
:10408000FFF782FEA06BE16B884206D3B9F1020F05
:1040900003D00498C0B1D7B11DE04A46514620462E
:1040A000FFF76AFC616A19B104F1240000F068F9B5
:1040B00020B13560BFF34F8FBFF36F8FFFF772FEF4
:1040C000012006B0BDE8F087FFF76CFE21E06846EE
:1040D000FFF7BCFE0127FFF765FEFFF70BFFFFF7B9
:1040E00053FE94F94400401C01D184F8448094F9B3
:1040F0004500401C01D184F84580FFF753FE04A918
:10410000684600F02DF830B12046FFF759FD00F069
:1041100069F90020D5E7FFF737FEA06BE16B884215
:1041200013D1FFF73FFE04F110000499FFF79CFE46
:104130002046FFF745FD00F055F90028A0D1356075
:10414000BFF34F8FBFF36F8F9AE7FFF72BFE204629
:10415000FFF736FD00F046F992E7000004ED00E0BD
:104160002DE9F0410C460546FFF70EFE0F4B5A694C
:104170006E682168901B4F1C07D02F689B6A9F4276
:1041800009D0964207D8012400E00024FFF70AFE78
:104190002046BDE8F081814205D9081A20602846F2
:1041A000FFF754FEF1E700202060ECE71800002044
:1041B0002DE9FF5F8346DDE90E87994616468A465C
:1041C0009000FFF733FD05001CD05420FFF72EFDB3
:1041D000040014D00020256384F85100CDE902408A
:1041E000CDE900874B46324651465846FFF76DFCF5
:1041F0002046FFF759FB012004B0BDE8F09F284698
:10420000FFF7DAFD4FF0FF30F6E7F0B585B0002696
:10421000DDE90B540A9F7CB175B12563022584F852
:10422000515004AD00970396CDE90154FFF74DFCC2
:104230002046FFF739FB00E00496049805B0F0BD76
:104240000548C16919B1806B18B100207047012081
:104250007047022070470000180000202DE9F0414F
:10426000294C0027A06B40B1206A401C2062606A84
:1042700000B101273846BDE8F0816669761C6661A9
:1042800008D16068A1686160A060A06A401CA0625B
:10429000FFF77EFC206BDFF87480864209D36068EC
:1042A000006880B16068C068C568686886420DD2E1
:1042B00020632068C06A00EB800158F821000128C3
:1042C000D5D90127D3E74FF0FF30F1E7281DFFF7DD
:1042D0000BFDA86A18B105F11800FFF705FDE86AA3
:1042E0000121A26981401143A16100EB800108EB2B
:1042F0008100291DFFF73CFDE86A2168C96A8842F0
:10430000CDD30127CBE70000180000206404002073
:1043100070B504004FF000012BD0A06C401EA064CB
:10432000636CE26A9A4224D018BB201DFFF7DCFCC4
:10433000114B124A012150B9E06A00EB800553F895
:10434000255025B9956901FA00F085439561606CA7
:10435000E062C0F10700A061E06A956981402943ED
:10436000916100EB800003EB8000211DFFF700FD51
:104370000121084670BD00006404002018000020E0
:104380002DE9F041C068C46804F118000746FFF742
:10439000ABFC124DA86B012668B11148394600BF2D
:1043A000FFF7E6FCE06A2968C96A884214D901204F
:1043B0006E62BDE8F081201DFFF796FCE16AAA69F4
:1043C00006FA01F01043A86101EB81000449B439F9
:1043D00001EB8000211DE3E70020EAE71800002040
:1043E000180500202DE9F04700242646FFF7CCFCF5
:1043F000264DA86B401EA863A86BE0BB2969244F1B
:104400000120C1B3A7F1B40980463868E8B1F86863
:10441000C46804F11800FFF767FC201DFFF764FC77
:10442000E06AAA6908FA00F11143A96100EB800172
:1044300009EB8100211DFFF79BFCE06A2968C96A2E
:104440008842E2D3C5F82480DFE70CB1FFF7A0FB78
:104450002C6A4CB14FEA0807FFF700FF00B16F620A
:10446000641EF9D100202862686A20B1094901263A
:104470003007086000E003E0BFF34F8FBFF36F8F9A
:10448000FFF790FC3046BDE8F087000018000020E0
:104490001805002004ED00E0CC44000835170008A2
:1044A000000000000000000080000000000000008C
:1044B00000000000000000000000000001020304F2
:1044C0000607080900000000010203044C4544549B
:1044D00061736B00F444000800000020CC01000070
:1044E0002C020008AC450008CC010020641F00002D
:1044F000463700088132018210035524F41AAA01BC
:10450000296813E936140801371B08FD081A110839
:104510001AF908811389201B08D1041ADD0413013C
:10452000211B0845041A510C1A95041704030904A9
:10453000120132021640830450571D02010203513A
:10454000031B1A0322C022E0142089021B088504E1
:104550001A8D044113F51D1B0869044B591E101ACE
:10456000A30C1A39041A4504C11ADD101AD1041A11
:10457000E9041AC5041409022913010125C03209EE
:10458000042A0279150921110114012202160705D6
:104590008103022D0507050107291A09562C691AFE
:0C45A00031130A06290833400100000016
:04000005080000ED02
:00000001FF
