:020000040800F2
:10000000D00800209D0100081B0D0008B90C000855
:10001000190D0008870200087F2400080000000076
:1000200000000000000000000000000005010008C2
:10003000890200080000000049010008351000088E
:10004000B7010008B7010008B7010008B7010008B0
:10005000B7010008B7010008B7010008B7010008A0
:10006000B7010008B7010008B7010008B701000890
:10007000B7010008B7010008B7010008B701000880
:10008000B7010008B7010008B7010008B701000870
:100090000D240008B7010008B7010008B7010008E7
:1000A000B701000865100008B7010008B701000893
:1000B000B7010008B7010008B7010008B701000840
:1000C000B7010008B7010008B7010008B701000830
:1000D000B7010008B7010008B7010008B701000820
:1000E000B7010008B7010008B7010008DFF810D019
:1000F00000F0A8F80048004799270008AFF30080F7
:10010000D0080020224B19680868B0E8F00F80F38F
:100110000988BFF36F8F4FF0000080F311884EF015
:100120000D0E70470000000006480068006880F36C
:10013000088862B661B6BFF34F8FBFF36F8F00DFE1
:1001400000BF00BF08ED00E0EFF30980BFF36F8F41
:100150000F4B1A6820E9F00F106008B54FF05000FF
:1001600080F31188BFF34F8FBFF36F8F02F046FB10
:100170004FF0000080F31188BDE808401968086856
:10018000B0E8F00F80F30988BFF36F8F704700BFAE
:100190000C000020EFF30580704700000648804700
:1001A00006480047FEE7FEE7FEE7FEE7FEE7FEE75C
:1001B000FEE7FEE7FEE7FEE761100008ED0000083D
:1001C000202A04DB203A21FA02F00021704721FAAC
:1001D00002F3D040C2F12002914008431946704713
:1001E0002DE9F05F0546002092469B46884606466C
:1001F000814640241BE02846414647462246FFF7F9
:10020000DFFF53465A46C01A914110D31146184693
:10021000224600F029F82D1A67EB01084F462246C6
:100220000120002100F020F817EB00094E41201EAC
:10023000A4F10104DFDC484631462A464346BDE8C6
:10024000F09F0000064C074D06E0E06840F0010317
:1002500094E8070098471034AC42F6D3FFF74AFF02
:10026000F428000814290008202A04DB203A00FAA8
:1002700002F1002070479140C2F1200320FA03F3FD
:10028000194390407047FEE7704772B6FEE70000E2
:100290000148806870470000000000200248816823
:1002A00002781144816070470000002001EB810258
:1002B00000EBC202D0F8E802D26B01F089B801EB82
:1002C000810200EBC202D0F8E802D2F87C2101F0F2
:1002D000EAB870B5044601F00F006268904201D997
:1002E000012070BD0B0601F0070000EB800104EB5C
:1002F000C1014FF001024FF0000503D581F829201C
:10030000283103E081F8695101F5B4718D700870EE
:1003100094F8A802012808D084F8A822206801F0E7
:100320001AFD84F8A852002070BD022070BD2DE98E
:10033000F05F04685FEA424C0B788D69B4F850C0F6
:100340004FF000064BF68F7948F2800A48F68F7B13
:1003500048F2C00E4FF480672AD54FF0020808EB30
:10036000C308C44407EB4C07E45BC4F30904A5428B
:1003700003D32D1B8D6101D00BE08E61066836F82A
:10038000235005EA090585F4005545EA0A0526F8D3
:100390002350520609D50D78036833F8252002EA68
:1003A0000B0242EA0E0223F8252084B30A8929E0D1
:1003B0004FF0060808EBC308C44407EB4C07E45BA6
:1003C000C4F30904A54203D32D1B8D6101D00BE0BA
:1003D0008E61066836F8235005EA090585F4005554
:1003E00045EA0A0526F82350520609D40B78056819
:1003F00035F8232002EA0B0242EA0E0225F82320F8
:100400002CB14A8949690068234602F009F8204660
:10041000BDE8F09F2DE9F05F054600680C465FEAF5
:10042000426C16468B692278B0F850C048F68F7738
:100430004CF280094FF6FF7B4FF4004E4FF4806A78
:100440004FF000017BD54FF0020808EBC208E044F2
:100450000AEB480C30F80C00C0F30900834211D9B4
:100460001B1AA3610FD0730407D52E6836F822300B
:100470003B4043EA090326F8223094F82420012A5D
:1004800050D04EE1A161607810B1012813D01AE07C
:100490002868B0F85030184400EB0210B0F804247B
:1004A00022F4F842A0F80424B0F8042442F40042F4
:1004B000A0F8042407E02868B0F85030184400EB96
:1004C0000210A0F804146278286812B1012A11D031
:1004D00018E0B0F850100844217800EB0110B0F893
:1004E0000C1421F4F841A0F80C14B0F80C1441F4E9
:1004F000004105E0B0F850201044227800EB0210D3
:10050000A0F80C1421782846FFF7D0FE7004B8D567
:1005100021782A6832F82100384040EA090022F8A0
:100520002100FEE0626902446261E2690244E26124
:100530002369226A9A4203D31846111A04E038E06C
:1005400084F824100AB110462162617811B10129A2
:1005500023D02BE02968B1F850201144227801EB18
:10056000021101F2044148B13E280FD84208C307E6
:1005700000D0521C0BEA82220A8017E00A8822F47B
:10058000F8420A800A8842F40042F5E74209C306AD
:1005900000D1521E4EEA8222EEE72968B1F85020BF
:1005A0001144227801EB0211A1F8040483B22289DC
:1005B000B3E04FF0060808EBC208E0440AEB480C31
:1005C00030F80C00C0F30900834211D31B1AA36159
:1005D0000FD0730407D42E6836F822303B4043EA2C
:1005E000090326F8223094F82420012A50D098E0FC
:1005F000A161607810B1012813D01AE02868B0F822
:100600005030184400EB0210B0F8042422F4F842F1
:10061000A0F80424B0F8042442F40042A0F8042412
:1006200007E02868B0F85030184400EB0210A0F83A
:1006300004146278286812B1012A11D018E0B0F8C9
:1006400050100844217800EB0110B0F80C1421F48C
:10065000F841A0F80C14B0F80C1441F4004105E086
:10066000B0F850201044227800EB0210A0F80C14CF
:1006700021782846FFF71AFE700452D422782968A0
:1006800031F82200384040EA090021F8220048E011
:10069000626902446261E2690244E2612369226A9A
:1006A0009A4203D31846111A216204E00AB1104697
:1006B000216284F824106278296812B1012A22D0BC
:1006C00029E0B1F850201144227801EB021101F227
:1006D0000C4148B13E280FD84208C30700D0521C35
:1006E0000BEA82220A8016E00A8822F4F8420A8085
:1006F0000A8842F40042F5E74209C30600D1521EBF
:100700004EEA8222EEE7B1F850201144227801EB44
:100710000211A1F80C04628983B26169286801F0B2
:100720009BFE21782A6832F8210048F6BF731840F2
:1007300080F0300048F28003184322F821000020A6
:10074000BDE8F09F2DE9F04104460F0601F00700D7
:1007500000EB800104EBC1014FF001064FF00005F2
:1007600003D581F82960283103E081F8695101F54A
:10077000B47108700A61CB704A7802B1C881022B4B
:1007800000D10D7194F8A802012809D084F8A8625C
:10079000206801F0B2F9284684F8A852BDE8F0813B
:1007A0000220FBE770B50C4601F0070505EB85015B
:1007B00000EBC101C1E95F230022C1F8842181F867
:1007C000692181F8685101F5B4716207006801F090
:1007D00017FB002070BD70B504460D4601F0070000
:1007E0006168884201D9012070BD29064FF00006DA
:1007F0004FF0010207D500EB800104EBC10181F845
:100800002920283107E005EB850104EBC10181F8BF
:10081000696101F5B4718A70087094F8A802012822
:1008200007D084F8A822206801F0D1FA680702D026
:1008300006E0022070BD04F52C71206801F089FAF1
:1008400084F8A862002070BD70B50C4601F0070561
:1008500005EB850100EBC101C1E90F23012281F8FD
:100860004C208B6400234B6481F8292001F8285F19
:100870006207006801F0C4FA002070BD1FB504468D
:10088000006801F0C9FD000402D5204600F048FAD6
:10089000206801F0C1FD40050CD5206830F8441FE8
:1008A00021F480610180204600F092F8002120466A
:1008B00000F0A9F8206801F0AFFD400405D52068DC
:1008C00030F8441F21F480410180206801F0A4FD2C
:1008D000800405D5206830F8441F21F400510180C0
:1008E000206801F099FDC00414D5206830F8401F3D
:1008F00021F004010180206830F8401F21F0080138
:100900000180204600F077F8206830F8441F21F479
:1009100080510180206801F07FFD00053ED52268EE
:100920000020694632F8203021F81030401CC0B257
:100930000828F7D332F8400F40F0010010802068FB
:1009400030F8402F22F0010202802068B0F84420E5
:100950005205FBD530F8442F22F48062028000203B
:10096000236831F8102023F82020401CC0B208284A
:10097000F6D3206830F8401F41F00801018020685C
:1009800030F8441F21F400610180206830F8401FD6
:1009900041F004010180204600F050F8206801F089
:1009A0003BFD800508D5206830F8441F21F4007114
:1009B0000180204600F023F8206801F02DFDC005DD
:1009C00005D5206830F8441F21F4807101801FBDD7
:1009D00070B504460125A068022801D0FFF755FC38
:1009E0002946D4F8E80200F008FED4F8E802BDE891
:1009F000704000F0C3BDD0F8E80200F0E8BDD0F8C8
:100A0000E80200F0EEBD10B5044690F8A8020128F7
:100A10000BD0012084F8A80284F82410206801F08B
:100A200015FD002084F8A80210BD022010BDD0F8EA
:100A3000E82200F52C71104600F0EBBD10B504461D
:100A4000D4F8E80200F01DFEA069002804D0034895
:100A5000016841F00601016010BD000010ED00E0EA
:100A60007047000010B5044CA068000603D5FFF7DE
:100A7000F7FF8020A07210BD001002407047704741
:100A8000704770B50446006801694FF00005C9431E
:100A9000890715D4C168C943890711D4E91E0161CA
:100AA00001202077206880698007204602D0FFF768
:100AB000E7FF04E000F098F8204600F096F825776C
:100AC00020680169C943490717D4C168C943490768
:100AD00013D46FF00401016102202077206880693F
:100AE00010F4407F204602D0FFF7CAFF04E000F078
:100AF0007BF8204600F079F8257720680169C94322
:100B0000090716D4C168C943090712D46FF0080158
:100B10000161042020772068C0698007204602D048
:100B2000FFF7AEFF04E000F05FF8204600F05DF84C
:100B3000257720680169C943C90617D4C168C9432C
:100B4000C90613D46FF010010161082020772068D6
:100B5000C06910F4407F204602D0FFF791FF04E007
:100B600000F042F8204600F040F82577206801693F
:100B7000C943C90708D1C168C943C90704D1891E3F
:100B80000161204600F032F820680169C943090676
:100B900009D4C168C943090605D46FF08001016119
:100BA0002046FFF76BFF20680169C943490609D455
:100BB000C168C943490605D46FF040010161204670
:100BC00000F01EF820680169C94389060BD4C1688A
:100BD000C943890607D46FF0200101612046BDE8B2
:100BE0007040FFF74CBF70BD704770470068034905
:100BF000884201D1FFF752BB70470000002C014032
:100C0000704700002DE9F843044690F83D001F4668
:100C100016460D4620284CD1C5B1BEB194F83C0013
:100C2000012846D0012084F83C004FF00008C4F8A9
:100C30004080212084F83D00FFF72AFBA6848146EE
:100C4000E684A068B0F5805F03D004E00120BDE831
:100C5000F883206928B12E465FF0000584F83C80B7
:100C60000EE00026FAE78021204600F001FAA0B944
:100C7000AEB116F8010B21684860E08C401EE0849C
:100C8000E08C4B464FF0000200970028EBD14FF06C
:100C90004001204600F0ECF930B10320D7E735F8E9
:100CA000020BC0F30800E6E7202084F83D00002096
:100CB000CDE70220CBE7000070B50A480568094877
:100CC00008300468001D066807A001F0D9FB334610
:100CD0002246294606A001F0D3FBBDE870400DA0D6
:100CE00001F0CEBB2CED00E06572726F720A00005D
:100CF000686673723A307825780D206D6D66617282
:100D00003A307825780D20626661723A307825781D
:100D1000200A000020000000FEE7FFF7A3FEFEE728
:100D20002DE9F84F044640F68F7B48F60F7A4FF0D6
:100D300002094FF4806874E1B0F8441011F00F0616
:100D40003AD030F8267039047DD530F8261001EA03
:100D50000B0141F0800120F8261006EB860004EB21
:100D6000C00595F8740105F5B47500286CD0E878D5
:100D700002286AD02878226832F8201048F68F734B
:100D8000194048F2C003194322F820102878D4F8FB
:100D900000C03CF82010BCF8502049047ED509EB77
:100DA000C000111808EB41003CF800008005800DE0
:100DB000009074D02A89D8E0C9062DD4018801EAB0
:100DC0000A0141F400410180216804F12805B1F8CD
:100DD00050202B7809EBC300024408EB4200085A6C
:100DE000C0F309006064E16B0844E0630021204621
:100DF000FFF75CFA94F8240000289CD0A86900282A
:100E000099D194F82400216840F08000A1F84C00AA
:100E1000002084F8240004E1018804F5B4750A0573
:100E200021D5B0F850202B78062101EBC3010A44EC
:100E300008EB4201405A04F52C71C0F30903EB6141
:100E4000EA88206802E0ACE068E07AE001F0E8FAC5
:100E50002168088800EA0B0040F0800008802046E6
:100E6000FFF7E5FDDDE00904D5D5018801EA0B01B6
:100E700041F0800101802068B0F850202B780621D5
:100E800001EBC3010A4408EB4201405A83059B0D64
:100E9000EB6110D0696971B1EA8801E058E056E071
:100EA000206801F0BDFAE9696869084468610021B9
:100EB0002046FFF704FA2068018809052DD4B0F810
:100EC00050100844296900F20C4051B13E2910D855
:100ED0004A08C90700D0521C4FF6FF7101EA82216F
:100EE0000FE0018821F4F8410180018841F40041BC
:100EF00007E04A09C90600D1521E4FF4004141EAF9
:100F000082210180206801884BF68F72114081F4A4
:100F1000405148F280021143018082E0D4F800C0C1
:100F2000BCF850102A78062000EBC200014408EB00
:100F300041003CF800008005800D00901AD0EA883E
:100F400013E03A4629462046FFF7F1F9009011E0F8
:100F5000062101EBC000111808EB41003CF800002D
:100F60008005800D009005D06A8903466046696956
:100F700001F056FAE96900980844E8616969009847
:100F800008446861A86918B129690098814204D9A8
:100F900029782046FFF793F903E02946206800F0FE
:100FA0002FFF38063DD506EB860004EBC001206814
:100FB00030F8262002EA0A0242F4004220F82620F5
:100FC00091F82B002831032804D018B1022824D12D
:100FD000F80522D42368B3F850200D7809EBC5003A
:100FE000024408EB4200185A8A69C0F309008242A1
:100FF0000CD9121A8A610BD04A6902444A61CA6943
:101000001044C861206800F0FBFE0AE000208861FF
:10101000E9B22046FFF74AF903E03A462046FFF7D7
:10102000F9F92068B0F8441009043FF585AE0020B6
:10103000BDE8F88F10B5502080F31188BFF34F8FB3
:10104000BFF36F8F01F0FCFB18B104494FF08050E3
:101050000860002080F3118810BD000004ED00E05E
:10106000704700000148FFF70CBD0000940000200D
:101070002DE9F041984617460E460446069D1DE0B0
:10108000681C1BD02DB1FFF703F9A0EB0800A842A4
:1010900014D92068C16821F4D071C1602068416909
:1010A00021F001014161202084F83D0084F83E00D8
:1010B000002084F83C000320BDE8F081206800682F
:1010C00036EA000004D00020B842D9D00020F3E76F
:1010D0000120F9E710B5D0F8B422526890470020FB
:1010E00010BD90F89C22012A05D0022A03D0032AC1
:1010F00001D000F019B84988012904D10021C0F8B5
:10110000A41200F035B8704710B513460A46002106
:1011100000F02BFA002010BD10B513460A4600213E
:1011200000F0B8FA002010BD10B50446802120461A
:1011300000F09EFA2046BDE81040002100F098BA69
:1011400010B50521C0F8941200231A46194600F084
:101150000CFA002010BD10B50223C0F89432C26111
:10116000026213460A46002100F094FA002010BDE6
:1011700010B50421C0F8941200231A46194600F055
:1011800089FA002010BDCA88012A01D0FFF7CCBF20
:1011900090F89C22012A05D0022A03D0032A08D005
:1011A000FFF7C2BF00218160012200F10801FFF7B3
:1011B000D2BF0122011DFFF7CEBF2DE9F84304463F
:1011C0000F4600200090002600257888010A082993
:1011D00070D2DFE801F0AB040C22ABAB8B9AD4F8F1
:1011E000B012207C0A68694690470646A3E0207C3E
:1011F0004FF0020840B1D4F8B402C16A684688478B
:10120000064686F8018096E0D4F8B402816A684602
:101210008847064686F801808DE0C0B206285FD276
:10122000DFE800F0031221303F4FD4F8B0024268EB
:1012300022B1207C6946904706467CE0394620462C
:10124000FFF772FF012576E0D4F8B002826822B180
:10125000207C6946904706466DE039462046FFF7F8
:1012600063FF012567E0D4F8B002C26822B1207C98
:101270006946904706465EE039462046FFF754FF30
:10128000012558E0D4F8B002026922B1207C6946F9
:10129000904706464FE039462046FFF745FF0125B7
:1012A00049E0D4F8B00242692AB1207C69469047EF
:1012B000064640E03AE039462046FFF735FF012573
:1012C00039E0D4F8B002826922B1207C69469047A7
:1012D000064630E039462046FFF726FF01252AE082
:1012E00039462046FFF720FF012524E0207C28B165
:1012F00039462046FFF718FF01251CE0D4F8B40258
:10130000416B68468847064615E0207C28B139467F
:101310002046FFF709FF01250DE0D4F8B402016B68
:101320006846884706460721717004E03946204622
:10133000FFF7FAFE0125002D12D1BDF8000048B1DB
:10134000FA883AB1824200D90246009231462046DC
:10135000FFF701FFF888002802D12046FFF708FFB9
:10136000BDE8F88390F89C22012A05D0022A03D018
:10137000032A01D0FFF7D8BECA88022A01D0FFF79E
:10138000D3BE0121C160D0F8A41209B10321C1600C
:10139000022200F10C01FFF7DEBE01460020002909
:1013A00006D0012905D0022905D0032905D0022045
:1013B000704702207047012070470220704710B527
:1013C000D0F8C002FEF785FFBDE81040FFF7E5BF8B
:1013D00070B504469446002909D0D4F8B402426995
:1013E0001AB194F89C02032859D0022070BD04F170
:1013F0001400D4F894120025022904D0042940D006
:1014000000293ED041E0C36801698B420DD9591AC9
:10141000C1608AB261462046FFF77EFE00231A466D
:101420001946204600F0A1F82FE08068B0FBF1F2E9
:1014300001FB12029AB9884211D3D4F8981288425B
:101440000DD2002211462046FFF766FEC4F89852DE
:1014500000231A461946204600F087F815E0D4F814
:10146000B402C16829B194F89C02032801D1204636
:1014700088478021204600F0FBF82046FFF760FEF9
:1014800003E08021204600F0F3F894F8A002012840
:1014900007D1204600F01BF984F8A05201E0204655
:1014A0009047002070BD10B504460846114600283C
:1014B00009D0D4F8B4128A691AB194F89C1203299D
:1014C00031D0022010BD04F5AA70D4F89432032B59
:1014D00002D0052B1FD029E0D0F810C0C3686345A7
:1014E0000BD9A3EB0C03C3600069834200D303460E
:1014F0009AB22046FFF708FE18E0D4F8B40201695A
:1015000029B194F89C02032801D12046884720463F
:10151000FFF72EFE0AE00020C4F8940200212046C6
:1015200000F0A6F802E0014620469047002010BDDA
:1015300011F0800F01F07F01D0F8C00201EB8101B2
:1015400000EBC10002D090F82A00704790F86A01C1
:10155000704710B59C461346D0F8C0026246FFF7AC
:10156000F1F8BDE81040FFF718BF10B5D0F8C00281
:10157000FFF718F9BDE81040FFF70FBF70B504463C
:101580000022402311462046FFF7E3FF0125C4F85F
:1015900058514026C4F8646140230022802120462F
:1015A000FFF7D7FFA561666284F89C520020C4F85B
:1015B00094026060C4F8A402D4F8B80228B1D4F848
:1015C000B4020021426820469047002070BD90F888
:1015D0009C12042903D190F89D1280F89C120020DF
:1015E000704710B590F89C12032904D1D0F8B412BA
:1015F000C96901B18847002010BD017400207047FF
:1016000010B5D0F8C002FFF7FEF9BDE81040FFF7B3
:10161000C4BE10B5044604F52A7000F044F8012059
:10162000C4F89402B4F8AE02C4F8980294F8A81270
:1016300011F01F000AD001280ED0022812D001F0AC
:101640008001204600F014F8002010BD04F52A7136
:10165000204600F0E5F8F7E704F52A71204600F08F
:1016600017FAF1E704F52A71204600F019F9EBE7C3
:1016700010B5D0F8C002FFF7AEF8BDE81040FFF794
:101680008CBE90F89C1280F89D12042180F89C1268
:101690000020704710B5D0F8C002FFF7D5F8BDE8BC
:1016A0001040FFF77ABE0A7802704A7842708A7852
:1016B000CB7802EB032242800A794B7902EB0322BA
:1016C00082808A79C97902EB0121C18070470020AC
:1016D000704770B504468888002821D1C888F8B9B9
:1016E000488880281CD200F07F0594F89C020328CB
:1016F0000DD084F89E5229462046FFF781FF2046F0
:10170000FFF736FD45B1022084F89C0270BD2046EB
:10171000BDE87040FFF708BD012084F89C0270BD51
:101720002046BDE87040FFF7FFBC10B50224D0F89A
:10173000B422002A03D01268904700B90024204642
:1017400010BD000070B504460D46304EA9783170CA
:10175000012905D929462046BDE87040FFF7E4BCC1
:1017600094F89C0202280BD0032823D02946204657
:10177000FFF7DAFC31782046BDE87040FFF7AABCDD
:1017800099B16160032084F89C022046FFF7CDFFE9
:10179000022804D02046BDE87040FFF7E9BC294686
:1017A0002046BDE87040FFF7BFBC2046BDE8704052
:1017B000FFF7DEBC91B16068884221D0C1B22046FB
:1017C000FFF788FC317861602046FFF7AEFF022802
:1017D00010D02046BDE87040FFF7CABC022084F854
:1017E0009C0261602046FFF775FC2046BDE8704012
:1017F000FFF7BEBC29462046BDE87040FFF794BC09
:101800002046BDE87040FFF7B3BC00004800002050
:101810004988012903D1C0F8A412FFF7A9BC704779
:1018200010B503460024087810F060020ED0202A7C
:1018300006D0402A04D01846FFF776FC204610BD9B
:10184000D3F8B402826818469047F7E748780A2828
:1018500022D2DFE800F0151D211921090521110D03
:101860001846FFF7AAFCE9E71846FFF732FFE5E75D
:101870001846FFF767FFE1E71846FFF784FCDDE74E
:101880001846FFF76FFDD9E71846FFF7C1FFD5E708
:101890001846FFF726FCD1E71846FFF745FCCDE7D1
:1018A0002DE9F0410446084600260179037813F03B
:1018B000600211D0202A08D0402A06D001462046D6
:1018C000FFF732FC3046BDE8F081D4F8B4128A68E4
:1018D000014620469047F5E703F06002202A0BD02E
:1018E0004278002A61D0012A37D0032A0CD0014661
:1018F0002046FFF719FCE5E7D4F8B4128A680146E0
:101900002046BDE8F041104794F89C22022A06D0F8
:10191000032A14D001462046FFF706FCD2E749B15E
:10192000802907D02046FFF7A3FE80212046FFF73D
:101930009FFEC7E701462046FFF7F6FBC2E7428855
:101940003AB931B1802904D0C08810B92046FFF7D8
:101950008FFE2046FFF70CFCB4E794F89C22022A85
:1019600006D0032A14D001462046FFF7DDFBA9E785
:1019700049B1802907D02046FFF77AFE8021204612
:10198000FFF776FE9EE701462046FFF7CDFB99E77D
:101990004088002896D111F07F0F02D02046FFF733
:1019A0000EFD2046FFF7E4FB8CE794F89C2200270D
:1019B000022A06D0032A26D001462046FFF7B4FBB0
:1019C00080E731B1802904D001462046FFF7ACFB07
:1019D00078E711F0800F08D001F07F0000EB800065
:1019E00004EB800000F1140107E001F07F0000EB40
:1019F000800004EB800000F5AA710F6002222046EF
:101A0000FFF7A9FB5EE711F0800F0CD001F00F0289
:101A100002EB820204EB820292696AB90146204617
:101A2000FFF782FB4EE701F00F0202EB820204EBAC
:101A30008202D2F858215AB111F0800F0DD001F076
:101A40007F0000EB800004EB800000F114050CE047
:101A500001462046FFF768FB34E701F07F0000EB0A
:101A6000800004EB800000F5AA7541B1802906D002
:101A70002046FFF75DFD20B10120286002E02F60C5
:101A800000E02F60022229462046FFF764FB19E799
:101A900070B505460C46207810F0600209D0202A67
:101AA00007D0402A05D021462846FFF73DFB0020FD
:101AB00070BD95F89C22012A08D0022A06D0032A7C
:101AC00004D021462846FFF72FFBF0E720790128B4
:101AD0000ED8D5F8B4022146826828469047E1889E
:101AE0000029E4D10028E2D12846FFF741FBDEE7D8
:101AF00021462846FFF718FBD9E72DE9F0470C7877
:101B0000002630F8243048F68F121340CA78002A95
:101B10007DD0012A7CD0022A02D0032A7FD0012660
:101B200048F28002134320F824300D7830F8254025
:101B300048F68F731C402C43144320F825400D7B3E
:101B400048F2C00C48F6BF744CF280074BF68F7910
:101B5000EDB391F80080C24630F8285048F2801862
:101B60001D4045EA080520F82A50B0F8505091F879
:101B70000080054405EB0815B1F8088028F001083D
:101B8000A5F80084B0F8505091F80080054405EBAA
:101B90000815B1F80A8028F00108A5F808844D78E6
:101BA000002D0D7830F825804FEA48487DD0B8F1F7
:101BB000000F07DA30F8258008EA030848EA07082A
:101BC00020F825800F7830F827506D0600E02CE0D3
:101BD00006D530F827501D4045EA0C0520F827505F
:101BE000CB780D78012B30F8253003EA040301D0BF
:101BF00083F02003134320F825300B7830F82310AE
:101C000001EA0901114320F82310304602E003E005
:101C100008E004E0BDE8F08743F4007380E743F494
:101C2000C0637DE743F480637AE74D782DB3B0F865
:101C300050500F78054405EB0715CF8827F00107B2
:101C4000A5F800740F7830F827506D0606D530F8E7
:101C500027501D4045EA0C0520F82750CB78012B72
:101C600006D00B7830F82310214081F02001C9E71D
:101C70000B7830F823102140C4E7B0F850400D78BD
:101C8000044404EB0514CD8825F00105A4F808549C
:101C9000B0F850400D78044404EB05140D6904F2CB
:101CA0000C4475B13E2D14D800E030E04FEA550CDD
:101CB000ED0701D00CF1010C4FF6FF7505EA8C25FC
:101CC00011E0258825F4F8452580258845F4004550
:101CD00009E04FEA551CED0601D1ACF1010C4FF4BF
:101CE000004545EA8C2525800D7830F825406404B0
:101CF00005D530F825401C403C4320F825400B78A2
:101D000030F8231001EA090181F440517AE7B8F173
:101D1000000F07DA30F8258008EA030848EA0708C8
:101D200020F825800F7830F827506D0606D530F85A
:101D300027501D4045EA0C0520F827500D7830F853
:101D4000253003EA090383F44053134320F8253078
:101D50008EE70020704730B50A7BB2BB4A7848F660
:101D60008F7548F28004C2B10B7830F823205206F8
:101D700007D530F823202A4048F2C0052A4320F82E
:101D80002320CA78012A20D00A7830F8221048F699
:101D9000BF73194081F0200114E00A7830F8223036
:101DA0005B0407D530F822302B404CF280052B43E2
:101DB00020F822300A7830F822104BF68F73194041
:101DC00081F44051214320F82210002030BD10B58D
:101DD0004A780978002A48F2800330F8212005D09B
:101DE00048F6BF74224082F0100204E04BF68F7474
:101DF000224082F480521A4320F82120002010BD96
:101E00002DE9F0470E464B78097B04464FF0000958
:101E100048F68F7248F2800A4FF6FF774FF4004879
:101E2000012B09D000296ED0F07802286CD001284F
:101E30006BD00120BDE8F087B5693069854200D9D3
:101E40000546C9B1F17848F28013022923D03178D0
:101E500034F821001040184324F82100306A401B58
:101E60003062307834F82010490671787ED5002928
:101E70007DD001297CD03FE1ABB2F2882046716968
:101E800000F0EAFAB4F850003178204400EB011079
:101E9000A0F80454EAE0316A81426AD9317834F812
:101EA00021001040184324F82100306A401B3062A2
:101EB000307834F82010490671786CD511B10129B9
:101EC00024D02AE0B4F85010214401EB001000F2B5
:101ED0000C404DB13E2D0FD86908EA0700D0491CCF
:101EE00007EA8121018018E0018821F4F84101808E
:101EF000018841F40041F5E76909EA0600D1491E6D
:101F000048EA8121EEE79CE1BCE126E2B4F85020EA
:101F1000111901EB0010A0F80C547289ABB22046E5
:101F2000716900F099FA7069284470613169306A0A
:101F3000884202D9401B306202E00546C6F8209074
:101F4000707800287CD1B4F850003178204400EB40
:101F5000011000F204406DB13E2D13D86908EA0764
:101F600000D0491C07EA8121018012E001E19BE0D9
:101F7000BBE084E0018821F4F8410180018841F44C
:101F80000041F1E76909EA0600D1491E48EA8121CA
:101F9000EAE7328965E011B1012921D027E0B4F8E0
:101FA0005010214401EB001000F204404DB13E2DD1
:101FB0000FD86908EA0700D0491C07EA812101808F
:101FC00015E0018821F4F8410180018841F40041C5
:101FD000F5E76909EA0600D1491E48EA8121EEE7E2
:101FE000B4F85010214401EB0010A0F804543289D9
:101FF000ABB22046716900F02FFA70692844706115
:102000003169306A884202D9401B306202E00546DD
:10201000C6F82090707800287ED1B4F8500031784E
:10202000204400EB011000F20C4055B13E2D10D8B9
:102030006908EA0700D0491C07EA812101800FE006
:1020400072E0018821F4F8410180018841F40041E7
:10205000F4E76909EA0600D1491E48EA8121EDE763
:102060007289ABB22046716900F0F6F9317834F824
:10207000210048F6BF72104080F03000C0E1327895
:1020800034F8220048F68F63184040EA0A0024F82A
:102090002200B4F850003278204400EB02108BB2DA
:1020A000A0F804343289DDE7B4F85010214401EB84
:1020B000001000F20C404DB13E2D0FD86908EA0720
:1020C00000D0491C07EA8121018015E0018821F434
:1020D000F8410180018841F40041F5E76909EA0609
:1020E00000D1491E48EA8121EEE7B4F850201119C9
:1020F00001EB0010A0F80C547289ABB22046716954
:1021000000F0AAF97069284470613169306A884228
:1021100003D9401B306203E06EE00546C6F820900C
:10212000002DA3D0707858B101287FF41EAFB4F809
:1021300050003178204400EB0110A0F8045428E747
:10214000B4F850003178204400EB011101F2044151
:102150003E2D06D86808EA0700D0401C07EA802018
:1021600005E06809EA0600D1401E48EA80200880A0
:102170000FE711B1012921D027E0B4F85010214414
:1021800001EB001000F204404DB13E2D0FD869085C
:10219000EA0700D0491C07EA8121018015E0018887
:1021A00021F4F8410180018841F40041F5E7690913
:1021B000EA0600D1491E48EA8121EEE7B4F8501042
:1021C000214401EB0010A0F804543289ABB2204640
:1021D000716900F041F97069284470613169306AB1
:1021E000884202D9401B306202E00546C6F82090C2
:1021F000002D96D0707858B101287FF420AFB4F844
:1022000050100819317800EB0110A0F80C5427E7A2
:10221000B4F850003178204400EB011101F20C4178
:102220003E2D06D86808EA0700D0401C07EA802047
:1022300005E06809EA0600D1401E48EA80200880CF
:102240000EE7B1693069814202D9091AB161B5E07E
:102250000846C6F81890B1E0088820F4F8400880D5
:10226000088840F400400BE03E2875D84208C007BB
:1022700000D0521C07EA822002E000BF48EA822018
:102280000880B5E093B9B4F850003178204400EBF1
:102290000110316900F2044069B13E2913D84B089E
:1022A000C90700D05B1C07EA83210180707888B1E0
:1022B000012832D03AE0018821F4F84101800188F8
:1022C00041F40041F1E74B09C90600D15B1E48EA21
:1022D0008321EAE7B4F850003178204400EB011084
:1022E000316900F20C4049B13E290FD84B08C907AB
:1022F00000D05B1C07EA8321018017E0018821F4EC
:10230000F8410180018841F40041F5E74B09C90615
:1023100000D15B1E48EA8321EEE7B4F8501008199B
:10232000317800EB0110318AA0F80C14F069A8B3E1
:10233000317834F82100430401D5430603D444F234
:102340004003184254D134F82100104048F2C00232
:10235000104324F821004BE03CE0B1693069814230
:1023600002D9091AB16102E00846C6F818908BB983
:10237000B4F850103278214401EB021101F204410B
:1023800068B13E2813D84208C30700D0521C07EAA0
:1023900082220A80717889B1012921D028E00A8837
:1023A00022F4F8420A800A8842F40042F1E7420926
:1023B000C30600D1521E48EA8222EAE7B4F8501060
:1023C0003278214401EB021101F20C4100287FF424
:1023D0004BAF41E74209C0067FF450AF521E4DE7B4
:1023E000B4F850201119327801EB0211A1F80C0455
:1023F000317834F821004BF68F72104080F4405051
:1024000040EA0A0024F82100002013E50148FEF705
:1024100035BA0000E0010020B0F844007047000029
:1024200010B500EB42005C0800F5806009D000BFE9
:1024300030F8042B01F8012B120A01F8012B641E5D
:10244000F6D1DA0701D00088087010BD11B98021DB
:10245000A0F84C100020704710B55B1C00EB420048
:102460005B0800F5806009D011F8012B11F8014BD1
:1024700042EA042220F8042B5B1EF5D110BDFEE7D2
:102480000FB4054B10B503A9044A029800F018F8E0
:1024900010BC5DF814FB0000812700084C000020F0
:1024A00002E008C8121F08C1002AFAD1704770471D
:1024B000002001E001C1121F002AFBD1704700007B
:1024C0002DE9FF4F8DB09B460F460446002606E0DF
:1024D00025280BD05A460F999047641C761C20780B
:1024E0000028F5D111B03046BDE8F08F0025A84690
:1024F0000122984900E0054314F8013F203B02FA0D
:1025000003F00842F7D120782E2817D114F8010FD4
:1025100045F004052A280ED06FF02F022078A0F194
:10252000300109290AD808EB880102EB410100EBD0
:102530000108641CF2E757F8048B641C20786C28AF
:102540000DD004DC4C2812D06A2811D104E0742884
:102550000DD07A280CD10AE045F4001507E0617827
:1025600045F48015814202D1641C05F58015641C78
:102570002078692844D008DC0028B3D0582867D0D8
:1025800063280FD0642808D13AE0702865D07328FA
:1025900012D075285AD078285AD05A460F999047A9
:1025A000761CD5E017F8040B8DF8000000208DF89C
:1025B0000100E946012003E057F8049B4FF0FF308B
:1025C00069074FF0000501D40AE06D1C45450DDA9E
:1025D0008542FADB19F805100029F6D106E06D1CDA
:1025E0008542FCDB19F805100029F8D12E4404E0DF
:1025F00019F8010B5A460F9990476D1EF8D2A7E0C3
:102600000A200021CDE90801C5F3025002280CD0B0
:1026100001CFC117021E71F100020CDA0023D0EBCA
:10262000030063EB01012D2208E0FF1D27F00707DF
:10263000F7E80201EEE72A0504D52B228DF82820C1
:1026400001223CE0EA073AD02022F7E70A2000E026
:1026500010200021CDE9080107E01020002145F0FD
:102660000405CDE908014FF00808C5F3025002281F
:1026700010D001CF00214FF0000A2A0720D5227880
:10268000702A0DD0DDE908C38CF0100C5CEA030C55
:102690000CD015E0FF1D27F00707F7E80201EAE775
:1026A00040228DF828204FF0010A0CE050EA010387
:1026B00006D030238DF828308DF82920022292464A
:1026C0002278582A04D024A20DF120090B9209E0A7
:1026D00026A2F9E7DDE90823FDF782FD0B9B9B5C51
:1026E00009F8013D50EA0102F4D1ADEB09002030B8
:1026F0000890680701D44FF001080899884503DD68
:102700000898A8EB000000E000208046002506E0C5
:102710000AA85A46405D0F9990476D1C761C554596
:10272000F6DB04E030205A460F999047761CB8F14A
:102730000001A8F10108F5DC05E019F8010B5A4683
:102740000F999047761C0899481E08900029F4DCE0
:10275000641CC4E609280100303132333435363781
:1027600038396162636465660000000030313233DD
:10277000343536373839414243444546000000007D
:1027800013B54FF0FF33012269460248FEF73AFACB
:1027900000981CBD50000020FEE70000064841687C
:1027A000096829B14168C968C96849680163704707
:1027B0004FF0FF31FAE700000C000020D0E90132B1
:1027C00001699A60D0E901235A604A68824201D1C6
:1027D00082684A60002202610868401E086008683A
:1027E000704742684A6093688B6093685960916053
:1027F00008610168491C0160704700000E48816B48
:1028000011B10121416270470021416281690B4A87
:10281000B1FA81F1C1F11F0101EB810102EB8101EC
:1028200001F108034A6852684A609A4201D152682D
:102830004A60D168016070470C000020DC00002075
:102840002DE9F041294C0027A06B40B1206A401CC3
:102850002062606A00B101273846BDE8F0816669F0
:10286000761C666108D16068A1686160A060A06A9A
:10287000401CA062FFF792FF206BDFF87480864255
:1028800009D36068006880B16068C068C56868681E
:1028900086420DD220632068C06A00EB800158F8A0
:1028A00021000128D5D90127D3E74FF0FF30F1E708
:1028B000281DFFF783FFA86A18B105F11800FFF77C
:1028C0007DFFE86A0121A26981401143A16100EB0B
:1028D000800108EB8100291DFFF783FFE86A21686A
:1028E000C96A8842CDD30127CBE700000C00002045
:1028F000DC00002014290008000000205000000027
:10290000A02400086429000850000020800800006E
:10291000B0240008010000001000000000000000CA
:1029200000000000000000000000000000000000A7
:102930000000000000000000000000000000000097
:102940000000000000000000000000000000000087
:102950000000000000000000000000000000000077
:042960000000000073
:04000005080000ED02
:00000001FF
