:020000040800F2
:10000000383A00209D01000827200008D51B000871
:1000100025200008250300088B3F00080000000091
:1000200000000000000000000000000005010008C2
:1000300027030008000000004901000841230008D0
:10004000B7010008B7010008B7010008B7010008B0
:10005000B7010008B7010008B7010008B7010008A0
:10006000B7010008B7010008B7010008B701000890
:10007000B7010008B7010008B7010008B701000880
:10008000B7010008B7010008B7010008B701000870
:10009000153F0008B7010008B7010008B7010008C4
:1000A000B7010008B7010008B7010008B701000850
:1000B000B7010008B7010008B7010008B701000840
:1000C000B7010008B7010008B7010008B701000830
:1000D000B7010008B7010008B7010008B701000820
:1000E00035030008B7010008B7010008DFF810D099
:1000F00000F0CCF800480047C5420008AFF300808C
:10010000383A0020224B19680868B0E8F00F80F3F5
:100110000988BFF36F8F4FF0000080F311884EF015
:100120000D0E70470000000006480068006880F36C
:10013000088862B661B6BFF34F8FBFF36F8F00DFE1
:1001400000BF00BF08ED00E0EFF30980BFF36F8F41
:100150000F4B1A6820E9F00F106008B54FF05000FF
:1001600080F31188BFF34F8FBFF36F8F04F046FC0D
:100170004FF0000080F31188BDE808401968086856
:10018000B0E8F00F80F30988BFF36F8F704700BFAE
:1001900018000020EFF305807047000006488047F4
:1001A00006480047FEE7FEE7FEE7FEE7FEE7FEE75C
:1001B000FEE7FEE7FEE7FEE7D1230008ED000008BA
:1001C000202A04DB203A21FA02F00021704721FAAC
:1001D00002F3D040C2F12002914008431946704713
:1001E00040EA01039B0703D009E008C9121F08C0B9
:1001F000042AFAD203E011F8013B00F8013B521E39
:10020000F9D27047D2B201E000F8012B491EFBD2AF
:1002100070470022F6E710B513460A460446194611
:10022000FFF7F0FF204610BD2DE9F05F05460020E6
:1002300092469B4688460646814640241BE0284657
:10024000414647462246FFF7BBFF53465A46C01A6F
:10025000914110D311461846224600F029F82D1A74
:1002600067EB01084F4622460120002100F020F8EC
:1002700017EB00094E41201EA4F10104DFDC4846C3
:1002800031462A464346BDE8F09F0000064C074D24
:1002900006E0E06840F0010394E807009847103456
:1002A000AC42F6D3FFF726FF284E0008484E000860
:1002B000202A04DB203A00FA02F100207047914026
:1002C000C2F1200320FA03F319439040704770B540
:1002D0008C1810F8015B15F0070301D110F8013BF1
:1002E0002A1106D110F8012B03E010F8016B01F878
:1002F000016B5B1EF9D12B0705D40023521E0DD4D0
:1003000001F8013BFAE710F8013BCB1A921C03E01D
:1003100013F8015B01F8015B521EF9D5A142D8D355
:10032000002070BDFEE7704701F05CFE012004F084
:100330003FF8FBE710B54FF4805000F02BF84FF476
:10034000005000F027F8BDE810404FF4804000F066
:1003500021B872B6FEE7000070B50B480168001DB9
:100360000568001D0068084400280CD0074C0822CE
:10037000A11C01F05FFC04F112012846BDE87040A9
:10038000042201F057BC70BDE8F7FF1FA400002055
:1003900070470000044910B50A68024202D00860A4
:1003A000FFF7F6FF10BD0000140401402DE9F84FDF
:1003B000DFF8B891002409F1040A0AF1040B23467E
:1003C0000F270BF1040EC9E00125A5402A40AA42DF
:1003D0007DD1674ED1F804C0ACEB0608B44532D0ED
:1003E00014DCBCF1030F3AD009DCBCF1000F2AD0B9
:1003F000BCF1010F1CD0BCF1020F31D11DE0BCF1EA
:10040000110F17D0BCF1120F2AD119E0B8F5881FCF
:1004100019D006DCB8F5803F15D0B8F5801F1FD184
:1004200011E0B8F5001F0ED0B8F5041F18D10AE08E
:10043000CB6815E0CB681B1D12E0CB6808330FE0DA
:10044000CB680C330CE08B682BB1012B4FF0080309
:1004500003D0456104E0042302E0056100E00023CD
:10046000FF2A01D8064601E000F104064FEA8405A0
:1004700001D9A5F12005D6F8008007FA05FC28EA85
:100480000C0803FA05F548EA0508C6F800804D682F
:10049000ED0062D5374DAE6946F00106AE61AD693B
:1004A00024F0030605F001050095334D06EB050C1D
:1004B000DCF80850A607360F07FA06F825EA080503
:1004C000DFF8B880404503D14FF0000817E044E062
:1004D000DFF8AC80404502D14FF001080FE0DFF8B3
:1004E000A480404502D14FF0020808E0DFF8988070
:1004F000404502D14FF0030801E04FF0040808FA2C
:1005000006F848EA0508CCF808804D68D9F800607C
:10051000ED034D4601D5164300E096432E604D682D
:10052000DAF80060AD03554601D5164300E0964366
:100530002E604D68DBF80060ED025D4601D5164384
:1005400000E096432E604D68DEF80060AD0275460F
:1005500001D5164300E096432E60641C0D682A46C0
:10056000E5407FF431AFBDE8F88F000000040140A2
:10057000000011100010024000000140000801407E
:10058000000C014000100140001401400AB101615B
:1005900070470904FBE700000148806870470000CD
:1005A0000800002002488168027811448160704789
:1005B00008000020074810B5016841F010010160F3
:1005C000032000F071F80F2000F006F800F024F886
:1005D000002010BD0020024070B50D4D04464FF4C0
:1005E0007A712878B1FBF0F00A490968B1FBF0F0A4
:1005F00001F038F848B9102C07D200222146501ECD
:1006000000F032F800206C6070BD012070BD000069
:1006100008000020140000200B4882B0816941F0DE
:1006200001018161816901F001010091C16941F01D
:100630008051C161C069002200F0805000900F21FC
:10064000901E02B000F010B800100240002809DB34
:1006500000F01F02012191404009800000F1E020DC
:10066000C0F8001170470000F0B40E4B1B680C4638
:10067000C3F30223C3F10705042D00D90425191D76
:10068000072901D2002300E0DB1E012606FA05F14E
:10069000491E214099409E40761E16403143F0BCD1
:1006A00003F084BC0CED00E0064900F00702086886
:1006B0004FF6FF03184040EA0220034A1043086047
:1006C000704700000CED00E00000FA0510B50C06C4
:1006D00007D501F0070101EB810100EBC1002830D3
:1006E00005E001EB810100EBC10000F5B47099B2A7
:1006F00032B1012202730181190C4181002010BD29
:1007000000220273C180F9E7704701EB810200EB20
:10071000C202D0F8E802D26B02F0E8BA01EB810223
:1007200000EBC202D0F8E802D2F87C2102F049BB0B
:1007300070B504460B0601F0070000EB800104EBE6
:10074000C1014FF001024FF0000503D581F82920C7
:10075000283103E081F8695101F5B471087094F80B
:10076000A802012808D084F8A822206802F0D0FF4F
:1007700084F8A852002070BD022070BD70B50446F8
:1007800001F00F006268904201D9012070BD0B0694
:1007900001F0070000EB800104EBC1014FF0010202
:1007A0004FF0000503D581F82920283103E081F8B6
:1007B000695101F5B4718D70087094F8A802012890
:1007C00008D084F8A822206803F03FF884F8A852E3
:1007D000002070BD022070BD2DE9F05F04685FEA63
:1007E000424C0B788D69B4F850C04FF000064BF6C0
:1007F0008F7948F2800A48F68F7B48F2C00E4FF49A
:1008000080672AD54FF0020808EBC308C44407EB01
:100810004C07E45BC4F30904A54203D32D1B8D618F
:1008200001D00BE08E61066836F8235005EA090511
:1008300085F4005545EA0A0526F82350520609D5E5
:100840000D78036833F8252002EA0B0242EA0E0213
:1008500023F8252084B30A8929E04FF0060808EB25
:10086000C308C44407EB4C07E45BC4F30904A54286
:1008700003D32D1B8D6101D00BE08E61066836F825
:10088000235005EA090585F4005545EA0A0526F8CE
:100890002350520609D40B78056835F8232002EA64
:1008A0000B0242EA0E0225F823202CB14A8949693D
:1008B0000068234603F038FB2046BDE8F09F2DE991
:1008C000F05F054600680C465FEA426C16468B698D
:1008D0002278B0F850C048F68F774CF280094FF676
:1008E000FF7B4FF4004E4FF4806A4FF000017BD540
:1008F0004FF0020808EBC208E0440AEB480C30F85D
:100900000C00C0F30900834211D91B1AA3610FD058
:10091000730407D52E6836F822303B4043EA0903BA
:1009200026F8223094F82420012A50D04EE1A1610B
:10093000607810B1012813D01AE02868B0F8503060
:10094000184400EB0210B0F8042422F4F842A0F896
:100950000424B0F8042442F40042A0F8042407E080
:100960002868B0F85030184400EB0210A0F80414C6
:100970006278286812B1012A11D018E0B0F850103E
:100980000844217800EB0110B0F80C1421F4F84170
:10099000A0F80C14B0F80C1441F4004105E0B0F8D4
:1009A00050201044227800EB0210A0F80C1421789B
:1009B0002846FFF7AAFE7004B8D521782A6832F8D5
:1009C0002100384040EA090022F82100FEE0626977
:1009D00002446261E2690244E2612369226A9A4246
:1009E00003D31846111A04E038E084F824100AB141
:1009F00010462162617811B1012923D02BE02968CA
:100A0000B1F850201144227801EB021101F20441A7
:100A100048B13E280FD84208C30700D0521C0BEA49
:100A200082220A8017E00A8822F4F8420A800A88A3
:100A300042F40042F5E74209C30600D1521E4EEAD5
:100A40008222EEE72968B1F850201144227801EBA8
:100A50000211A1F8040483B22289B3E04FF0060822
:100A600008EBC208E0440AEB480C30F80C00C0F375
:100A70000900834211D31B1AA3610FD0730407D45A
:100A80002E6836F822303B4043EA090326F822302C
:100A900094F82420012A50D098E0A161607810B128
:100AA000012813D01AE02868B0F85030184400EB41
:100AB0000210B0F8042422F4F842A0F80424B0F89C
:100AC000042442F40042A0F8042407E02868B0F8A7
:100AD0005030184400EB0210A0F804146278286823
:100AE00012B1012A11D018E0B0F850100844217852
:100AF00000EB0110B0F80C1421F4F841A0F80C142C
:100B0000B0F80C1441F4004105E0B0F85020104456
:100B1000227800EB0210A0F80C1421782846FFF789
:100B2000F4FD700452D42278296831F8220038404C
:100B300040EA090021F8220048E06269024462614B
:100B4000E2690244E2612369226A9A4203D31846A9
:100B5000111A216204E00AB11046216284F82410BF
:100B60006278296812B1012A22D029E0B1F8502018
:100B70001144227801EB021101F20C4148B13E28E8
:100B80000FD84208C30700D0521C0BEA82220A8009
:100B900016E00A8822F4F8420A800A8842F40042E9
:100BA000F5E74209C30600D1521E4EEA8222EEE763
:100BB000B1F850201144227801EB0211A1F80C0485
:100BC000628983B26169286803F0CCF921782A68C8
:100BD00032F8210048F6BF73184080F0300048F228
:100BE0008003184322F821000020BDE8F09F2DE982
:100BF000F04104460F0601F0070000EB800104EB12
:100C0000C1014FF001064FF0000503D581F82960BE
:100C1000283103E081F8695101F5B47108700A6167
:100C2000CB704A7802B1C881022B00D10D7194F8C3
:100C3000A802012809D084F8A862206802F03AFCD2
:100C4000284684F8A852BDE8F0810220FBE770B581
:100C50000C4601F0070505EB850100EBC101C1E978
:100C60005F230022C1F8842181F8692181F868514D
:100C700001F5B4716207006802F03CFE002070BD0F
:100C800070B504460D4601F007006168884201D93D
:100C9000012070BD29064FF000064FF0010207D574
:100CA00000EB800104EBC10181F82920283107E025
:100CB00005EB850104EBC10181F8696101F5B471AF
:100CC0008A70087094F8A802012807D084F8A82236
:100CD000206802F0F6FD680702D006E0022070BD31
:100CE00004F52C71206802F0AEFD84F8A8620020A3
:100CF00070BD70B50C4601F0070505EB850100EBF2
:100D0000C101C1E90F23012281F84C208B6400232B
:100D10004B6481F8292001F8285F6207006802F01F
:100D2000E9FD002070BD1FB50446006803F0F8F827
:100D3000000402D5204601F079F9206803F0F0F8AC
:100D400040050CD5206830F8441F21F480610180F3
:100D5000204600F01FF90021204600F036F92068F7
:100D600003F0DEF8400405D5206830F8441F21F474
:100D700080410180206803F0D3F8800405D5206805
:100D800030F8441F21F400510180206803F0C8F8B6
:100D9000C00414D5206830F8401F21F00401018000
:100DA000206830F8401F21F008010180204600F043
:100DB00004F9206830F8441F21F480510180206834
:100DC00003F0AEF800053ED522680020694632F8EF
:100DD000203021F81030401CC0B20828F7D332F878
:100DE000400F40F001001080206830F8402F22F0C2
:100DF000010202802068B0F844205205FBD530F88B
:100E0000442F22F4806202800020236831F81020F1
:100E100023F82020401CC0B20828F6D3206830F800
:100E2000401F41F008010180206830F8441F21F480
:100E300000610180206830F8401F41F0040101800A
:100E4000204600F0F7F8206803F06AF8800508D51E
:100E5000206830F8441F21F400710180204600F022
:100E6000B0F8206803F05CF8C00505D5206830F8BC
:100E7000441F21F4807101801FBD00002DE9F04165
:100E800086B0040004D094F8A902002520B108E03F
:100E9000012006B0BDE8F08184F8A852204600F099
:100EA0005BF8032084F8A902206802F0C5FC04F175
:100EB0001001142288466846FFF792F994E80F0063
:100EC00002F024FC0226D0BB0021206803F042F887
:100ED000002001270FE000BF00EB800104EBC101FF
:100EE00081F8297001F8280FC881CD700D614D611E
:100EF000401CC0B28D6161688142EDD8002011E0D4
:100F000000EB800104EBC10181F8695181F86801AF
:100F100081F86B51C1F87851C1F87C51401CC0B2C6
:100F2000C1F8805161688142EAD81422414668467E
:100F3000FFF756F994E80F0002F075FC10B184F841
:100F4000A962A5E784F8245084F8A972206802F009
:100F500068FC00209DE7000008B50068A0F1804112
:100F6000B1F5B84112D10A48C16941F40001C1612B
:100F7000C06900F400000090002205211420FFF752
:100F800073FBBDE808401420FFF760BB08BD0000FC
:100F90000010024070B504460125A068022801D067
:100FA000FFF7D7F92946D4F8E80201F0E6FFD4F8B4
:100FB000E802BDE8704001F0A1BFD0F8E80201F0FE
:100FC000C6BFD0F8E80201F0CCBF10B5044690F8D7
:100FD000A80201280BD0012084F8A80284F824106C
:100FE000206802F0B9FF002084F8A80210BD02209A
:100FF00010BDD0F8E82200F52C71104601F0C9BFF1
:1010000010B5044690F8A802012810D0012084F8F9
:10101000A802206802F074FF01212046FFF774FB4C
:10102000206802F0FCFB002084F8A80210BD02201A
:1010300010BD000010B50446D4F8E80201F0EAFF44
:10104000A069002804D00348016841F0060101604E
:1010500010BD000010ED00E02DE9F84305460078D2
:10106000354CC00754D0E0690026C00008D4E069C0
:1010700040F08050E061E069012600F0805000906F
:101080002E480168C90512D40168804641F4807178
:101090000160FFF781FA074605E000BFFFF77CFA21
:1010A000C01B642823D8D8F80000C005F6D5206AF4
:1010B00010F4407021D0A98801F4407181421CD005
:1010C000206A1F49012220F440700A6000220A6051
:1010D0002062C00711D0FFF75FFA074641F2883857
:1010E00008E000BFFFF758FAC11B414502D90320B1
:1010F000BDE8F883206A8007F4D5206A696820F487
:101100004070084320621EB1E06920F08050E06129
:101110002878800705D56068A96820F44040084316
:1011200060602878C00605D56068E96820F4800012
:10113000084360600020DBE70010024000700040C0
:1011400040044242704700002DE9F0470F46050079
:1011500061D0434E306800F00700B84209D23068D1
:1011600020F0070038433060306800F00700B842D4
:1011700051D128683B4C810712D5400703D56068E0
:1011800040F4E06060602878000703D5606840F4B0
:10119000605060606068A96820F0F00008436060FB
:1011A0002878C00728D06868012810D02168022854
:1011B00010D0890700292EDA616821F0030101436C
:1011C0006160FFF7E9F9804641F288390DE0216856
:1011D0008903EFE78901EDE7FFF7DEF9A0EB0801EE
:1011E000494502D90320BDE8F0876068696800F0CE
:1011F0000C00B0EB810FEFD1306800F00700B8426F
:101200000BD9306820F0070038433060306800F0B8
:101210000700B84201D00120E5E72878400705D54E
:101220006068E96820F4E06008436060287800079F
:1012300006D56068296920F4605040EAC10060600A
:1012400000F03EF86168084AC1F30311515CC840E0
:101250000649086006480068FFF7BEF90020C2E7AB
:101260000020024000100240044E0008140000203C
:101270000C00002001490120C86470470000424270
:101280000448054900684968044AC1F30221515CD9
:10129000C84070471400002000100240144E00089F
:1012A0000448054900684968044AC1F3C221515CF9
:1012B000C84070471400002000100240144E00087F
:1012C00012A185B00FC98DE80F0014A0144A006860
:1012D00004905168134801F00C03042B10D0082B24
:1012E0000ED1C1F38343C9031DF803000AD5516829
:1012F00004AAC1F34041515C0A4A5043B0FBF1F0EB
:1013000005B0704708494843FAE7000002030405A6
:10131000060708090A0B0C0D0E0F10100102000041
:101320000010024000127A0000093D0010B5044C84
:10133000A068000603D5FFF705FF8020A07210BD4E
:10134000001002402DE9F84F040070D02078C04D05
:10135000C00749D06868C0F38100012807D06868D9
:10136000C0F38100022809D16868C00306D5286847
:10137000800339D560680028E7D035E06068B0F5B3
:10138000803F0BD010B1B0F5A02F11D0286820F409
:1013900080302860286820F4802002E0286840F42B
:1013A00080302860606890B1FFF7F6F806460AE0E2
:1013B000286840F480202860F0E700BFFFF7ECF8D1
:1013C000801B642873D828688003F7D50CE0FFF7EA
:1013D000E3F8064605E000BFFFF7DEF8801B64284F
:1013E000F0D828688003F7D420789A4E80074FF011
:1013F00001094FF0000839D5686810F00C0F07D0CC
:101400006868C0F38100022809D16868C00306D467
:101410002868800714D52069012808D110E02069C8
:10142000B0B1C6F80090FFF7B7F8074605E00AE14B
:10143000FFF7B2F8C01B0228C4D828688007F7D588
:101440002868616920F0F80040EAC10028600DE0DA
:10145000C6F80080FFF7A0F8074604E0FFF79CF805
:10146000C01B022823D828688007F7D420780007FB
:101470002CD57948A169D9B1C0F80090FFF78CF854
:10148000074604E0FFF788F8C01B02280FD8686AF7
:101490008007F7D571484FF4FA510068B0FBF1F0BE
:1014A000009000BF0098411E0091FAD20EE080E04B
:1014B000C0F80080FFF770F8074604E0FFF76CF80B
:1014C000C01B022875D8686A8007F7D420784007C7
:1014D00060D5E8690027C00008D4E86940F0805072
:1014E000E861E869012700F0805000905C480168DD
:1014F000C90513D40168834641F480710160FFF788
:101500004BF8824606E000BFFFF746F8A0EB0A0062
:1015100064284ED8DBF80000C005F5D5E068012846
:101520000AD008B1052813D0286A20F001002862EB
:10153000286A20F0040002E0286A40F001002862D6
:10154000E06841F2883B98B1FFF726F882460BE04D
:10155000286A40F004002862EEE700BFFFF71CF89D
:10156000A0EB0A0159455AD8286A8007F6D50CE045
:10157000FFF712F8824605E0FFF70EF8A0EB0A012C
:1015800059454CD8286A8007F6D41FB1E86920F085
:101590008050E861E06988B36968C1F3810102297C
:1015A00044D00228C6F8608004D0FEF7F5FF044658
:1015B00038E034E0FEF7F0FF074604E0FEF7ECFF0A
:1015C000C01B02282BD828688001F7D4206AB0F508
:1015D000803F05D16868A16820F400300843686046
:1015E000D4E908010843696821F47411084368606C
:1015F000C6F86090FEF7D0FF044606E025E000BF85
:10160000FEF7CAFF001B022809D828688001F7D519
:101610001BE000BFFEF7C0FF001B022802D9032019
:10162000BDE8F88F28688001F4D40EE00128F7D0D7
:101630006868226A00F48031914204D1616A00F442
:101640007010884201D00120EAE70020E8E700009E
:101650000010024000004242800442421400002078
:101660000070004010B5401EB0F1807F01D3012012
:1016700010BD4FF0E02460610F21601702F096FC6E
:101680000020A06107202061002010BD10B590F857
:101690003C20012A22D0012280F83C20CA688C68B4
:1016A00022F4407222434C6822F4806222430C6888
:1016B00022F4006222430C6922F4805222434C69D6
:1016C00022F400522243C969002322F480420A43D3
:1016D00001684A6480F83C30002010BD022010BD33
:1016E00070B590F83C20012A26D0012480F83C40B7
:1016F000022280F83D2003685A689D6822F0700637
:101700000A6832435A600D4B02689A4208D0B2F11F
:10171000804F05D00A4B9A4202D00A4B9A4204D11C
:10172000496825F080031943916080F83D4000210D
:1017300080F83C10084670BD022070BD002C0140AE
:10174000000400400008004030B585B00021009141
:1017500001910291039100682B4B2C4902242C4AE1
:10176000984209D1886940F004008861886900F0D6
:101770000400049088152AE0B0F1804F1ED0254B5C
:10178000254D98422CD1886940F004008861886911
:1017900000F004000490886940F0080088618869BE
:1017A000694600F008000490C020CDE9000410460E
:1017B0000394FEF7FBFD0094019420E0886940F05B
:1017C00004008861886900F0040004900B20CDE9D2
:1017D0000004694610460394FEF7E8FD05B030BDED
:1017E0000E4A9042FAD1886940F008008861886901
:1017F00000F0080004904FF43070CDE90004694611
:1018000028460394E8E70000002C01400010024045
:101810000008014000040040000C014000080040A6
:1018200070B5044690F83C000D4601280AD001200E
:1018300084F83C0042B1042A18D0082A2AD00C2A85
:101840004DD139E0022070BD206800F007FE20680D
:10185000816941F0080181612068816921F00401FA
:101860008161206881692A69114311E0206800F0D4
:101870001DFE2068816941F40061816120688169F1
:1018800021F480618161206881692A6941EA02212D
:10189000816124E0206800F035FE2068C16941F0D4
:1018A0000801C1612068C16921F00401C16120689B
:1018B000C1692A69114311E0206800F04FFE2068D9
:1018C000C16941F40061C1612068C16921F480618E
:1018D000C1612068C1692A6941EA0221C161002011
:1018E00084F83C0070BD10B5040003D094F83D00AE
:1018F00010B107E0012010BD002084F83C00204614
:1019000000F01EF8022084F83D00211D206800F040
:1019100061FD012084F8460084F83E0084F83F0011
:1019200084F8400084F8410084F8420084F84300C1
:1019300084F8440084F8450084F83D00002010BD80
:1019400008B5174A01681748914207D1816941F4E7
:1019500000618161806900F4006014E0B1F1804FA2
:101960000AD0114A914210D1C16941F00201C1610E
:10197000C06900F0020006E0C16941F00101C161E7
:10198000C06900F00100009008BD084A9142FBD1F7
:10199000C16941F00401C161C06900F00400F2E7CF
:1019A000002C0140001002400004004000080040EC
:1019B00010B50446022249B104290ED0082913D0DB
:1019C00094F84100012816D0012010BD94F83E0083
:1019D0000128F9D184F83E200FE094F83F00012857
:1019E000F2D184F83F2008E094F840000128EBD1C0
:1019F00084F8402001E084F841200122206800F0B2
:101A00001FFD0F492068884203D1426C42F4004216
:101A100042642068884208D0B0F1804F05D009495F
:101A2000884202D00849884204D1816801F0070148
:101A3000062903D0016841F001010160002010BDBA
:101A4000002C0140000400400008004070B5040074
:101A500004D094F83D00002510B106E0012070BDCF
:101A600084F83C50204600F023F8242084F83D0000
:101A70002068C16821F40051C160204600F090FD4B
:101A80002068016921F4904101612068416921F0D9
:101A90002A0141612068C16841F40051C160256498
:101AA000202084F83D0084F83E00002070BD000036
:101AB00030B585B00024009401940294039400682A
:101AC0001449884224D11448816941F480418161DC
:101AD000816901F480410491816941F004018161CF
:101AE00080690E4D00F0040004904FF400700090E7
:101AF000022001900320039069462846FEF756FC19
:101B00002815CDE90004694628460294FEF74EFCEC
:101B100005B030BD0038014000100240000801400F
:101B20002DE9F843044690F83D001F4616460D4641
:101B300020284CD1C5B1BEB194F83C00012846D054
:101B4000012084F83C004FF00008C4F840802120B8
:101B500084F83D00FEF720FDA6848146E684A06857
:101B6000B0F5805F03D004E00120BDE8F883206970
:101B700028B12E465FF0000584F83C800EE0002678
:101B8000FAE78021204600F067FDA0B9AEB116F853
:101B9000010B21684860E08C401EE084E08C4B46DD
:101BA0004FF0000200970028EBD14FF04001204693
:101BB00000F052FD30B10320D7E735F8020BC0F337
:101BC0000800E6E7202084F83D000020CDE7022051
:101BD000CBE7000070B50A4805680948083004687A
:101BE000001D066807A002F0D1F9334622462946B7
:101BF00006A002F0CBF9BDE870400DA002F0C6B916
:101C00002CED00E06572726F720A000068667372F4
:101C10003A307825780D206D6D6661723A307825FE
:101C2000780D20626661723A30782578200A0000CB
:101C300020000000F0B40023002A18D90A2430251F
:101C400037269C46B4EB107F04D905EB107701F8DA
:101C5000137003E006EB107701F81370000101EB3D
:101C6000430787F801C05B1CDBB29342EAD3F0BCA8
:101C70007047000010B50C4B8CB007AC0FCB84E85C
:101C80000F00002107A802F09FFB084C06491C2208
:101C9000606010316846FEF7A3FA0021684602F042
:101CA000A6FB20600CB010BDD84D0008000000203D
:101CB00070B586B0002425480094019402940394E2
:101CC000816941F010018161816901F01001049185
:101CD000816941F020018161816901F02001049155
:101CE000816941F004018161816901F0040104917D
:101CF000816941F0080181618069154E00F008009A
:101D00004FF400550490002229463046FEF73EFC71
:101D100001200095CDE90104022469463046039470
:101D2000FEF744FB4FF4E04000900A48CDE901047F
:101D300069460948FEF73AFB002205212820FEF7F4
:101D400093FC2820FEF782FC06B070BD0010024014
:101D50000010014000001110000C014010B592B0BD
:101D600000240F941C2108A81094FEF752FA202199
:101D70006846FEF74EFA20481E4901608021C0E9FE
:101D8000011440F2E731C0E9031444618461FFF7B4
:101D9000AAFD08B1FEF7DDFA0F940FA916481094BA
:101DA000FFF79EFC08B1FEF7D4FA6020CDE90804E5
:101DB0000A940B940C940D94002208A90E480E94DA
:101DC000FFF72EFD08B1FEF7C4FA00944FF400505F
:101DD000CDE90440029401940394694606480794AF
:101DE000FFF754FC08B1FEF7B4FA0348FFF7ACFC68
:101DF00012B010BD002C01402004002010B58AB0A4
:101E0000002407941C2168460894FEF702FA1E4835
:101E10004FF0804101608021C0E9011440F2E731B8
:101E2000C0E903148461FFF75EFD08B1FEF791FA83
:101E3000079407A914480894FFF752FC08B1FEF76D
:101E400088FA6020CDE900040294002269460E4819
:101E50000494FFF7E5FC08B1FEF77BFA042269461B
:101E60000948FFF7DDFC08B1FEF773FA0C2269465A
:101E70000548FFF7D5FC08B1FEF76BFA0248FFF7FB
:101E800063FC0AB010BD00006804002010B58AB0E1
:101E9000002407941C2168460894FEF7BAF91E48EE
:101EA0001C4901608021C0E9011440F2E731C0E91A
:101EB00003148461FFF717FD08B1FEF74AFA07948F
:101EC00007A915480894FFF70BFC08B1FEF741FA83
:101ED0006020CDE900040294002269460E48049473
:101EE000FFF79EFC08B1FEF734FA042269460A485F
:101EF000FFF796FC08B1FEF72CFA0C22694606485B
:101F0000FFF78EFC08B1FEF724FA0348FFF71CFC2C
:101F10000AB010BD00040040B004002010B58AB023
:101F2000002407941C2168460894FEF772F91E48A5
:101F30001C4901608021C0E9011440F2E731C0E989
:101F400003148461FFF7CFFC08B1FEF702FA07948F
:101F500007A915480894FFF7C3FB08B1FEF7F9F984
:101F60006020CDE900040294002269460E480494E2
:101F7000FFF756FC08B1FEF7ECF9042269460A485F
:101F8000FFF74EFC08B1FEF7E4F90C22694606485B
:101F9000FFF746FC08B1FEF7DCF90348FFF7D4FB76
:101FA0000AB010BD00080040F80400200C4810B52D
:101FB0000A4901604FF4E1314160002181600C2247
:101FC000C160C0E904128161C161FFF73FFD0028D3
:101FD00003D0BDE81040FEF7BCB910BD0038014089
:101FE0004005002010B500220B490C4800F056FEB9
:101FF00008B1FEF7AEF90A49084801F031F808B116
:10200000FEF7A7F9054801F0DDF8002803D0BDE888
:102010001040FEF79EB910BD70000020742E002005
:10202000C0000020FEE7FFF781F9FEE72DE9F84F39
:10203000044640F68F7B48F60F7A4FF002094FF4C2
:10204000806874E1B0F8441011F00F063AD030F80F
:10205000267039047DD530F8261001EA0B0141F0D5
:10206000800120F8261006EB860004EBC00595F8E9
:10207000740105F5B47500286CD0E87802286AD0A0
:102080002878226832F8201048F68F73194048F2F9
:10209000C003194322F820102878D4F800C03CF877
:1020A0002010BCF8502049047ED509EBC00011185F
:1020B00008EB41003CF800008005800D009074D0D2
:1020C0002A89D8E0C9062DD4018801EA0A0141F421
:1020D00000410180216804F12805B1F850202B78D7
:1020E00009EBC300024408EB4200085AC0F30900A0
:1020F0006064E16B0844E06300212046FEF705FBC5
:1021000094F8240000289CD0A869002899D194F85C
:102110002400216840F08000A1F84C00002084F8E1
:10212000240004E1018804F5B4750A0521D5B0F84E
:1021300050202B78062101EBC3010A4408EB420131
:10214000405A04F52C71C0F30903EB61EA8820685A
:1021500002E0ACE068E07AE001F0E6FE2168088881
:1021600000EA0B0040F0800008802046FEF741FFA7
:10217000DDE00904D5D5018801EA0B0141F08001B9
:1021800001802068B0F850202B78062101EBC301B4
:102190000A4408EB4201405A83059B0DEB6110D0C5
:1021A000696971B1EA8801E058E056E0206801F001
:1021B000BBFEE96968690844686100212046FEF7B2
:1021C000ADFA2068018809052DD4B0F850100844F4
:1021D000296900F20C4051B13E2910D84A08C907BC
:1021E00000D0521C4FF6FF7101EA82210FE00188F6
:1021F00021F4F8410180018841F4004107E04A09D7
:10220000C90600D1521E4FF4004141EA82210180EB
:10221000206801884BF68F72114081F4405148F2DA
:1022200080021143018082E0D4F800C0BCF8501055
:102230002A78062000EBC200014408EB41003CF87C
:1022400000008005800D00901AD0EA8813E03A461D
:1022500029462046FEF7C0FA009011E0062101EB66
:10226000C000111808EB41003CF800008005800D0B
:10227000009005D06A8903466046696901F054FE02
:10228000E96900980844E861696900980844686150
:10229000A86918B129690098814204D92978204693
:1022A000FEF73CFA03E02946206801F023FB3806DC
:1022B0003DD506EB860004EBC001206830F82620EF
:1022C00002EA0A0242F4004220F8262091F82B008C
:1022D0002831032804D018B1022824D1F80522D4CB
:1022E0002368B3F850200D7809EBC500024408EBD1
:1022F0004200185A8A69C0F3090082420CD9121AA6
:102300008A610BD04A6902444A61CA691044C861B3
:10231000206801F0EFFA0AE000208861E9B2204667
:10232000FEF7F3F903E03A462046FEF7C8FA2068C4
:10233000B0F8441009043FF585AE0020BDE8F88FE1
:1023400010B5FEF72FF902F053FC012803D0BDE8C9
:10235000104002F08DBB10BD30B593B02821684607
:10236000FDF757FF14210AA8FDF753FF00240120B1
:102370000F9410941194010412948DE813000490AA
:102380004FF46010CDE90810022507956846FEF766
:10239000D9FF08B172B6FEE70F20CDE90A054FF468
:1023A0008060CDE90C4002210AA80E94FEF7CCFE15
:1023B00008B172B6FEE710200F9012940FA8FEF736
:1023C0004BFE08B172B6FEE7FEF754FF13B030BD06
:1023D00070470000F0B50268164B174C174D4FF0D0
:1023E0008047984205D0B84203D0A04201D0A8420D
:1023F00003D122F070064A683243984205D0B842B1
:1024000003D0A04201D0A84203D122F44074CA688C
:1024100022434C6922F08002224302608A68C26231
:102420000A688262984201D1096901630121416110
:10243000F0BD0000002C01400004004000080040F6
:1024400010B501F01F030121046A99408C43046216
:10245000016A9A401143016210BD000030B5026A62
:1024600022F001020262026A4368846924F0730563
:102470000C682C4322F002058A682A430A4DA842C0
:102480000BD122F00805CA6823F440732A434D6932
:1024900022F004021D438B692B4343608461496829
:1024A0004163026230BD0000002C014030B5026A79
:1024B00022F010020262026A436884690D6824F403
:1024C000E64444EA05248D6822F0200242EA05121F
:1024D0000B4DA8420ED1CD6822F0800242EA0512CF
:1024E0004D6923F4406343EA85038D6922F040027D
:1024F00043EA85034360846149688163026230BDB9
:10250000002C014030B5026A22F480720262036A34
:102510004268C46923F4007324F073050C682C43EB
:102520008D6843EA05230C4DA8420ED1CD6823F4F3
:10253000006343EA05234D6922F4405242EA051242
:102540008D6923F4806342EA05124260C4614968E0
:10255000C163036230BD0000002C014030B5026A47
:1025600022F480520262046A4268C3690D6823F44F
:10257000E64343EA05238D6824F4005444EA053415
:10258000064DA84204D14D6922F4804242EA8512E8
:102590004260C36149680164046230BD002C01409F
:1025A00070B5044600680169E26821F440511143A6
:1025B00001612169A0680843616908432168CA680C
:1025C00041F20C639A430243CA6020684169A269E0
:1025D00021F44071114341611E492068884202D1B3
:1025E000FEF75EFE01E0FEF74BFE00EBC00101EBE3
:1025F0000012606864218000B2FBF0F3B3FBF1F3DA
:102600006FF018067343B2FBF0F5B2FBF0F605EB82
:102610008305322303EB0515B5FBF1F5B6FBF1F6A7
:1026200005F0F00505EB0615B2FBF0F6B2FBF0F095
:10263000B0FBF1F06FF01802504306EB800003EBA3
:102640000010B0FBF1F0216800F00F002844886012
:1026500070BD0000003801402DE9F0419846174652
:102660000E460446069D1DE0681C1BD02DB1FDF7EB
:1026700093FFA0EB0800A84214D92068C16821F498
:10268000D071C1602068416921F0010141612020C1
:1026900084F83D0084F83E00002084F83C000320CC
:1026A000BDE8F0812068006836EA000004D0002010
:1026B000B842D9D00020F3E70120F9E710B5D0F8EF
:1026C000B42252689047002010BD90F89C22012A45
:1026D00005D0022A03D0032A01D000F019B8498896
:1026E000012904D10021C0F8A41200F035B87047C8
:1026F00010B513460A46002100F0F7FB002010BD7C
:1027000010B513460A46002100F08DFC002010BDD4
:1027100010B504468021204600F06AFC2046BDE842
:102720001040002100F064BC10B50521C0F89412DF
:1027300000231A46194600F0D8FB002010BD10B542
:102740000223C0F89432C261026213460A46002195
:1027500000F069FC002010BD10B50421C0F89412EF
:1027600000231A46194600F05EFC002010BD000050
:1027700010B5002806D00A46054906A000F086F9E3
:10278000034810BD0A46024902A000F07FF9F7E7AE
:102790003831002048494420436F6E666967000065
:1027A00012200880004870479000002010B50028D3
:1027B00006D00A46054906A000F068F9034810BD96
:1027C0000A46024902A000F061F9F7E7383100201B
:1027D00048494420496E7465726661636500000073
:1027E00004200880004870478C00002010B50A467D
:1027F000024903A000F04AF9004810BD383100201A
:1028000053544D5F4B6579626F6172640000000044
:1028100010B5002806D00A46054906A000F036F992
:10282000034810BD0A46024902A000F02FF9F7E75D
:102830003831002053544D33322048756D616E207D
:10284000696E7465726661636500000010B51A20D8
:102850000880FDF781FD014810BD0000A4000020A4
:10286000CA88012A01D0FFF753BF90F89C22012AA1
:1028700005D0022A03D0032A08D0FFF749BF002160
:102880008160012200F10801FFF759BF0122011DFB
:10289000FFF755BF2DE9F84304460F46002000908E
:1028A000002600257888010A082970D2DFE801F0A7
:1028B000AB040C22ABAB8B9AD4F8B012207C0A6824
:1028C000694690470646A3E0207C4FF0020840B1DD
:1028D000D4F8B402C16A68468847064686F8018083
:1028E00096E0D4F8B402816A68468847064686F8BE
:1028F00001808DE0C0B206285FD2DFE800F003124D
:1029000021303F4FD4F8B002426822B1207C6946A2
:10291000904706467CE039462046FFF7F9FE012540
:1029200076E0D4F8B002826822B1207C69469047F4
:1029300006466DE039462046FFF7EAFE012567E0CE
:10294000D4F8B002C26822B1207C6946904706469E
:102950005EE039462046FFF7DBFE012558E0D4F85B
:10296000B002026922B1207C6946904706464FE0DA
:1029700039462046FFF7CCFE012549E0D4F8B002E5
:1029800042692AB1207C69469047064640E03AE019
:1029900039462046FFF7BCFE012539E0D4F8B002E5
:1029A000826922B1207C69469047064630E039466C
:1029B0002046FFF7ADFE01252AE039462046FFF705
:1029C000A7FE012524E0207C28B139462046FFF7E8
:1029D0009FFE01251CE0D4F8B402416B684688478D
:1029E000064615E0207C28B139462046FFF790FEC8
:1029F00001250DE0D4F8B402016B6846884706460D
:102A00000721717004E039462046FFF781FE012559
:102A1000002D12D1BDF8000048B1FA883AB18242C7
:102A200000D90246009231462046FFF788FEF8881A
:102A3000002802D12046FFF78FFEBDE8F883002171
:102A40000278002A05D0491CC9B2401C0278002A2D
:102A5000F9D10846704790F89C22012A05D0022A35
:102A600003D0032A01D0FFF753BECA88022A01D03F
:102A7000FFF74EBE0121C160D0F8A41209B10321B5
:102A8000C160022200F10C01FFF759BE70B5044687
:102A90000D461646002C1AD02046FFF7D0FF022123
:102AA00001EB4000308030782870032102206970EB
:102AB000217800290BD0002214F8013B411CC9B237
:102AC0002B54481CC0B26A5421780029F4D170BD3F
:102AD00001460020002906D0012905D0022905D091
:102AE000032905D00220704702207047012070475B
:102AF00002207047D0F8B80200210173002070470F
:102B000070B504468121204600F0E7F80025E56213
:102B1000D4F8B80218B100F0C7FCC4F8B8520020CD
:102B200070BD00000A21018000487047700100203C
:102B30002221018000487047F800002022210180F6
:102B4000004870471C010020222101800048704786
:102B50004001002010B504460423032281212046B1
:102B600000F0B7F90120E062102000F09FFCC4F8EB
:102B7000B80218B100210173002010BD022010BD61
:102B800038B50346D3F8B8020022009200240A7830
:102B900012F0600228D0202A05D01846FFF7B8FDB1
:102BA0000224204638BD4A78022A17D0032A0BD0C7
:102BB0000A2A0FD00B2A04D01846FFF7A9FD0224D9
:102BC000EFE789780160ECE7014601221846FFF73C
:102BD000B6FDE6E74988090A4160E2E7011D0122E6
:102BE0001846FFF7ACFDDCE74A7852B1062A17D049
:102BF0000A2A33D00B2A41D01846FFF789FD022458
:102C0000CFE793F89C02032804D01846FFF780FD15
:102C10000224C6E7022269461846FFF790FDC0E786
:102C200048882222B2EB102F05D1CA884A2A00D93F
:102C30004A22184808E02122B2EB102F09D1164889
:102C4000CA88092A00D9092201461846FFF777FDEC
:102C5000A7E71846FFF75CFD0224A2E793F89C2241
:102C6000032A04D01846FFF753FD022499E700F128
:102C7000080101221846FFF762FD92E793F89C22B3
:102C8000032A04D01846FFF743FD022489E7897818
:102C9000816086E77C0100206401002010B50028D7
:102CA00010D0D0F8B43213B10023C0F8B43209B157
:102CB000C0F8B012012180F89C12027000F0C6F832
:102CC000002010BD022010BD10B5D0F8C002FDF7E5
:102CD00055FDBDE81040FFF7FBBE10B5D0F8C002AF
:102CE000FDF726FDBDE81040FFF7F2BE70B50446C3
:102CF0009446002909D0D4F8B40242691AB194F874
:102D00009C02032859D0022070BD04F11400D4F8AD
:102D100094120025022904D0042940D000293ED075
:102D200041E0C36801698B420DD9591AC1608AB26A
:102D300061462046FFF7E4FC00231A461946204668
:102D400000F0D3F82FE08068B0FBF1F201FB120233
:102D50009AB9884211D3D4F8981288420DD2002231
:102D600011462046FFF7CCFCC4F8985200231A46BF
:102D70001946204600F0B9F815E0D4F8B402C1684D
:102D800029B194F89C02032801D12046884780216C
:102D9000204600F02DF92046FFF7C6FC03E0802115
:102DA000204600F025F994F8A002012807D120461A
:102DB00000F05FF984F8A05201E02046904700201F
:102DC00070BD10B5044608461146002809D0D4F855
:102DD000B4128A691AB194F89C12032931D00220E6
:102DE00010BD04F5AA70D4F89432032B02D0052B41
:102DF0001FD029E0D0F810C0C36863450BD9A3EBFE
:102E00000C03C3600069834200D303469AB2204694
:102E1000FFF76EFC18E0D4F8B402016929B194F808
:102E20009C02032801D1204688472046FFF794FCE6
:102E30000AE00020C4F894020021204600F0D8F8EF
:102E400002E0014620469047002010BD10B5044620
:102E50001548C0F8E842C4F8C002144901600821CE
:102E600041600221816000218161C1610162FEF740
:102E700005F808B1FDF76DFA002218231146D4F8C1
:102E8000C002FDF723FC582300228021D4F8C002A1
:102E9000FDF71CFC4FF4807300228121D4F8C0029E
:102EA000FDF714FC002010BD4C330020005C0040F6
:102EB00011F0800F01F07F01D0F8C00201EB810119
:102EC00000EBC10002D090F82A00704790F86A0128
:102ED000704710B59C461346D0F8C0026246FDF715
:102EE00086FEBDE81040FFF7F3BD10B5D0F8C00274
:102EF000FDF7ADFEBDE81040FFF7EABD70B5044632
:102F00000022402311462046FFF7E3FF0125C4F8C5
:102F100058514026C4F86461402300228021204695
:102F2000FFF7D7FFA561666284F89C520020C4F8C1
:102F300094026060C4F8A402D4F8B80228B1D4F8AE
:102F4000B4020021426820469047002070BD90F8EE
:102F50009C12042903D190F89D1280F89C12002045
:102F6000704710B590F89C12032904D1D0F8B41220
:102F7000C96901B18847002010BD01740020704765
:102F800010B5D0F8C002FEF720F8BDE81040FFF7FA
:102F90009FBD10B5044604F52A7000F04DF80120DD
:102FA000C4F89402B4F8AE02C4F8980294F8A812D7
:102FB00011F01F000AD001280ED0022812D001F013
:102FC0008001204600F014F8002010BD04F52A719D
:102FD000204600F0FCF8F7E704F52A71204600F0DF
:102FE0002EFAF1E704F52A71204600F030F9EBE7FC
:102FF00010B5D0F8C002FDF743FEBDE81040FFF762
:1030000067BD10B5D0F8C002FDF7FAFFBDE810406B
:10301000FFF75EBD90F89C1280F89D12042180F8A5
:103020009C120020704710B5D0F8C002FDF761FE79
:10303000BDE81040FFF74CBD0A7802704A78427034
:103040008A78CB7802EB032242800A794B7902EB33
:10305000032282808A79C97902EB0121C1807047FD
:1030600002460020002902D0C2F8B41270470220A4
:1030700070470020704770B504468888002821D129
:10308000C888F8B9488880281CD200F07F0594F8D9
:103090009C0203280DD084F89E5229462046FFF753
:1030A0006FFF2046FFF758FB45B1022084F89C02D1
:1030B00070BD2046BDE87040FFF72ABB012084F8B0
:1030C0009C0270BD2046BDE87040FFF721BB10B5E3
:1030D0000224D0F8B422002A03D01268904700B925
:1030E0000024204610BD000070B504460D46304E49
:1030F000A9783170012905D929462046BDE87040DC
:10310000FFF706BB94F89C0202280BD0032823D0BB
:1031100029462046FFF7FCFA31782046BDE870408A
:10312000FFF7CCBA99B16160032084F89C02204675
:10313000FFF7CDFF022804D02046BDE87040FFF71E
:103140000BBB29462046BDE87040FFF7E1BA204698
:10315000BDE87040FFF700BB91B16068884221D0A4
:10316000C1B22046FFF7AAFA317861602046FFF726
:10317000AEFF022810D02046BDE87040FFF7ECBA41
:10318000022084F89C0261602046FFF797FA2046EF
:10319000BDE87040FFF7E0BA29462046BDE8704020
:1031A000FFF7B6BA2046BDE87040FFF7D5BA000079
:1031B000BE0000204988012903D1C0F8A412FFF7FE
:1031C000CBBA704710B5FFF71CFF002010BD10B53B
:1031D00003460024087810F060020ED0202A06D0A2
:1031E000402A04D01846FFF793FA204610BDD3F8C2
:1031F000B402826818469047F7E748780A2822D236
:10320000DFE800F0151D211921090521110D1846CF
:10321000FFF740FBE9E71846FFF72DFFE5E7184603
:10322000FFF762FFE1E71846FFF71AFBDDE71846F4
:10323000FFF711FCD9E71846FFF7BCFFD5E71846A2
:10324000FFF743FAD1E71846FFF762FACDE72DE919
:10325000F0410446084600260179037813F0600225
:1032600011D0202A08D0402A06D001462046FFF778
:103270004FFA3046BDE8F081D4F8B4128A680146AE
:1032800020469047F5E703F06002202A0BD04278F1
:10329000002A61D0012A37D0032A0CD001462046EB
:1032A000FFF736FAE5E7D4F8B4128A6801462046FB
:1032B000BDE8F041104794F89C22022A06D0032A68
:1032C00014D001462046FFF723FAD2E749B18029FE
:1032D00007D02046FFF78CFE80212046FFF788FEAE
:1032E000C7E701462046FFF713FAC2E742883AB91A
:1032F00031B1802904D0C08810B92046FFF778FE8C
:103300002046FFF729FAB4E794F89C22022A06D057
:10331000032A14D001462046FFF7FAF9A9E749B17C
:10332000802907D02046FFF763FE80212046FFF763
:103330005FFE9EE701462046FFF7EAF999E74088DD
:10334000002896D111F07F0F02D02046FFF7BCFC79
:103350002046FFF701FA8CE794F89C220027022A06
:1033600006D0032A26D001462046FFF7D1F980E790
:1033700031B1802904D001462046FFF7C9F978E72A
:1033800011F0800F08D001F07F0000EB800004EB0B
:10339000800000F1140107E001F07F0000EB8000E5
:1033A00004EB800000F5AA710F6002222046FFF7AF
:1033B000C6F95EE711F0800F0CD001F00F0202EBAE
:1033C000820204EB820292696AB901462046FFF745
:1033D0009FF94EE701F00F0202EB820204EB82023A
:1033E000D2F858215AB111F0800F0DD001F07F00B2
:1033F00000EB800004EB800000F114050CE00146B6
:103400002046FFF785F934E701F07F0000EB8000EC
:1034100004EB800000F5AA7541B1802906D0204652
:10342000FFF746FD20B10120286002E02F6000E098
:103430002F60022229462046FFF781F919E770B56F
:1034400005460C46207810F0600209D0202A07D0EB
:10345000402A05D021462846FFF75AF9002070BDC2
:1034600095F89C22012A08D0022A06D0032A04D00B
:1034700021462846FFF74CF9F0E7207901280ED8BD
:10348000D5F8B4022146826828469047E188002991
:10349000E4D10028E2D12846FFF75EF9DEE72146B5
:1034A0002846FFF735F9D9E7704700000048704714
:1034B000383300202DE9F0470C78002630F824300E
:1034C00048F68F121340CA78002A7DD0012A7CD09A
:1034D000022A02D0032A7FD0012648F28002134339
:1034E00020F824300D7830F8254048F68F731C40C2
:1034F0002C43144320F825400D7B48F2C00C48F6BD
:10350000BF744CF280074BF68F79EDB391F80080D1
:10351000C24630F8285048F280181D4045EA080598
:1035200020F82A50B0F8505091F80080054405EB7F
:103530000815B1F8088028F00108A5F80084B0F853
:10354000505091F80080054405EB0815B1F80A8049
:1035500028F00108A5F808844D78002D0D7830F882
:1035600025804FEA48487DD0B8F1000F07DA30F8DF
:10357000258008EA030848EA070820F825800F7824
:1035800030F827506D0600E02CE006D530F82750C3
:103590001D4045EA0C0520F82750CB780D78012B0B
:1035A00030F8253003EA040301D083F020031343ED
:1035B00020F825300B7830F8231001EA0901114377
:1035C00020F82310304602E003E008E004E0BDE804
:1035D000F08743F4007380E743F4C0637DE743F46E
:1035E00080637AE74D782DB3B0F850500F780544DA
:1035F00005EB0715CF8827F00107A5F800740F78B1
:1036000030F827506D0606D530F827501D4045EAA2
:103610000C0520F82750CB78012B06D00B7830F81A
:103620002310214081F02001C9E70B7830F82310E6
:103630002140C4E7B0F850400D78044404EB051471
:10364000CD8825F00105A4F80854B0F850400D7855
:10365000044404EB05140D6904F20C4475B13E2DCD
:1036600014D800E030E04FEA550CED0701D00CF122
:10367000010C4FF6FF7505EA8C2511E0258825F42D
:10368000F8452580258845F4004509E04FEA551C9A
:10369000ED0601D1ACF1010C4FF4004545EA8C2553
:1036A00025800D7830F82540640405D530F8254094
:1036B0001C403C4320F825400B7830F8231001EAE9
:1036C000090181F440517AE7B8F1000F07DA30F8C8
:1036D000258008EA030848EA070820F825800F78C3
:1036E00030F827506D0606D530F827501D4045EAC2
:1036F0000C0520F827500D7830F8253003EA09032F
:1037000083F44053134320F825308EE700207047A0
:103710002DE9F04391F80C804F780A7848F6BF7C89
:103720004BF68F7948F2800348F2C0054CF28006D0
:1037300048F68F74B8F1000F28D0002F30F82270AF
:103740004FEA474748D0002F05DA30F8227027406B
:10375000374320F822700A7830F822707F0605D5AA
:1037600030F8227027402F4320F822700D7830F86F
:1037700025202240324320F825200C7830F82420E0
:1037800002EA0C021A4320F824201AE07FB130F834
:103790002260760605D530F8226026402E4320F8B8
:1037A00022600A7830F8221001EA0C010EE030F8AD
:1037B00022506D0405D530F822502540354320F8BD
:1037C00022500A7830F8221001EA0901194320F842
:1037D00022100020BDE8F083002F05DA30F82270B7
:1037E0002740374320F822700A7830F822607606A6
:1037F00005D530F8226026402E4320F822600E784E
:1038000030F8262022402A4320F826200C7830F871
:10381000242002EA09021A4320F82420C1E70020EC
:10382000704700207047012120F8401F00210180CF
:10383000818001820846704730F8401F21F43F41E3
:103840000180002070470020704730B50A7BB2BB72
:103850004A7848F68F7548F28004C2B10B7830F888
:103860002320520607D530F823202A4048F2C0050D
:103870002A4320F82320CA78012A20D00A7830F879
:10388000221048F6BF73194081F0200114E00A7835
:1038900030F822305B0407D530F822302B404CF250
:1038A00080052B4320F822300A7830F822104BF69E
:1038B0008F73194081F44051214320F822100020D9
:1038C00030BD10B54A780978002A48F2800330F8F4
:1038D000212005D048F6BF74224082F0100204E097
:1038E0004BF68F74224082F480521A4320F8212034
:1038F000002010BD2DE9F0470E464B78097B0446A9
:103900004FF0000948F68F7248F2800A4FF6FF77B1
:103910004FF40048012B09D000296ED0F07802281E
:103920006CD001286BD00120BDE8F087B569306903
:10393000854200D90546C9B1F17848F280130229C1
:1039400023D0317834F821001040184324F82100A6
:10395000306A401B3062307834F8201049067178A4
:103960007ED500297DD001297CD03FE1ABB2F28821
:103970002046716900F0F6FAB4F85000317820441E
:1039800000EB0110A0F80454EAE0316A81426AD9E0
:10399000317834F821001040184324F82100306AAF
:1039A000401B3062307834F82010490671786CD5AD
:1039B00011B1012924D02AE0B4F85010214401EBC0
:1039C000001000F20C404DB13E2D0FD86908EA07F7
:1039D00000D0491C07EA8121018018E0018821F408
:1039E000F8410180018841F40041F5E76909EA06E0
:1039F00000D1491E48EA8121EEE79CE1BCE126E2C4
:103A0000B4F85020111901EB0010A0F80C54728981
:103A1000ABB22046716900F0A5FA70692844706164
:103A20003169306A884202D9401B306202E00546A3
:103A3000C6F82090707800287CD1B4F85000317816
:103A4000204400EB011000F204406DB13E2D13D86C
:103A50006908EA0700D0491C07EA8121018012E0C9
:103A600001E19BE0BBE084E0018821F4F8410180A2
:103A7000018841F40041F1E76909EA0600D1491ED5
:103A800048EA8121EAE7328965E011B1012921D0B4
:103A900027E0B4F85010214401EB001000F204407C
:103AA0004DB13E2D0FD86908EA0700D0491C07EA3E
:103AB0008121018015E0018821F4F841018001880D
:103AC00041F40041F5E76909EA0600D1491E48EAD8
:103AD0008121EEE7B4F85010214401EB0010A0F86A
:103AE00004543289ABB22046716900F03BFA706928
:103AF000284470613169306A884202D9401B3062C3
:103B000002E00546C6F82090707800287ED1B4F80F
:103B100050003178204400EB011000F20C4055B108
:103B20003E2D10D86908EA0700D0491C07EA812118
:103B300001800FE072E0018821F4F84101800188E2
:103B400041F40041F4E76909EA0600D1491E48EA58
:103B50008121EDE77289ABB22046716900F002FA6B
:103B6000317834F8210048F6BF72104080F0300000
:103B7000C0E1327834F8220048F68F63184040EAFA
:103B80000A0024F82200B4F850003278204400EBF8
:103B900002108BB2A0F804343289DDE7B4F850107B
:103BA000214401EB001000F20C404DB13E2D0FD826
:103BB0006908EA0700D0491C07EA8121018015E065
:103BC000018821F4F8410180018841F40041F5E7C2
:103BD0006909EA0600D1491E48EA8121EEE7B4F8F6
:103BE0005020111901EB0010A0F80C547289ABB2EF
:103BF0002046716900F0B6F9706928447061316936
:103C0000306A884203D9401B306203E06EE005460B
:103C1000C6F82090002DA3D0707858B101287FF409
:103C20001EAFB4F850003178204400EB0110A0F82A
:103C3000045428E7B4F850003178204400EB011117
:103C400001F204413E2D06D86808EA0700D0401C66
:103C500007EA802005E06809EA0600D1401E48EA2C
:103C6000802008800FE711B1012921D027E0B4F8A6
:103C70005010214401EB001000F204404DB13E2DE4
:103C80000FD86908EA0700D0491C07EA81210180A2
:103C900015E0018821F4F8410180018841F40041D8
:103CA000F5E76909EA0600D1491E48EA8121EEE7F5
:103CB000B4F85010214401EB0010A0F804543289EC
:103CC000ABB22046716900F04DF97069284470610B
:103CD0003169306A884202D9401B306202E00546F1
:103CE000C6F82090002D96D0707858B101287FF446
:103CF00020AFB4F850100819317800EB0110A0F88B
:103D00000C5427E7B4F850003178204400EB01113F
:103D100001F20C413E2D06D86808EA0700D0401C8D
:103D200007EA802005E06809EA0600D1401E48EA5B
:103D3000802008800EE7B1693069814202D9091AF2
:103D4000B161B5E00846C6F81890B1E0088820F4E3
:103D5000F8400880088840F400400BE03E2875D801
:103D60004208C00700D0521C07EA822002E000BFD0
:103D700048EA82200880B5E093B9B4F85000317861
:103D8000204400EB0110316900F2044069B13E2982
:103D900013D84B08C90700D05B1C07EA83210180B8
:103DA000707888B1012832D03AE0018821F4F841D6
:103DB0000180018841F40041F1E74B09C90600D1B7
:103DC0005B1E48EA8321EAE7B4F8500031782044CA
:103DD00000EB0110316900F20C4049B13E290FD8C7
:103DE0004B08C90700D05B1C07EA8321018017E05C
:103DF000018821F4F8410180018841F40041F5E790
:103E00004B09C90600D15B1E48EA8321EEE7B4F8EE
:103E100050100819317800EB0110318AA0F80C1409
:103E2000F069A8B3317834F82100430401D5430682
:103E300003D444F24003184254D134F82100104016
:103E400048F2C002104324F821004BE03CE0B16985
:103E50003069814202D9091AB16102E00846C6F808
:103E600018908BB9B4F850103278214401EB02114C
:103E700001F2044168B13E2813D84208C30700D0BC
:103E8000521C07EA82220A80717889B1012921D067
:103E900028E00A8822F4F8420A800A8842F40042A4
:103EA000F1E74209C30600D1521E48EA8222EAE73E
:103EB000B4F850103278214401EB021101F20C41A8
:103EC00000287FF44BAF41E74209C0067FF450AFB2
:103ED000521E4DE7B4F850201119327801EB02114F
:103EE000A1F80C04317834F821004BF68F721040A1
:103EF00080F4405040EA0A0024F82100002013E535
:103F00000021A0F844104FF43F41A0F840100020D9
:103F1000704700000148FCF706BF00004C3300204A
:103F2000B0F844007047000010B500EB42005C0898
:103F300000F5806009D000BF30F8042B01F8012B98
:103F4000120A01F8012B641EF6D1DA0701D00088AD
:103F5000087010BD0020704711B98021A0F84C10E6
:103F60000020704710B55B1C00EB42005B0800F5B9
:103F7000806009D011F8012B11F8014B42EA0422AC
:103F800020F8042B5B1EF5D110BDFEE70FB4054BE6
:103F900010B503A9044A029800F028F810BC5DF897
:103FA00014FB0000AD420008C80100200907090EFB
:103FB000002804DB00F1E02080F80014704700F0D6
:103FC0000F0000F1E02080F8141D704702E008C8DF
:103FD000121F08C1002AFAD170477047002001E083
:103FE00001C1121F002AFBD1704700002DE9FF4FCD
:103FF0008DB09B460F460446002606E025280BD0D0
:104000005A460F999047641C761C20780028F5D1F9
:1040100011B03046BDE8F08F0025A846012298492E
:1040200000E0054314F8013F203B02FA03F0084288
:10403000F7D120782E2817D114F8010F45F0040588
:104040002A280ED06FF02F022078A0F13001092924
:104050000AD808EB880102EB410100EB0108641C5F
:10406000F2E757F8048B641C20786C280DD004DC30
:104070004C2812D06A2811D104E074280DD07A2877
:104080000CD10AE045F4001507E0617845F480158D
:10409000814202D1641C05F58015641C20786928D2
:1040A00044D008DC0028B3D0582867D063280FD04C
:1040B000642808D13AE0702865D0732812D075289A
:1040C0005AD078285AD05A460F999047761CD5E096
:1040D00017F8040B8DF8000000208DF80100E94668
:1040E000012003E057F8049B4FF0FF3069074FF0C1
:1040F000000501D40AE06D1C45450DDA8542FADB66
:1041000019F805100029F6D106E06D1C8542FCDB8C
:1041100019F805100029F8D12E4404E019F8010B14
:104120005A460F9990476D1EF8D2A7E00A20002149
:10413000CDE90801C5F3025002280CD001CFC11708
:10414000021E71F100020CDA0023D0EB030063EBD6
:1041500001012D2208E0FF1D27F00707F7E8020103
:10416000EEE72A0504D52B228DF8282001223CE019
:10417000EA073AD02022F7E70A2000E010200021C9
:10418000CDE9080107E01020002145F00405CDE944
:1041900008014FF00808C5F30250022810D001CFE3
:1041A00000214FF0000A2A0720D52278702A0DD06E
:1041B000DDE908C38CF0100C5CEA030C0CD015E0B0
:1041C000FF1D27F00707F7E80201EAE740228DF814
:1041D00028204FF0010A0CE050EA010306D03023FA
:1041E0008DF828308DF82920022292462278582A0C
:1041F00004D024A20DF120090B9209E026A2F9E7D0
:10420000DDE90823FCF710F80B9B9B5C09F8013DE6
:1042100050EA0102F4D1ADEB0900203008906807A4
:1042200001D44FF001080899884503DD0898A8EBF0
:10423000000000E000208046002506E00AA85A465B
:10424000405D0F9990476D1C761C5545F6DB04E0E8
:1042500030205A460F999047761CB8F10001A8F11A
:104260000108F5DC05E019F8010B5A460F99904753
:10427000761C0899481E08900029F4DC641CC4E6EA
:10428000092801003031323334353637383961622C
:1042900063646566000000003031323334353637F0
:1042A00038394142434445460000000013B54FF001
:1042B000FF33012269460248FDF732FC00981CBD1D
:1042C00040050020FCF776F9FEF746F8FDF7F0FC14
:1042D000FDF744FDFDF792FDFDF7D8FDFDF71EFE4D
:1042E000FDF764FE00212848FDF762FB0021274806
:1042F000FDF75EFB04212548FDF75AFB0C212348FE
:10430000FDF756FB00212248FDF752FB042120480F
:10431000FDF74EFB0C211E48FDF74AFB00211D480E
:10432000FDF746FB04211B48FDF742FB0C21194811
:10433000FDF73EFB32214807416396218163C82186
:10434000016415494FF496700860091D4FF4C87058
:10435000086011494FF4FA700C3108600F494FF4AE
:10436000167008600E494FF42F700860091D4FF455
:10437000487008600A4940F2E7300C310860FDF7E8
:1043800079FC00F01CF8FEE72004002068040020FF
:10439000B0040020F804002034040040342C014014
:1043A0003408004001460020842900D0C81C704712
:1043B00010B500B9012000F0CBFA002010BD10B5F7
:1043C00000F0DEFA002010BD38B5D0E90112046813
:1043D0003AB1C3682BB100200090204600F079FB71
:1043E00038BD2046BDE83840002200F057BB7FB5FD
:1043F0000D4604464169B0F9080081B1A16971B167
:10440000FFF7D0FFD4E905128DE80700D4E90010CA
:104410002B46226900F0D1FB039004B070BDFFF77A
:10442000C1FF03A9CDE90001208A2B4682B2D4E95D
:10443000001000F095FB012801D00020EDE7039863
:10444000EBE700002DE9F041184C0F460546666980
:104450002068001D00F0E2F938B9206890F82C10AF
:1044600001208840A1698143A161681C07D137B14F
:104470002168BDE8F0410E48091D00F013BA20681C
:104480003544B5424560216805D2A068BDE8F041D9
:10449000091D00F0EFB96068091D00F0EBF9206B11
:1044A000854200D22563BDE8F0810000180000209D
:1044B000600600202DE9F041054600F0FFF92E4C82
:1044C0002069401C206120682C4F10B1E06940B386
:1044D0002DE025602069012829D1002606EB860001
:1044E00007EB800000F0B8F9761C072EF6D32348BE
:1044F0008C3000F0B1F92148A03000F0ADF91F4830
:10450000B43000F0A9F91D48C83000F0A5F91B48E7
:10451000DC3000F0A1F919488C3060601430A060E4
:1045200005E02068E96AC06A884200D82560E06A30
:10453000401CE062E96A0120A26988401043A06142
:1045400001EB810007EB8000291D00F0ABF900F0C2
:10455000C3F9E06900280CD02068E96AC06A884283
:1045600007D207494FF080500860BFF34F8FBFF369
:104570006F8FBDE8F0810000180000208405002046
:1045800004ED00E010B5044690F8510030B1012868
:1045900008D12046BDE8104000F0A8B9206B00F01B
:1045A000A5F9F6E710BD000010484FF4205142076E
:1045B00006D0C01D0D4920F00700411AC1F5205159
:1045C0000B4A00230144C2E900030839103A21F0E4
:1045D000070111604B600B600B1AC0E90013936078
:1045E0004FF000405360D060704700007406002018
:1045F00064000020144E154CA6F1C8074FF08058F7
:10460000DFF84C9012E000BF00F058F9F068C56880
:10461000281D00F003F92069401E2061E068401E5B
:10462000E06000F059F92846FFF7ACFFE068002889
:10463000EAD138680128F9D9C9F80080BFF34F8F53
:10464000BFF36F8FF2E700004C0600201800002037
:1046500004ED00E00346009829B10260C0E90F3183
:10466000012100F043BA0060F8E72DE9F0479A46CF
:10467000DDE9096481466FF00303206B03EB8202DE
:104680001044089D20F00708002023180A5C83F8D6
:1046900034200A5C12B1401C1028F6D3002784F89D
:1046A0004370072D00D30625E562C4E91157201D8C
:1046B00000F0DDF804F1180000F0D9F82461C5F12C
:1046C00007006462A061E76484F85070524649466E
:1046D000404600F091F82060002E00D03460BDE824
:1046E000F087000030B5114900E011460A688242A7
:1046F000FBD34B685C18844203D14068184448607F
:10470000084643681C18944209D1084C103C2468A0
:10471000A24209D052681A4442600A6812680260D4
:10472000814200D0086030BD0460F9E764000020D9
:1047300006484168096829B14168C968C96849687B
:10474000016370474FF0FF31FAE7000018000020C6
:10475000502080F31188BFF34F8FBFF36F8FFEE7B8
:104760002DE9F0410546002700F040F9214E306860
:1047700008B9FFF719FFF068054236D1ADB3083527
:10478000680704D005F00700C0F10800054465B3D0
:104790007068854229D81748103001460C6801E03E
:1047A00020460C466168A94202D221680029F7D14F
:1047B00031688C4219D00768216801606068083749
:1047C000411B102904D9601941606560FFF78AFF19
:1047D00061687068401A7060B268904200D2B06040
:1047E000F06801430020C4E9000100F09BFA38465C
:1047F000BDE8F0815400002010B5031F4FF0807415
:104800001C601B1F21F001011960191F024B0B6076
:10481000143940380A6010BD51470008D0E9013210
:1048200001699A60D0E901235A604A68824201D145
:1048300082684A60002202610868401E08600868B9
:1048400070470000034B036003F1540008608020B0
:1048500010607047CC01002000F108014FF0FF32DA
:10486000C0E90112C16001610021016070470021AF
:104870000161704730B50B685A1C02D000F1080284
:1048800002E0026904E02246546825689D42FAD994
:1048900053684B6099608A60516008610168491CE7
:1048A000016030BD42684A6093688B6093685960CC
:1048B000916008610168491C01607047502080F3D5
:1048C0001188BFF34F8FBFF36F8F02480168491CF7
:1048D000016070476C00002003490868401E0860B2
:1048E00001D180F3118870476C00002070B500285A
:1048F00018D00D4DA0F108046068E968084211D095
:104900002268002A0ED18843606000F06FF860686A
:104910006968084468602046FFF7E4FEBDE870401F
:1049200000F000BA70BD0000540000204FF0E020FD
:1049300000210161816105494FF47A720968B1FB78
:10494000F2F1491E41610721016170471400002006
:1049500010B5020009D000F049F800211046FFF719
:1049600071FD00F0DFF9002807D104494FF08050B5
:104970000860BFF34F8FBFF36F8F10BD04ED00E0F1
:1049800010B586B00024039405AA04A903A80494D2
:10499000FFF758FFDDE903010094CDE90110002382
:1049A0000EA11048059A00F008F90F490028486345
:1049B00011D0502080F31188BFF34F8FBFF36F8F5A
:1049C0004FF0FF3008630120C8614C6106B0BDE8BC
:1049D000104000F035B806B010BD000049444C4509
:1049E00000000000F5450008180000200248816B17
:1049F000491C816370470000180000200E48816B3D
:104A000011B10121416270470021416281690B4A65
:104A1000B1FA81F1C1F11F0101EB810102EB8101CA
:104A200001F108034A6852684A609A4201D152680B
:104A30004A60D1680160704718000020840500209A
:104A4000094810B5016841F470010160016841F046
:104A500070410160FFF76AFF044900200860FBF71E
:104A600063FB002010BD000020ED00E06C00002082
:104A700010B5502080F31188BFF34F8FBFF36F8FB5
:104A800000F0C4F818B104494FF0805008600020CD
:104A900080F3118810BD000004ED00E0F8B5174662
:104AA0000E00054613D005FB06F04830FFF758FE10
:104AB00004000AD0002084F8460004F148023B4676
:104AC000314628460094FFF7C5FD2046F8BD00207A
:104AD000EBE738B51C00049D06D0012384F846306E
:104AE0002B460094FFF7B6FD204638BD70B50D4645
:104AF0000446FFF7E3FED4E90F12206801FB020031
:104B000060600020A0632068A0600146E06B401E4A
:104B100000FB0210E0604FF0FF3084F8440084F89E
:104B2000450004F110004DB1FFF796FE04F124009A
:104B3000FFF792FEFFF7D0FE012070BD216900292A
:104B4000F8D000F0BDF80028F4D004494FF08050B0
:104B50000860BFF34F8FBFF36F8FEBE704ED00E00A
:104B60002DE9FF5F8346DDE90E87994616468A46A2
:104B70009000FFF7F5FD05001CD05420FFF7F0FD75
:104B8000040014D00020256384F85100CDE90240D0
:104B9000CDE900874B46324651465846FFF765FD42
:104BA0002046FFF787FC012004B0BDE8F09F2846AF
:104BB000FFF79CFE4FF0FF30F6E7F0B585B000261A
:104BC000DDE90B540A9F7CB175B12563022584F899
:104BD000515004AD00970396CDE90154FFF745FD10
:104BE0002046FFF767FC00E00496049805B0F0BD8E
:104BF0000548C16919B1806B18B1002070470120C8
:104C00007047022070470000180000202DE9F04195
:104C1000294C0027A06B40B1206A401C2062606ACA
:104C200000B101273846BDE8F0816669761C6661EF
:104C300008D16068A1686160A060A06A401CA062A1
:104C4000FFF776FD206BDFF87480864209D3606839
:104C5000006880B16068C068C568686886420DD227
:104C600020632068C06A00EB800158F82100012809
:104C7000D5D90127D3E74FF0FF30F1E7281DFFF723
:104C8000CDFDA86A18B105F11800FFF7C7FDE86A65
:104C90000121A26981401143A16100EB800108EB71
:104CA0008100291DFFF7FEFDE86A2168C96A884274
:104CB000CDD30127CBE70000180000208405002099
:104CC0002DE9F041C068C46804F118000746FFF7F9
:104CD000A5FD124DA86B012668B11148394600BFE9
:104CE000FFF7E0FDE06A2968C96A884214D901200B
:104CF0006E62BDE8F081201DFFF790FDE16AAA69B0
:104D000006FA01F01043A86101EB81000449B439AF
:104D100001EB8000211DE3E70020EAE718000020F6
:104D2000380600202DE9F04700242646FFF7C6FD8F
:104D3000264DA86B401EA863A86BE0BB2969244FD1
:104D40000120C1B3A7F1B40980463868E8B1F8681A
:104D5000C46804F11800FFF761FD201DFFF75EFD38
:104D6000E06AAA6908FA00F11143A96100EB800129
:104D700009EB8100211DFFF795FDE06A2968C96AEA
:104D80008842E2D3C5F82480DFE70CB1FFF7D0FCFE
:104D90002C6A4CB14FEA0807FFF738FF00B16F6289
:104DA000641EF9D100202862686A20B109490126F1
:104DB0003007086000E003E0BFF34F8FBFF36F8F51
:104DC000FFF78AFD3046BDE8F0870000180000209C
:104DD0003806002004ED00E00200000002000000A0
:104DE00000000000000000001C4E0008290300081D
:104DF000FDFF0000000000000001000000000000B6
:104E00000000000000000000000000000102030498
:104E100006070809000000000102030444656661FA
:104E2000756C745461736B00484E000800000020DC
:104E3000CC010000CE020008244F0008CC01002065
:104E40006C380000DC3F00088132018210035524D9
:104E5000F41AAA0113A1271B08E1041AED04131187
:104E6000281B084D041A710C1AAD04170403090419
:104E700012013202164083042B571D0201020399CE
:104E8000031A1A0313552B1B0801041A8104818B82
:104E9000F52A0C811A3D201A31041A49041A2504F6
:104EA000140902221301011DE0320904FD1403015B
:104EB0000215092111011401224A16070581030474
:104EC000220A091F240A21072429486912314B0AA2
:104ED00006E019D711100A05010902A1010901A173
:104EE000100805091901290315180F2501950375E7
:104EF00001810295017505810120281730093109CA
:104F0000381581257F750895038106C0093C05FF8A
:104F1000090129600E75019502B12275069501B14E
:044F200001C00000CC
:04000005080000ED02
:00000001FF
