:020000040800F2
:10000000E81B00209D01000873140008A5100008DB
:10001000711400082D0200083117000800000000CC
:1000200000000000000000000000000005010008C2
:100030002F020008000000004901000879140008A0
:10004000B7010008B7010008B7010008B7010008B0
:10005000B7010008B7010008B7010008B7010008A0
:10006000B7010008B7010008B7010008B701000890
:10007000B7010008B7010008B7010008B701000880
:10008000B7010008B7010008B7010008B701000870
:10009000B7010008B7010008B7010008B701000860
:1000A000B7010008B7010008B7010008B701000850
:1000B000B7010008B7010008B7010008B701000840
:1000C000B7010008B7010008B7010008B701000830
:1000D000B7010008B7010008B7010008B701000820
:1000E00031020008B7010008B7010008DFF810D09E
:1000F00000F08AF80048004781170008AFF300803D
:10010000E81B0020224B19680868B0E8F00F80F364
:100110000988BFF36F8F4FF0000080F311884EF015
:100120000D0E70470000000006480068006880F36C
:10013000088862B661B6BFF34F8FBFF36F8F00DFE1
:1001400000BF00BF08ED00E0EFF30980BFF36F8F41
:100150000F4B1A6820E9F00F106008B54FF05000FF
:1001600080F31188BFF34F8FBFF36F8F01F05CFEF8
:100170004FF0000080F31188BDE808401968086856
:10018000B0E8F00F80F30988BFF36F8F704700BFAE
:1001900014000020EFF305807047000006488047F8
:1001A00006480047FEE7FEE7FEE7FEE7FEE7FEE75C
:1001B000FEE7FEE7FEE7FEE709150008ED00000890
:1001C00040EA01039B0703D009E008C9121F08C0D9
:1001D000042AFAD203E011F8013B00F8013B521E59
:1001E000F9D27047D2B201E000F8012B491EFBD2D0
:1001F00070470022F6E710B513460A460446194632
:10020000FFF7F0FF204610BD064C074D06E0E06802
:1002100040F0010394E8070098471034AC42F6D34D
:10022000FFF768FF1021000830210008FEE7704743
:1002300010B54FF4805000F035F84FF4005000F046
:1002400031F8BDE810404FF4804000F02BB872B692
:10025000FEE70022AFF3008010B4844601200F4B6C
:100260005C7A012C17D8587A00241C54587A03EB76
:100270008000C0F804C0587A03F1080C00F80C2084
:10028000587A421C5A72303008703A2048702F2039
:100290008870CC70002010BC70470000DC17002074
:1002A00070470000044910B50A68024202D0086095
:1002B000FFF7F6FF10BD0000140401402DE9F84FD0
:1002C000DFF8B891002409F1040A0AF1040B23466F
:1002D0000F270BF1040EC9E00125A5402A40AA42D0
:1002E0007DD1674ED1F804C0ACEB0608B44532D0DE
:1002F00014DCBCF1030F3AD009DCBCF1000F2AD0AA
:10030000BCF1010F1CD0BCF1020F31D11DE0BCF1DA
:10031000110F17D0BCF1120F2AD119E0B8F5881FC0
:1003200019D006DCB8F5803F15D0B8F5801F1FD175
:1003300011E0B8F5001F0ED0B8F5041F18D10AE07F
:10034000CB6815E0CB681B1D12E0CB6808330FE0CB
:10035000CB680C330CE08B682BB1012B4FF00803FA
:1003600003D0456104E0042302E0056100E00023BE
:10037000FF2A01D8064601E000F104064FEA840591
:1003800001D9A5F12005D6F8008007FA05FC28EA76
:100390000C0803FA05F548EA0508C6F800804D6820
:1003A000ED0062D5374DAE6946F00106AE61AD692C
:1003B00024F0030605F001050095334D06EB050C0E
:1003C000DCF80850A607360F07FA06F825EA0805F4
:1003D000DFF8B880404503D14FF0000817E044E053
:1003E000DFF8AC80404502D14FF001080FE0DFF8A4
:1003F000A480404502D14FF0020808E0DFF8988061
:10040000404502D14FF0030801E04FF0040808FA1C
:1004100006F848EA0508CCF808804D68D9F800606D
:10042000ED034D4601D5164300E096432E604D681E
:10043000DAF80060AD03554601D5164300E0964357
:100440002E604D68DBF80060ED025D4601D5164375
:1004500000E096432E604D68DEF80060AD02754600
:1004600001D5164300E096432E60641C0D682A46B1
:10047000E5407FF431AFBDE8F88F00000004014093
:10048000000011100010024000000140000801406F
:10049000000C01400010014000140140C26821EA34
:1004A00002030A4043EA0241016170470AB1016157
:1004B00070470904FBE700000148806870470000AE
:1004C000040000200248816802781144816070476E
:1004D00004000020074810B5016841F010010160D8
:1004E000032000F071F80F2000F006F800F024F867
:1004F000002010BD0020024070B50D4D04464FF4A1
:100500007A712878B1FBF0F00A490968B1FBF0F084
:1005100000F0D4FB48B9102C07D200222146501E0F
:1005200000F032F800206C6070BD012070BD00004A
:1005300004000020100000200B4882B0816941F0C7
:1005400001018161816901F001010091C16941F0FE
:100550008051C161C069002200F0805000900F21DD
:10056000901E02B000F010B800100240002809DB15
:1005700000F01F02012191404009800000F1E020BD
:10058000C0F8001170470000F0B40E4B1B680C4619
:10059000C3F30223C3F10705042D00D90425191D57
:1005A000072901D2002300E0DB1E012606FA05F12F
:1005B000491E214099409E40761E16403143F0BCB2
:1005C00001F0B7B80CED00E0064900F0070208683A
:1005D0004FF6FF03184040EA0220034A1043086028
:1005E000704700000CED00E00000FA052DE9F04135
:1005F00086B0040004D094F8A902002520B108E0D8
:10060000012006B0BDE8F08184F8A852204600F031
:100610005BF8032084F8A902206801F06AF804F16D
:100620001001142288466846FFF7CAFD94E80F00BF
:1006300001F052F80226D0BB0021206801F060F8DA
:10064000002001270FE000BF00EB800104EBC10197
:1006500081F8297001F8280FC881CD700D614D61B6
:10066000401CC0B28D6161688142EDD8002011E06C
:1006700000EB800104EBC10181F8695181F8680148
:1006800081F86B51C1F87851C1F87C51401CC0B25F
:10069000C1F8805161688142EAD814224146684617
:1006A000FFF78EFD94E80F0001F01AF810B184F8FE
:1006B000A962A5E784F8245084F8A972206801F0A3
:1006C0000DF800209DE7000008B500680649884243
:1006D00008D10648C16941F40001C161C06900F454
:1006E0000000009008BD0000005C004000100240C7
:1006F0002DE9F84305460078354CC00754D0E06931
:100700000026C00008D4E06940F08050E061E06954
:10071000012600F0805000902E480168C90512D4CF
:100720000168804641F480710160FFF7C5FE07460D
:1007300005E000BFFFF7C0FEC01B642823D8D8F82F
:100740000000C005F6D5206A10F4407021D0A988B9
:1007500001F4407181421CD0206A1F49012220F41B
:1007600040700A6000220A602062C00711D0FFF7C3
:10077000A3FE074641F2883808E000BFFFF79CFE61
:10078000C11B414502D90320BDE8F883206A8007D8
:10079000F4D5206A696820F44070084320621EB1D5
:1007A000E06920F08050E0612878800705D5606816
:1007B000A96820F44040084360602878C00605D549
:1007C0006068E96820F48000084360600020DBE78F
:1007D0000010024000700040400442427047000098
:1007E0002DE9F0470F46050061D0434E306800F018
:1007F0000700B84209D2306820F007003843306063
:10080000306800F00700B84251D128683B4C81079E
:1008100012D5400703D5606840F4E0606060287836
:10082000000703D5606840F4605060606068A968A4
:1008300020F0F000084360602878C00728D068687E
:10084000012810D02168022810D0890700292EDA4B
:10085000616821F0030101436160FFF72DFE8046CE
:1008600041F288390DE021688903EFE78901EDE75E
:10087000FFF722FEA0EB0801494502D90320BDE89D
:10088000F0876068696800F00C00B0EB810FEFD171
:10089000306800F00700B8420BD9306820F007003C
:1008A00038433060306800F00700B84201D00120C2
:1008B000E5E72878400705D56068E96820F4E0603E
:1008C000084360602878000706D56068296920F42D
:1008D000605040EAC100606000F01EF86168084A9C
:1008E000C1F30311515CC84006490860064800681E
:1008F000FFF702FE0020C2E7002002400010024085
:10090000F820000810000020080000200149012004
:10091000C86470470000424212A185B00FC98DE83B
:100920000F0014A0144A006804905168134801F0A5
:100930000C03042B10D0082B0ED1C1F38343C90341
:100940001DF803000AD5516804AAC1F34041515C67
:100950000A4A5043B0FBF1F005B0704708494843DC
:10096000FAE7000002030405060708090A0B0C0D4C
:100970000E0F1010010200000010024000127A0059
:1009800000093D0010B5044CA068000603D5FFF730
:1009900025FF8020A07210BD001002402DE9F84F05
:1009A000040070D02078C04DC00749D06868C0F3FB
:1009B0008100012807D06868C0F38100022809D1AE
:1009C0006868C00306D52868800339D560680028A8
:1009D000E7D035E06068B0F5803F0BD010B1B0F5DE
:1009E000A02F11D0286820F480302860286820F4D7
:1009F000802002E0286840F480302860606890B170
:100A0000FFF75AFD06460AE0286840F48020286077
:100A1000F0E700BFFFF750FD801B642873D82868FB
:100A20008003F7D50CE0FFF747FD064605E000BF61
:100A3000FFF742FD801B6428F0D828688003F7D4B4
:100A400020789A4E80074FF001094FF0000839D501
:100A5000686810F00C0F07D06868C0F381000228A6
:100A600009D16868C00306D42868800714D52069B6
:100A7000012808D110E02069B0B1C6F80090FFF756
:100A80001BFD074605E00AE1FFF716FDC01B022823
:100A9000C4D828688007F7D52868616920F0F80075
:100AA00040EAC10028600DE0C6F80080FFF704FDB1
:100AB000074604E0FFF700FDC01B022823D8286882
:100AC0008007F7D4207800072CD57948A169D9B1DF
:100AD000C0F80090FFF7F0FC074604E0FFF7ECFCDD
:100AE000C01B02280FD8686A8007F7D571484FF4F9
:100AF000FA510068B0FBF1F0009000BF0098411E71
:100B00000091FAD20EE080E0C0F80080FFF7D4FC3C
:100B1000074604E0FFF7D0FCC01B022875D8686ABE
:100B20008007F7D42078400760D5E8690027C00027
:100B300008D4E86940F08050E861E869012700F0D6
:100B4000805000905C480168C90513D40168834651
:100B500041F480710160FFF7AFFC824606E000BF00
:100B6000FFF7AAFCA0EB0A0064284ED8DBF80000CF
:100B7000C005F5D5E06801280AD008B1052813D0D2
:100B8000286A20F001002862286A20F0040002E0B0
:100B9000286A40F001002862E06841F2883B98B181
:100BA000FFF78AFC82460BE0286A40F004002862C6
:100BB000EEE700BFFFF780FCA0EB0A0159455AD8C9
:100BC000286A8007F6D50CE0FFF776FC824605E040
:100BD000FFF772FCA0EB0A0159454CD8286A800740
:100BE000F6D41FB1E86920F08050E861E06988B36D
:100BF0006968C1F38101022944D00228C6F86080E7
:100C000004D0FFF759FC044638E034E0FFF754FC09
:100C1000074604E0FFF750FCC01B02282BD82868C9
:100C20008001F7D4206AB0F5803F05D16868A168DB
:100C300020F4003008436860D4E90801084369687B
:100C400021F4741108436860C6F86090FFF734FC23
:100C5000044606E025E000BFFFF72EFC001B02283B
:100C600009D828688001F7D51BE000BFFFF724FCF6
:100C7000001B022802D90320BDE8F88F28688001F4
:100C8000F4D40EE00128F7D06868226A00F48031BD
:100C9000914204D1616A00F47010884201D00120B1
:100CA000EAE70020E8E700000010024000004242AE
:100CB00080044242100000200070004010B5401E29
:100CC000B0F1807F01D3012010BD4FF0E0246061BE
:100CD0000F21601700F02DFD0020A061072020618A
:100CE000002010BD10B590F83C20012A22D001222E
:100CF00080F83C20CA688C6822F4407222434C6819
:100D000022F4806222430C6822F4006222430C69C0
:100D100022F4805222434C6922F400522243C969D2
:100D2000002322F480420A4301684A6480F83C3080
:100D3000002010BD022010BD70B590F83C20012AA3
:100D400026D0012480F83C40022280F83D20036830
:100D50005A689D6822F070060A6832435A600D4B4B
:100D600002689A4208D0B2F1804F05D00A4B9A42ED
:100D700002D00A4B9A4204D1496825F080031943F6
:100D8000916080F83D40002180F83C10084670BD1D
:100D9000022070BD002C014000040040000800400B
:100DA00030B585B000210091019102910391006856
:100DB0002B4B2C4902242C4A984209D1886940F0D7
:100DC00004008861886900F00400049088152AE016
:100DD000B0F1804F1ED0254B254D98422CD188690B
:100DE00040F004008861886900F00400049088697C
:100DF00040F0080088618869694600F008000490A6
:100E0000C020CDE9000410460394FFF757FA009480
:100E1000019420E0886940F004008861886900F04E
:100E2000040004900B20CDE90004694610460394A9
:100E3000FFF744FA05B030BD0E4A9042FAD18869F6
:100E400040F008008861886900F0080004904FF4C1
:100E50003070CDE90004694628460394E8E70000B5
:100E6000002C014000100240000801400004004036
:100E7000000C01400008004070B5044690F83C00AA
:100E80000D4601280AD0012084F83C0042B1042A12
:100E900018D0082A2AD00C2A4DD139E0022070BD82
:100EA000206800F077FB2068816941F008018161CA
:100EB0002068816921F004018161206881692A69C3
:100EC000114311E0206800F08DFB2068816941F436
:100ED000006181612068816921F4806181612068FD
:100EE00081692A6941EA0221816124E0206800F0D9
:100EF000A5FB2068C16941F00801C1612068C16992
:100F000021F00401C1612068C1692A69114311E01F
:100F1000206800F0BFFB2068C16941F40061C16135
:100F20002068C16921F48061C1612068C1692A69B2
:100F300041EA0221C161002084F83C0070BD10B577
:100F4000040003D094F83D0010B107E0012010BD6B
:100F5000002084F83C00204600F01EF8022084F8AF
:100F60003D00211D206800F0D1FA012084F84600E0
:100F700084F83E0084F83F0084F8400084F8410083
:100F800084F8420084F8430084F8440084F8450063
:100F900084F83D00002010BD08B5174A01681748C5
:100FA000914207D1816941F400618161806900F457
:100FB000006014E0B1F1804F0AD0114A914210D183
:100FC000C16941F00201C161C06900F0020006E0A0
:100FD000C16941F00101C161C06900F001000090E8
:100FE00008BD084A9142FBD1C16941F00401C161C9
:100FF000C06900F00400F2E7002C0140001002403C
:10100000000400400008004010B50446022249B127
:1010100004290ED0082913D094F84100012816D0D5
:10102000012010BD94F83E000128F9D184F83E203B
:101030000FE094F83F000128F2D184F83F2008E047
:1010400094F840000128EBD184F8402001E084F8B6
:1010500041200122206800F08FFA0F492068884261
:1010600003D1426C42F4004242642068884208D0B6
:10107000B0F1804F05D00949884202D00849884222
:1010800004D1816801F00701062903D0016841F00D
:1010900001010160002010BD002C0140000400404F
:1010A00000080040FEE70000114F124CDFF848A096
:1010B00000264FF4FA7B4FF4617540F2DE3840F2BF
:1010C000E73900BF00F054FB584600F0A7FB386832
:1010D0004563206845632168C1F838802168C1F8FC
:1010E00040904FF47A7000F099FBCAF80060E9E78D
:1010F000E002002028030020342C014010B50349F1
:101100000348FFF7A6F80349087010BD85000020CA
:10111000700000208400002000B587B01C22064922
:101120006846FFF74DF80021684600F083FB03494D
:10113000086007B000BD0000DC20000800000020AF
:1011400070B586B00024254800940194029403945D
:10115000816941F010018161816901F01001049100
:10116000816941F020018161816901F020010491D0
:10117000816941F004018161816901F004010491F8
:10118000816941F0080181618069154E00F0080015
:101190004FF400550490002229463046FFF786F9A7
:1011A00001200095CDE901040224694630460394EC
:1011B000FFF784F84FF4E04000900A48CDE90104BD
:1011C00069460948FFF77AF8002205212820FFF731
:1011D000DBF92820FFF7CAF906B070BD0010024005
:1011E0000010014000001110000C014010B592B039
:1011F00000240F941C2108A81094FEF7FAFF202168
:101200006846FEF7F6FF20481E4901608021C0E9CC
:10121000011440F2E731C0E9031444618461FFF72F
:101220008EFE08B1FFF713F80F940FA9164810941B
:10123000FFF782FD08B1FFF70AF86020CDE9080446
:101240000A940B940C940D94002208A90E480E9455
:10125000FFF712FE08B1FEF7FAFF00944FF40050BA
:10126000CDE904400294019403946946064807942A
:10127000FFF738FD08B1FEF7EAFF0348FFF790FDDE
:1012800012B010BD002C0140E002002010B58AB061
:10129000002407941C2168460894FEF7AAFF1E4804
:1012A0004FF0804101608021C0E9011440F2E73134
:1012B000C0E903148461FFF742FE08B1FEF7C7FFDF
:1012C000079407A914480894FFF736FD08B1FEF704
:1012D000BEFF6020CDE900040294002269460E485A
:1012E0000494FFF7C9FD08B1FEF7B1FF0422694677
:1012F0000948FFF7C1FD08B1FEF7A9FF0C226946B6
:101300000548FFF7B9FD08B1FEF7A1FF0248FFF756
:1013100047FD0AB010BD00002803002010B58AB0B8
:10132000002407941C2168460894FEF762FF1E48BB
:101330001C4901608021C0E9011440F2E731C0E995
:1013400003148461FFF7FBFD08B1FEF780FF0794EB
:1013500007A915480894FFF7EFFC08B1FEF777FFDF
:101360006020CDE900040294002269460E480494EE
:10137000FFF782FD08B1FEF76AFF042269460A48BA
:10138000FFF77AFD08B1FEF762FF0C2269460648B6
:10139000FFF772FD08B1FEF75AFF0348FFF700FDA3
:1013A0000AB010BD000400407003002010B58AB0E0
:1013B000002407941C2168460894FEF71AFF1E4873
:1013C0001C4901608021C0E9011440F2E731C0E905
:1013D00003148461FFF7B3FD08B1FEF738FF0794EB
:1013E00007A915480894FFF7A7FC08B1FEF72FFFDF
:1013F0006020CDE900040294002269460E4804945E
:10140000FFF73AFD08B1FEF722FF042269460A48B9
:10141000FFF732FD08B1FEF71AFF0C2269460648B5
:10142000FFF72AFD08B1FEF712FF0348FFF7B8FCEB
:101430000AB010BD00080040B80300200B4810B5EA
:101440000949016008214160022181600021816118
:10145000C1610162FFF7CAF8002803D0BDE810405F
:10146000FEF7F5BE10BD0000005C00400004002047
:10147000FEE7FFF787FAFEE710B5FFF723F800F065
:101480006BFD012803D0BDE8104000F007BD10BD82
:1014900030B593B028216846FEF7ABFE14210AA8A8
:1014A000FEF7A7FE002401200F941094119401046C
:1014B00012948DE8130004904FF46010CDE90810E9
:1014C000022507956846FFF769FA08B172B6FEE78C
:1014D0000F20CDE90A054FF48060CDE90C400221D0
:1014E0000AA80E94FFF77CF908B172B6FEE7102047
:1014F0000F9012940FA8FFF7FBF808B172B6FEE741
:10150000FFF704FA13B030BD70470000F0B5026871
:10151000164B174C174D4FF08047984205D0B842F4
:1015200003D0A04201D0A84203D122F070064A683D
:101530003243984205D0B84203D0A04201D0A8421D
:1015400003D122F44074CA6822434C6922F080021D
:10155000224302608A68C2620A688262984201D1AC
:101560000969016301214161F0BD0000002C0140C7
:10157000000400400008004010B501F01F030121E5
:10158000046A99408C430462016A9A4011430162E3
:1015900010BD000030B5026A22F001020262026A48
:1015A0004368846924F073050C682C4322F002051B
:1015B0008A682A430A4DA8420BD122F00805CA685E
:1015C00023F440732A434D6922F004021D438B69C2
:1015D0002B434360846149684163026230BD00006F
:1015E000002C014030B5026A22F010020262026A49
:1015F000436884690D6824F4E64444EA05248D6850
:1016000022F0200242EA05120B4DA8420ED1CD680D
:1016100022F0800242EA05124D6923F4406343EA56
:1016200085038D6922F0400243EA850343608461AB
:1016300049688163026230BD002C014030B5026A06
:1016400022F480720262036A4268C46923F4007360
:1016500024F073050C682C438D6843EA05230C4D78
:10166000A8420ED1CD6823F4006343EA05234D69F7
:1016700022F4405242EA05128D6923F4806342EA63
:1016800005124260C4614968C163036230BD000055
:10169000002C014030B5026A22F480520262046AD2
:1016A0004268C3690D6823F4E64343EA05238D6865
:1016B00024F4005444EA0534064DA84204D14D698F
:1016C00022F4804242EA85124260C36149680164A3
:1016D000046230BD002C014000207047002070479C
:1016E000012120F8401F00210180818001820846ED
:1016F000704730F8401F21F43F41018000207047BF
:1017000000207047024801210170007870470000F6
:101710006C00002001207047002070470248012122
:1017200001700078704700006C00002000207047B6
:10173000FEE70907090E002804DB00F1E02080F82D
:101740000014704700F00F0000F1E02080F8141D35
:10175000704702E008C8121F08C1002AFAD170477A
:101760007047002001E001C1121F002AFBD1704721
:101770004FF400510148FEF791BE000000100140F7
:10178000FEF7A8FEFFF784FEFFF7DAFCFFF7B6FCD2
:10179000FFF72CFDFFF77AFDFFF7C0FDFFF706FE10
:1017A000FFF74CFE00211648FFF72EFC00211548DC
:1017B000FFF72AFC04211348FFF726FC0C211148EF
:1017C000FFF722FC00211048FFF71EFC04210E4801
:1017D000FFF71AFC0C210C48FFF716FC00210B4800
:1017E000FFF712FC04210948FFF70EFC0C21074803
:1017F000FFF70AFCFFF790FC00F017F8FEE7000087
:10180000E00200202803002070030020B80300201D
:1018100001460020842900D0C81C704710B500B9CB
:10182000012000F0ABFA002010BD10B500F0BEFAA8
:10183000002010BD7FB50D4604464169B0F908008F
:1018400081B1A16971B1FFF7E3FFD4E905128DE819
:101850000700D4E900102B46226900F062FB0390D8
:1018600004B070BDFFF7D4FF03A9CDE90001208AC1
:101870002B4682B2D4E9001000F026FB012801D0EB
:101880000020EDE70398EBE72DE9F041184C0F46F7
:10189000054666692068001D00F0D6F938B9206851
:1018A00090F82C1001208840A1698143A161681C37
:1018B00007D137B12168BDE8F0410E48091D00F09D
:1018C00007BA20683544B5424560216805D2A06852
:1018D000BDE8F041091D00F0E3B96068091D00F0A2
:1018E000DFF9206B854200D22563BDE8F08100005E
:1018F00014000020C80700202DE9F041054600F043
:10190000F3F92E4C2069401C206120682C4F10B147
:10191000E06940B32DE025602069012829D1002627
:1019200006EB860007EB800000F0ACF9761C072E72
:10193000F6D323488C3000F0A5F92148A03000F000
:10194000A1F91F48B43000F09DF91D48C83000F0DF
:1019500099F91B48DC3000F095F919488C3060602B
:101960001430A06005E02068E96AC06A884200D8A7
:101970002560E06A401CE062E96A0120A2698840B3
:101980001043A06101EB810007EB8000291D00F0EE
:101990009FF900F0B7F9E06900280CD02068E96AE7
:1019A000C06A884207D207494FF080500860BFF3F1
:1019B0004F8FBFF36F8FBDE8F0810000140000204F
:1019C000EC06002004ED00E010B5044690F851004C
:1019D00030B1012808D12046BDE8104000F09CB984
:1019E000206B00F099F9F6E710BD000010484FF4A5
:1019F0008051420706D0C01D0D4920F00700411A52
:101A0000C1F580510B4A00230144C2E900030839A3
:101A1000103A21F0070111604B600B600B1AC0E90E
:101A2000001393604FF000405360D0607047000097
:101A3000DC07002060000020144E154CA6F1C807FA
:101A40004FF08058DFF84C9012E000BF00F04CF9E6
:101A5000F068C568281D00F0F7F82069401E206175
:101A6000E068401EE06000F04DF92846FFF7ACFF4B
:101A7000E0680028EAD138680128F9D9C9F800805F
:101A8000BFF34F8FBFF36F8FF2E70000B407002062
:101A90001400002004ED00E02DE9F0479A46DDE94E
:101AA000096481466FF00303206B03EB820210444C
:101AB000089D20F00708002023180A5C83F83420D2
:101AC0000A5C12B1401C1028F6D3002784F843703A
:101AD000072D00D30625E562C4E91157201D00F04B
:101AE000DCF804F1180000F0D8F82461C5F1070013
:101AF0006462A061E76484F85070524649464046EB
:101B000000F090F82060002E00D03460BDE8F0872F
:101B100030B5114900E011460A688242FBD34B6898
:101B20005C18844203D14068184448600846436802
:101B30001C18944209D1084C103C2468A24209D0D8
:101B400052681A4442600A6812680260814200D0FA
:101B5000086030BD0460F9E7600000200648416875
:101B6000096829B14168C968C96849680163704753
:101B70004FF0FF31FAE7000014000020502080F3FE
:101B80001188BFF34F8FBFF36F8FFEE72DE9F04150
:101B90000546002700F040F9214E306808B9FFF7EC
:101BA00025FFF068054236D1ADB30835680704D08B
:101BB00005F00700C0F10800054465B37068854270
:101BC00029D81748103001460C6801E020460C4621
:101BD0006168A94202D221680029F7D131688C429C
:101BE00019D007682168016060680837411B102917
:101BF00004D9601941606560FFF78AFF6168706809
:101C0000401A7060B268904200D2B060F068014340
:101C10000020C4E9000100F007FA3846BDE8F08171
:101C20005000002010B5031F4FF080741C601B1F74
:101C300021F001011960191F024B0B601439403863
:101C40000A6010BD7D1B0008D0E9013201699A606D
:101C5000D0E901235A604A68824201D182684A6011
:101C6000002202610868401E086008687047000092
:101C7000034B036003F1540008608020106070473C
:101C80008C00002000F108014FF0FF32C0E9011282
:101C9000C16001610021016070470021016170474E
:101CA00030B50B685A1C02D000F1080202E002694C
:101CB00004E02246546825689D42FAD953684B6077
:101CC00099608A60516008610168491C016030BDFB
:101CD00042684A6093688B609368596091600861BC
:101CE0000168491C01607047502080F31188BFF3E0
:101CF0004F8FBFF36F8F02480168491C0160704726
:101D00006800002003490868401E086001D180F384
:101D1000118870476800002070B5002818D00D4D5C
:101D2000A0F108046068E968084211D02268002A1E
:101D30000ED18843606000F06FF8606869680844FD
:101D400068602046FFF7E4FEBDE8704000F06CB923
:101D500070BD0000500000204FF0E0200021016124
:101D6000816105494FF47A720968B1FBF2F1491EAD
:101D700041610721016170471000002010B5020089
:101D800009D000F049F800211046FFF77DFD00F072
:101D90004BF9002807D104494FF080500860BFF389
:101DA0004F8FBFF36F8F10BD04ED00E010B586B00C
:101DB0000024039405AA04A903A80494FFF758FF7C
:101DC000DDE903010094CDE9011000230EA11048C4
:101DD000059A00F0A6F80F490028486311D050205A
:101DE00080F31188BFF34F8FBFF36F8F4FF0FF3039
:101DF00008630120C8614C6106B0BDE8104000F0E6
:101E000035B806B010BD000049444C450000000044
:101E1000391A0008140000200248816B491C8163B4
:101E200070470000140000200E48816B11B10121A1
:101E3000416270470021416281690B4AB1FA81F128
:101E4000C1F11F0101EB810102EB810101F10803E6
:101E50004A6852684A609A4201D152684A60D16821
:101E60000160704714000020EC060020094810B5FE
:101E7000016841F470010160016841F07041016046
:101E8000FFF76AFF044900200860FEF74DF90020C3
:101E900010BD000020ED00E06800002010B55020CB
:101EA00080F31188BFF34F8FBFF36F8F00F062F89C
:101EB00018B104494FF080500860002080F3118869
:101EC00010BD000004ED00E02DE9FF5F8346DDE971
:101ED0000E87994616468A469000FFF757FE050082
:101EE0001CD05420FFF752FE040014D000202563BC
:101EF00084F85100CDE90240CDE900874B463246D7
:101F000051465846FFF7C8FD2046FFF7F5FC012073
:101F100004B0BDE8F09F2846FFF7FEFE4FF0FF300B
:101F2000F6E7F0B585B00026DDE90B540A9F7CB1D9
:101F300075B12563022584F8515004AD00970396CE
:101F4000CDE90154FFF7A8FD2046FFF7D5FC00E0DE
:101F50000496049805B0F0BD0548C16919B1806BBD
:101F600018B1002070470120704702207047000020
:101F7000140000202DE9F041294C0027A06B40B14E
:101F8000206A401C2062606A00B101273846BDE823
:101F9000F0816669761C666108D16068A16861603D
:101FA000A060A06A401CA062FFF7D8FD206BDFF89C
:101FB0007480864209D36068006880B16068C06838
:101FC000C568686886420DD220632068C06A00EB4D
:101FD000800158F821000128D5D90127D3E74FF017
:101FE000FF30F1E7281DFFF72FFEA86A18B105F1B1
:101FF0001800FFF729FEE86A0121A2698140114318
:10200000A16100EB800108EB8100291DFFF760FE54
:10201000E86A2168C96A8842CDD30127CBE700006E
:1020200014000020EC0600202DE9F047002426468D
:10203000FFF75AFE264DA86B401EA863A86BE0BBB5
:102040002969244F0120C1B3A7F1B409804638683B
:10205000E8B1F868C46804F11800FFF7F5FD201D29
:10206000FFF7F2FDE06AAA6908FA00F11143A961DD
:1020700000EB800109EB8100211DFFF729FEE06ADA
:102080002968C96A8842E2D3C5F82480DFE70CB129
:10209000FFF764FD2C6A4CB14FEA0807FFF76AFFAF
:1020A00000B16F62641EF9D100202862686A20B115
:1020B000094901263007086000E003E0BFF34F8FB5
:1020C000BFF36F8FFFF71EFE3046BDE8F0870000BC
:1020D00014000020A007002004ED00E00821000803
:1020E000A9100008000000000000000080000000AF
:1020F00000000000000000000000000000000000E0
:1021000001020304060708094C45445461736B003F
:1021100030210008000000208C0000005217000849
:10212000BC2100088C0000205C1B00006217000826
:10213000000000000100000010000000000000008E
:102140000024F40000000000000000000000000077
:10215000000000000000000000000000000000007F
:10216000000000000000000000000000000000006F
:10217000000000000000000000000000000000005F
:10218000000000000000000000000000000000004F
:102190000000000000000000AAAAAAAA0100000096
:1021A000051700081D170008191700082D1700084B
:0C21B000151700080000000000000000EF
:04000005080000ED02
:00000001FF
