:020000040800F2
:10000000F04300209D01000823200008C71B0008C2
:1000100021200008AF0200088B3F0008000000000C
:1000200000000000000000000000000005010008C2
:10003000B102000800000000490100083D2300084B
:10004000B7010008B7010008B7010008B7010008B0
:10005000B7010008B7010008B7010008B7010008A0
:10006000B7010008B7010008B7010008B701000890
:10007000B7010008B7010008B7010008B701000880
:10008000B7010008B7010008B7010008B701000870
:10009000153F0008B7010008B7010008B7010008C4
:1000A000B7010008B7010008B7010008B701000850
:1000B000B7010008B7010008B7010008B701000840
:1000C000B7010008B7010008B7010008B701000830
:1000D000B7010008B7010008B7010008B701000820
:1000E000B3020008B7010008B7010008DFF810D01C
:1000F00000F0A0F80048004795410008AFF30080E9
:10010000F0430020224B19680868B0E8F00F80F334
:100110000988BFF36F8F4FF0000080F311884EF015
:100120000D0E70470000000006480068006880F36C
:10013000088862B661B6BFF34F8FBFF36F8F00DFE1
:1001400000BF00BF08ED00E0EFF30980BFF36F8F41
:100150000F4B1A6820E9F00F106008B54FF05000FF
:1001600080F31188BFF34F8FBFF36F8F04F060FFF0
:100170004FF0000080F31188BDE808401968086856
:10018000B0E8F00F80F30988BFF36F8F704700BFAE
:1001900028000020EFF305807047000006488047E4
:1001A00006480047FEE7FEE7FEE7FEE7FEE7FEE75C
:1001B000FEE7FEE7FEE7FEE7CD230008ED000008BE
:1001C00040EA01039B0703D009E008C9121F08C0D9
:1001D000042AFAD203E011F8013B00F8013B521E59
:1001E000F9D27047D2B201E000F8012B491EFBD2D0
:1001F00070470022F6E710B513460A460446194632
:10020000FFF7F0FF204610BD30B50B460146002039
:100210002022012409E021FA02F59D4205D303FAC8
:1002200002F5491B04FA02F52844151EA2F1010249
:10023000F1DC30BD064C074D06E0E06840F00103FC
:1002400094E8070098471034AC42F6D3FFF752FF0A
:10025000305A0008505A000870B58C1810F8015B2D
:1002600015F0070301D110F8013B2A1106D110F84F
:10027000012B03E010F8016B01F8016B5B1EF9D153
:100280002B0705D40023521E0DD401F8013BFAE7D9
:1002900010F8013BCB1A921C03E013F8015B01F844
:1002A000015B521EF9D5A142D8D3002070BDFEE7F4
:1002B000704710B54FF4805000F05AF84FF40050DA
:1002C00000F056F8BDE810404FF4804000F050B800
:1002D00072B6FEE770B50B480168001D0568001D89
:1002E0000068084400280CD0074C0822A11C01F02B
:1002F0006BFC04F112012846BDE87040042201F0B5
:1003000063BC70BDE8F7FF1FCC00002008B50321D7
:100310008DF800104FF48051134A4B00884205D0ED
:1003200098420AD0B0F5804F0FD11AE01946104616
:1003300000F01AF9012806D007E0104600F014F981
:10034000012802D1FF208DF800009DF8000003284D
:1003500006D0064800231A466946006804F030F8C3
:1003600008BD0020EFE70000000C01400C00002059
:10037000044910B50A68024202D00860FFF7C6FFC0
:1003800010BD0000140401402DE9F84FDFF8B891CA
:10039000002409F1040A0AF1040B23460F270BF18C
:1003A000040EC9E00125A5402A40AA427DD1674E2E
:1003B000D1F804C0ACEB0608B44532D014DCBCF173
:1003C000030F3AD009DCBCF1000F2AD0BCF1010FB9
:1003D0001CD0BCF1020F31D11DE0BCF1110F17D0C0
:1003E000BCF1120F2AD119E0B8F5881F19D006DC2C
:1003F000B8F5803F15D0B8F5801F1FD111E0B8F5D2
:10040000001F0ED0B8F5041F18D10AE0CB6815E024
:10041000CB681B1D12E0CB6808330FE0CB680C33B0
:100420000CE08B682BB1012B4FF0080303D0456122
:1004300004E0042302E0056100E00023FF2A01D864
:10044000064601E000F104064FEA840501D9A5F152
:100450002005D6F8008007FA05FC28EA0C0803FA04
:1004600005F548EA0508C6F800804D68ED0062D53C
:10047000374DAE6946F00106AE61AD6924F0030662
:1004800005F001050095334D06EB050CDCF808502E
:10049000A607360F07FA06F825EA0805DFF8B88040
:1004A000404503D14FF0000817E044E0DFF8AC808E
:1004B000404502D14FF001080FE0DFF8A48040452D
:1004C00002D14FF0020808E0DFF89880404502D1E1
:1004D0004FF0030801E04FF0040808FA06F848EA74
:1004E0000508CCF808804D68D9F80060ED034D464A
:1004F00001D5164300E096432E604D68DAF800609F
:10050000AD03554601D5164300E096432E604D6875
:10051000DBF80060ED025D4601D5164300E096432E
:100520002E604D68DEF80060AD02754601D51643B9
:1005300000E096432E60641C0D682A46E5407FF477
:1005400031AFBDE8F88F0000000401400000111039
:10055000001002400000014000080140000C014072
:1005600000100140001401408068084000D00120C4
:100570007047C26821EA02030A4043EA024101616E
:1005800070470AB1016170470904FBE701488068C0
:10059000704700001800002002488168027811446A
:1005A0008160704718000020074810B5016841F0CD
:1005B00010010160032000F071F80F2000F006F830
:1005C00000F024F8002010BD0020024070B50D4D51
:1005D00004464FF47A712878B1FBF0F00A490968B3
:1005E000B1FBF0F001F038F848B9102C07D2002226
:1005F0002146501E00F032F800206C6070BD0120D2
:1006000070BD000018000020240000200B4882B0BC
:10061000816941F001018161816901F0010100916D
:10062000C16941F08051C161C069002200F0805071
:1006300000900F21901E02B000F010B80010024090
:10064000002809DB00F01F020121914040098000D1
:1006500000F1E020C0F8001170470000F0B40E4B2C
:100660001B680C46C3F30223C3F10705042D00D910
:100670000425191D072901D2002300E0DB1E0126F5
:1006800006FA05F1491E214099409E40761E16400B
:100690003143F0BC03F0A0BC0CED00E0064900F0D3
:1006A000070208684FF6FF03184040EA0220034A99
:1006B00010430860704700000CED00E00000FA05F0
:1006C00010B50C0607D501F0070101EB810100EB25
:1006D000C100283005E001EB810100EBC10000F50D
:1006E000B47099B232B1012202730181190C4181B7
:1006F000002010BD00220273C180F9E7704701EBB2
:10070000810200EBC202D0F8E802D26B02F0EEBA2E
:1007100001EB810200EBC202D0F8E802D2F87C21A2
:1007200002F04FBB70B504460B0601F0070000EB6A
:10073000800104EBC1014FF001024FF0000503D529
:1007400081F82920283103E081F8695101F5B4715D
:10075000087094F8A802012808D084F8A82220681C
:1007600002F0D6FF84F8A852002070BD022070BDB0
:1007700070B5044601F00F006268904201D9012073
:1007800070BD0B0601F0070000EB800104EBC10116
:100790004FF001024FF0000503D581F829202831E0
:1007A00003E081F8695101F5B4718D70087094F817
:1007B000A802012808D084F8A822206803F045F890
:1007C00084F8A852002070BD022070BD2DE9F05FB2
:1007D00004685FEA424C0B788D69B4F850C04FF062
:1007E00000064BF68F7948F2800A48F68F7B48F274
:1007F000C00E4FF480672AD54FF0020808EBC308FB
:10080000C44407EB4C07E45BC4F30904A54203D3DB
:100810002D1B8D6101D00BE08E61066836F82350E8
:1008200005EA090585F4005545EA0A0526F823502E
:10083000520609D50D78036833F8252002EA0B0229
:1008400042EA0E0223F8252084B30A8929E04FF0FA
:10085000060808EBC308C44407EB4C07E45BC4F389
:100860000904A54203D32D1B8D6101D00BE08E61DD
:10087000066836F8235005EA090585F4005545EA6F
:100880000A0526F82350520609D40B78056835F876
:10089000232002EA0B0242EA0E0225F823202CB1A3
:1008A0004A8949690068234603F03EFB2046BDE8BB
:1008B000F09F2DE9F05F054600680C465FEA426C48
:1008C00016468B692278B0F850C048F68F774CF204
:1008D00080094FF6FF7B4FF4004E4FF4806A4FF0D3
:1008E00000017BD54FF0020808EBC208E0440AEB98
:1008F000480C30F80C00C0F30900834211D91B1AD0
:10090000A3610FD0730407D52E6836F822303B4020
:1009100043EA090326F8223094F82420012A50D013
:100920004EE1A161607810B1012813D01AE0286867
:10093000B0F85030184400EB0210B0F8042422F450
:10094000F842A0F80424B0F8042442F40042A0F8CD
:10095000042407E02868B0F85030184400EB021077
:10096000A0F804146278286812B1012A11D018E0A6
:10097000B0F850100844217800EB0110B0F80C14C6
:1009800021F4F841A0F80C14B0F80C1441F4004123
:1009900005E0B0F850201044227800EB0210A0F8D7
:1009A0000C1421782846FFF7AAFE7004B8D52178E8
:1009B0002A6832F82100384040EA090022F8210074
:1009C000FEE0626902446261E2690244E261236915
:1009D000226A9A4203D31846111A04E038E084F8D8
:1009E00024100AB110462162617811B1012923D087
:1009F0002BE02968B1F850201144227801EB021154
:100A000001F2044148B13E280FD84208C30700D084
:100A1000521C0BEA82220A8017E00A8822F4F8426C
:100A20000A800A8842F40042F5E74209C30600D171
:100A3000521E4EEA8222EEE72968B1F85020114496
:100A4000227801EB0211A1F8040483B22289B3E0F9
:100A50004FF0060808EBC208E0440AEB480C30F8F7
:100A60000C00C0F30900834211D31B1AA3610FD0FD
:100A7000730407D42E6836F822303B4043EA09035A
:100A800026F8223094F82420012A50D098E0A16161
:100A9000607810B1012813D01AE02868B0F85030FF
:100AA000184400EB0210B0F8042422F4F842A0F835
:100AB0000424B0F8042442F40042A0F8042407E01F
:100AC0002868B0F85030184400EB0210A0F8041465
:100AD0006278286812B1012A11D018E0B0F85010DD
:100AE0000844217800EB0110B0F80C1421F4F8410F
:100AF000A0F80C14B0F80C1441F4004105E0B0F873
:100B000050201044227800EB0210A0F80C14217839
:100B10002846FFF7F4FD700452D42278296831F892
:100B20002200384040EA090021F8220048E06269CA
:100B300002446261E2690244E2612369226A9A42E4
:100B400003D31846111A216204E00AB1104621624B
:100B500084F824106278296812B1012A22D029E091
:100B6000B1F850201144227801EB021101F20C413E
:100B700048B13E280FD84208C30700D0521C0BEAE8
:100B800082220A8016E00A8822F4F8420A800A8843
:100B900042F40042F5E74209C30600D1521E4EEA74
:100BA0008222EEE7B1F850201144227801EB0211C5
:100BB000A1F80C04628983B26169286803F0D2F954
:100BC00021782A6832F8210048F6BF73184080F077
:100BD000300048F28003184322F821000020BDE8CD
:100BE000F09F2DE9F04104460F0601F0070000EBED
:100BF000800104EBC1014FF001064FF0000503D561
:100C000081F82960283103E081F8695101F5B47158
:100C100008700A61CB704A7802B1C881022B00D1FA
:100C20000D7194F8A802012809D084F8A862206800
:100C300002F040FC284684F8A852BDE8F08102206A
:100C4000FBE770B50C4601F0070505EB850100EBED
:100C5000C101C1E95F230022C1F8842181F8692123
:100C600081F8685101F5B4716207006802F042FE34
:100C7000002070BD70B504460D4601F007006168A4
:100C8000884201D9012070BD29064FF000064FF0BF
:100C9000010207D500EB800104EBC10181F8292096
:100CA000283107E005EB850104EBC10181F869619A
:100CB00001F5B4718A70087094F8A802012807D071
:100CC00084F8A822206802F0FCFD680702D006E044
:100CD000022070BD04F52C71206802F0B4FD84F888
:100CE000A862002070BD70B50C4601F0070505EB49
:100CF000850100EBC101C1E90F23012281F84C20DD
:100D00008B6400234B6481F8292001F8285F620777
:100D1000006802F0EFFD002070BD1FB504460068BA
:100D200003F0FEF8000402D5204601F07DF92068AA
:100D300003F0F6F840050CD5206830F8441F21F484
:100D400080610180204600F01FF90021204600F05C
:100D500036F9206803F0E4F8400405D5206830F83F
:100D6000441F21F480410180206803F0D9F88004F9
:100D700005D5206830F8441F21F400510180206817
:100D800003F0CEF8C00414D5206830F8401F21F0DD
:100D900004010180206830F8401F21F00801018023
:100DA000204600F004F9206830F8441F21F48051F7
:100DB0000180206803F0B4F800053ED522680020C9
:100DC000694632F8203021F81030401CC0B20828A3
:100DD000F7D332F8400F40F001001080206830F85F
:100DE000402F22F0010202802068B0F84420520512
:100DF000FBD530F8442F22F4806202800020236863
:100E000031F8102023F82020401CC0B20828F6D367
:100E1000206830F8401F41F008010180206830F858
:100E2000441F21F400610180206830F8401F41F028
:100E300004010180204600F0F7F8206803F070F804
:100E4000800508D5206830F8441F21F40071018026
:100E5000204600F0B0F8206803F062F8C00505D520
:100E6000206830F8441F21F4807101801FBD00000C
:100E70002DE9F04186B0040004D094F8A9020025C1
:100E800020B108E0012006B0BDE8F08184F8A85246
:100E9000204600F05BF8032084F8A902206802F0E5
:100EA000CBFC04F11001142288466846FFF788F94C
:100EB00094E80F0002F02AFC0226D0BB0021206833
:100EC00003F048F8002001270FE000BF00EB80018D
:100ED00004EBC10181F8297001F8280FC881CD7099
:100EE0000D614D61401CC0B28D6161688142EDD8D9
:100EF000002011E000EB800104EBC10181F8695191
:100F000081F8680181F86B51C1F87851C1F87C51C2
:100F1000401CC0B2C1F8805161688142EAD81422F5
:100F200041466846FFF74CF994E80F0002F07BFC5D
:100F300010B184F8A962A5E784F8245084F8A97256
:100F4000206802F06EFC00209DE7000008B50068F4
:100F5000A0F18041B1F5B84112D10A48C16941F40C
:100F60000001C161C06900F4000000900022052169
:100F70001420FFF773FBBDE808401420FFF760BBA7
:100F800008BD00000010024070B504460125A068AD
:100F9000022801D0FFF79CF92946D4F8E80201F0B5
:100FA000ECFFD4F8E802BDE8704001F0A7BFD0F82C
:100FB000E80201F0CCBFD0F8E80201F0D2BF10B5D2
:100FC000044690F8A80201280BD0012084F8A8025A
:100FD00084F82410206802F0BFFF002084F8A802E3
:100FE00010BD022010BDD0F8E82200F52C7110468B
:100FF00001F0CFBF10B5044690F8A802012810D028
:10100000012084F8A802206802F07AFF012120461E
:10101000FFF774FB206802F002FC002084F8A802AD
:1010200010BD022010BD000010B50446D4F8E8023F
:1010300001F0F0FFA069002804D00348016841F0E6
:101040000601016010BD000010ED00E02DE9F8433D
:1010500005460078354CC00754D0E0690026C00032
:1010600008D4E06940F08050E061E069012600F0BA
:10107000805000902E480168C90512D4016880464E
:1010800041F480710160FFF781FA074605E000BF77
:10109000FFF77CFAC01B642823D8D8F80000C005ED
:1010A000F6D5206A10F4407021D0A98801F440716F
:1010B00081421CD0206A1F49012220F440700A603E
:1010C00000220A602062C00711D0FFF75FFA0746CE
:1010D00041F2883808E000BFFFF758FAC11B4145CC
:1010E00002D90320BDE8F883206A8007F4D5206A7E
:1010F000696820F44070084320621EB1E06920F066
:101100008050E0612878800705D56068A96820F4E0
:101110004040084360602878C00605D56068E968EB
:1011200020F48000084360600020DBE700100240EC
:101130000070004040044242704700002DE9F04733
:101140000F46050061D0434E306800F00700B842FA
:1011500009D2306820F0070038433060306800F072
:101160000700B84251D128683B4C810712D540078F
:1011700003D5606840F4E06060602878000703D51C
:10118000606840F4605060606068A96820F0F0001A
:10119000084360602878C00728D06868012810D00C
:1011A0002168022810D0890700292EDA616821F011
:1011B000030101436160FFF7E9F9804641F2883994
:1011C0000DE021688903EFE78901EDE7FFF7DEF91C
:1011D000A0EB0801494502D90320BDE8F08760680B
:1011E000696800F00C00B0EB810FEFD1306800F0BF
:1011F0000700B8420BD9306820F007003843306050
:10120000306800F00700B84201D00120E5E72878F7
:10121000400705D56068E96820F4E0600843606035
:101220002878000706D56068296920F4605040EAF4
:10123000C100606000F03EF86168084AC1F3031124
:10124000515CC8400649086006480068FFF7BEF9CF
:101250000020C2E70020024000100240DC590008D4
:10126000240000201C00002001490120C8647047B0
:10127000000042420448054900684968044AC1F335
:101280000221515CC8407047240000200010024039
:10129000EC5900080448054900684968044AC1F34C
:1012A000C221515CC8407047240000200010024059
:1012B000EC59000812A185B00FC98DE80F0014A0E9
:1012C000144A006804905168134801F00C03042B81
:1012D00010D0082B0ED1C1F38343C9031DF80300BE
:1012E0000AD5516804AAC1F34041515C0A4A5043EF
:1012F000B0FBF1F005B0704708494843FAE7000039
:1013000002030405060708090A0B0C0D0E0F101046
:10131000010200000010024000127A0000093D00A6
:1013200010B5044CA068000603D5FFF705FF802028
:10133000A07210BD001002402DE9F84F040070D0DB
:101340002078C04DC00749D06868C0F381000128EB
:1013500007D06868C0F38100022809D16868C0031B
:1013600006D52868800339D560680028E7D035E0C5
:101370006068B0F5803F0BD010B1B0F5A02F11D050
:10138000286820F480302860286820F4802002E05B
:10139000286840F480302860606890B1FFF7F6F864
:1013A00006460AE0286840F480202860F0E700BF85
:1013B000FFF7ECF8801B642873D828688003F7D502
:1013C0000CE0FFF7E3F8064605E000BFFFF7DEF8A4
:1013D000801B6428F0D828688003F7D420789A4EC0
:1013E00080074FF001094FF0000839D5686810F008
:1013F0000C0F07D06868C0F38100022809D1686823
:10140000C00306D42868800714D52069012808D1B4
:1014100010E02069B0B1C6F80090FFF7B7F80746B2
:1014200005E00AE1FFF7B2F8C01B0228C4D828681B
:101430008007F7D52868616920F0F80040EAC1000C
:1014400028600DE0C6F80080FFF7A0F8074604E02A
:10145000FFF79CF8C01B022823D828688007F7D420
:10146000207800072CD57948A169D9B1C0F800903F
:10147000FFF78CF8074604E0FFF788F8C01B022846
:101480000FD8686A8007F7D571484FF4FA510068A1
:10149000B0FBF1F0009000BF0098411E0091FAD21D
:1014A0000EE080E0C0F80080FFF770F8074604E027
:1014B000FFF76CF8C01B022875D8686A8007F7D45C
:1014C0002078400760D5E8690027C00008D4E869A3
:1014D00040F08050E861E869012700F080500090FA
:1014E0005C480168C90513D40168834641F48071E2
:1014F0000160FFF74BF8824606E000BFFFF746F8B1
:10150000A0EB0A0064284ED8DBF80000C005F5D532
:10151000E06801280AD008B1052813D0286A20F015
:1015200001002862286A20F0040002E0286A40F0E6
:1015300001002862E06841F2883B98B1FFF726F885
:1015400082460BE0286A40F004002862EEE700BF04
:10155000FFF71CF8A0EB0A0159455AD8286A800702
:10156000F6D50CE0FFF712F8824605E0FFF70EF81B
:10157000A0EB0A0159454CD8286A8007F6D41FB160
:10158000E86920F08050E861E06988B36968C1F3D8
:101590008101022944D00228C6F8608004D0FEF7F9
:1015A000F5FF044638E034E0FEF7F0FF074604E0BC
:1015B000FEF7ECFFC01B02282BD828688001F7D467
:1015C000206AB0F5803F05D16868A16820F400303A
:1015D00008436860D4E908010843696821F474117C
:1015E00008436860C6F86090FEF7D0FF044606E046
:1015F00025E000BFFEF7CAFF001B022809D82868B3
:101600008001F7D51BE000BFFEF7C0FF001B0228DA
:1016100002D90320BDE8F88F28688001F4D40EE0D9
:101620000128F7D06868226A00F48031914204D121
:10163000616A00F47010884201D00120EAE70020BE
:10164000E8E70000001002400000424280044242ED
:10165000240000200070004010B5401EB0F1807FD3
:1016600001D3012010BD4FF0E02460610F2160170D
:1016700002F0B2FC0020A06107202061002010BD14
:1016800010B590F83C20012A22D0012280F83C209D
:10169000CA688C6822F4407222434C6822F480624B
:1016A00022430C6822F4006222430C6922F4805227
:1016B00022434C6922F400522243C969002322F4D8
:1016C00080420A4301684A6480F83C30002010BD23
:1016D000022010BD70B590F83C20012A26D00124CC
:1016E00080F83C40022280F83D2003685A689D68DB
:1016F00022F070060A6832435A600D4B02689A4223
:1017000008D0B2F1804F05D00A4B9A4202D00A4B62
:101710009A4204D1496825F080031943916080F80A
:101720003D40002180F83C10084670BD022070BD8D
:10173000002C0140000400400008004030B585B096
:101740000021009101910291039100682B4B2C49DB
:1017500002242C4A984209D1886940F0040088612B
:10176000886900F00400049088152AE0B0F1804FE9
:101770001ED0254B254D98422CD1886940F004009D
:101780008861886900F004000490886940F00800CE
:1017900088618869694600F008000490C020CDE99E
:1017A000000410460394FEF7EFFD0094019420E03E
:1017B000886940F004008861886900F004000490A2
:1017C0000B20CDE90004694610460394FEF7DCFDCA
:1017D00005B030BD0E4A9042FAD1886940F0080049
:1017E0008861886900F0080004904FF43070CDE9FA
:1017F0000004694628460394E8E70000002C0140F5
:10180000001002400008014000040040000C0140AC
:101810000008004070B5044690F83C000D460128D1
:101820000AD0012084F83C0042B1042A18D0082ACA
:101830002AD00C2A4DD139E0022070BD206800F07A
:101840000BFE2068816941F008018161206881698F
:1018500021F004018161206881692A69114311E046
:10186000206800F021FE2068816941F400618161F7
:101870002068816921F480618161206881692A6919
:1018800041EA0221816124E0206800F039FE2068ED
:10189000C16941F00801C1612068C16921F00401FA
:1018A000C1612068C1692A69114311E0206800F014
:1018B00053FE2068C16941F40061C1612068C169BB
:1018C00021F48061C1612068C1692A6941EA02216D
:1018D000C161002084F83C0070BD10B5040003D045
:1018E00094F83D0010B107E0012010BD002084F8FD
:1018F0003C00204600F01EF8022084F83D00211D27
:10190000206800F065FD012084F8460084F83E0060
:1019100084F83F0084F8400084F8410084F84200D5
:1019200084F8430084F8440084F8450084F83D00BE
:10193000002010BD08B5174A01681748914207D129
:10194000816941F400618161806900F4006014E004
:10195000B1F1804F0AD0114A914210D1C16941F0D2
:101960000201C161C06900F0020006E0C16941F0F6
:101970000101C161C06900F00100009008BD084A82
:101980009142FBD1C16941F00401C161C06900F01D
:101990000400F2E7002C0140001002400004004067
:1019A0000008004010B50446022249B104290ED0B7
:1019B000082913D094F84100012816D0012010BD49
:1019C00094F83E000128F9D184F83E200FE094F805
:1019D0003F000128F2D184F83F2008E094F840004D
:1019E0000128EBD184F8402001E084F84120012255
:1019F000206800F023FD0F492068884203D1426C23
:101A000042F4004242642068884208D0B0F1804F1E
:101A100005D00949884202D00849884204D181682A
:101A200001F00701062903D0016841F001010160BE
:101A3000002010BD002C01400004004000080040C0
:101A400070B5040004D094F83D00002510B106E004
:101A5000012070BD84F83C50204600F023F824207B
:101A600084F83D002068C16821F40051C16020461F
:101A700000F094FD2068016921F490410161206823
:101A8000416921F02A0141612068C16841F4005197
:101A9000C1602564202084F83D0084F83E000020C9
:101AA00070BD000030B585B000240094019402940C
:101AB000039400681449884224D11448816941F490
:101AC00080418161816901F480410491816941F023
:101AD0000401816180690E4D00F0040004904FF410
:101AE0000070009002200190032003906946284670
:101AF000FEF74AFC2815CDE9000469462846029401
:101B0000FEF742FC05B030BD003801400010024035
:101B1000000801402DE9F843044690F83D001F46B7
:101B200016460D4620284CD1C5B1BEB194F83C00F4
:101B3000012846D0012084F83C004FF00008C4F88A
:101B40004080212084F83D00FEF720FDA6848146D8
:101B5000E684A068B0F5805F03D004E00120BDE812
:101B6000F883206928B12E465FF0000584F83C8098
:101B70000EE00026FAE78021204600F06BFDA0B9B8
:101B8000AEB116F8010B21684860E08C401EE0847D
:101B9000E08C4B464FF0000200970028EBD14FF04D
:101BA0004001204600F056FD30B10320D7E735F85C
:101BB000020BC0F30800E6E7202084F83D00002077
:101BC000CDE70220CBE7FEE7F0B40023002A18D9C6
:101BD0000A24302537269C46B4EB107F04D905EB48
:101BE000107701F8137003E006EB107701F813701B
:101BF000000101EB430787F801C05B1CDBB2934295
:101C0000EAD3F0BC7047000008B50020084D8DF8FD
:101C10000000441E234600226946E86802F058FB93
:101C20000028F7D19DF9001002A002F0C5F9F1E7F4
:101C30000000002025640A0000F0D2F94FF4FA7485
:101C400002F0A0FA204602F0EDFAF9E710B5012102
:101C5000114A084602F0F4FB104C0F4A02212061A1
:101C6000183A102002F072FB0B4AE060843A00211F
:101C70000B4802F03DFC084A2060603A0021094808
:101C800002F036FC044A60603C3A0021064802F04B
:101C90002FFCA06010BD0000CC59000800000020FF
:101CA000391C0008091C00088D3F000870B586B07B
:101CB000002425480094019402940394816941F022
:101CC00010018161816901F010010491816941F085
:101CD00020018161816901F020010491816941F055
:101CE00004018161816901F004010491816941F07D
:101CF000080181618069154E00F008004FF400551D
:101D00000490002229463046FEF73BFC0120009556
:101D1000CDE901040220039069463046FEF734FB0A
:101D20004FF4E04000900A48CDE9010469460948B3
:101D3000FEF72AFB002205212820FEF78FFC282031
:101D4000FEF77EFC06B070BD00100240001001409E
:101D500000001110000C014010B592B000240F9447
:101D60001C2108A81094FEF744FA20216846FEF7CB
:101D700040FA20481E4901608021C0E9011440F268
:101D8000E731C0E9031444618461FFF7A6FD08B19F
:101D9000FEF79EFA0F940FA916481094FFF79AFCCD
:101DA00008B1FEF795FA6020CDE908040A940B9477
:101DB0000C940D94002208A90E480E94FFF72AFDFA
:101DC00008B1FEF785FA00944FF40050CDE90440C5
:101DD000029401940394694606480794FFF750FC67
:101DE00008B1FEF775FA0348FFF7A8FC12B010BD62
:101DF000002C0140F401002010B58AB000240794A3
:101E00001C2168460894FEF7F4F91E484FF0804103
:101E100001608021C0E9011440F2E731C0E90314F8
:101E20008461FFF75AFD08B1FEF752FA079407A93B
:101E300014480894FFF74EFC08B1FEF749FA6020F9
:101E4000CDE900040294002269460E480494FFF78D
:101E5000E1FC08B1FEF73CFA042269460948FFF7A5
:101E6000D9FC08B1FEF734FA0C2269460548FFF7A1
:101E7000D1FC08B1FEF72CFA0248FFF75FFC0AB06C
:101E800010BD00003C02002010B58AB00024079469
:101E90001C2168460894FEF7ACF91E481C490160F5
:101EA0008021C0E9011440F2E731C0E903148461E4
:101EB000FFF713FD08B1FEF70BFA079407A91548C1
:101EC0000894FFF707FC08B1FEF702FA6020CDE99D
:101ED00000040294002269460E480494FFF79AFC1D
:101EE00008B1FEF7F5F9042269460A48FFF792FCAB
:101EF00008B1FEF7EDF90C2269460648FFF78AFCA7
:101F000008B1FEF7E5F90348FFF718FC0AB010BD69
:101F1000000400408402002010B58AB00024079419
:101F20001C2168460894FEF764F91E481C490160AC
:101F30008021C0E9011440F2E731C0E90314846153
:101F4000FFF7CBFC08B1FEF7C3F9079407A91548C2
:101F50000894FFF7BFFB08B1FEF7BAF96020CDE99E
:101F600000040294002269460E480494FFF752FCD4
:101F700008B1FEF7ADF9042269460A48FFF74AFCAA
:101F800008B1FEF7A5F90C2269460648FFF742FCA6
:101F900008B1FEF79DF90348FFF7D0FB0AB010BD6A
:101FA00000080040CC0200200C4810B50A4901602E
:101FB0004FF4E1314160002181600C22C160C0E931
:101FC00004128161C161FFF73BFD002803D0BDE829
:101FD0001040FEF77DB910BD003801401403002009
:101FE00010B500220B490C4800F058FE08B1FEF76E
:101FF0006FF90A49084801F033F808B1FEF768F9AB
:10200000054801F0DFF8002803D0BDE81040FEF7D6
:102010005FB910BD980000202C380020E800002097
:10202000FEE7FFF77DF9FEE72DE9F84F044640F69D
:102030008F7B48F60F7A4FF002094FF4806874E105
:10204000B0F8441011F00F063AD030F82670390479
:102050007DD530F8261001EA0B0141F0800120F80F
:10206000261006EB860004EBC00595F8740105F513
:10207000B47500286CD0E87802286AD028782268E5
:1020800032F8201048F68F73194048F2C003194304
:1020900022F820102878D4F800C03CF82010BCF8B2
:1020A000502049047ED509EBC000111808EB41000F
:1020B0003CF800008005800D009074D02A89D8E09B
:1020C000C9062DD4018801EA0A0141F400410180CA
:1020D000216804F12805B1F850202B7809EBC300E2
:1020E000024408EB4200085AC0F309006064E16B47
:1020F0000844E06300212046FEF701FB94F8240029
:1021000000289CD0A869002899D194F8240021685F
:1021100040F08000A1F84C00002084F8240004E185
:10212000018804F5B4750A0521D5B0F850202B7844
:10213000062101EBC3010A4408EB4201405A04F5B1
:102140002C71C0F30903EB61EA88206802E0ACE07F
:1021500068E07AE001F0E8FE2168088800EA0B00F8
:1021600040F0800008802046FEF73DFFDDE00904D6
:10217000D5D5018801EA0B0141F08001018020687A
:10218000B0F850202B78062101EBC3010A4408EB7C
:102190004201405A83059B0DEB6110D0696971B112
:1021A000EA8801E058E056E0206801F0BDFEE969E8
:1021B00068690844686100212046FEF7A9FA206892
:1021C000018809052DD4B0F850100844296900F29F
:1021D0000C4051B13E2910D84A08C90700D0521C02
:1021E0004FF6FF7101EA82210FE0018821F4F841E6
:1021F0000180018841F4004107E04A09C90600D185
:10220000521E4FF4004141EA82210180206801887A
:102210004BF68F72114081F4405148F28002114315
:10222000018082E0D4F800C0BCF850102A78062063
:1022300000EBC200014408EB41003CF800008005BF
:10224000800D00901AD0EA8813E03A4629462046CD
:10225000FEF7BCFA009011E0062101EBC000111856
:1022600008EB41003CF800008005800D009005D08F
:102270006A8903466046696901F056FEE96900987B
:102280000844E8616969009808446861A86918B160
:1022900029690098814204D929782046FEF738FA46
:1022A00003E02946206801F025FB38063DD506EB02
:1022B000860004EBC001206830F8262002EA0A02FA
:1022C00042F4004220F8262091F82B002831032800
:1022D00004D018B1022824D1F80522D42368B3F819
:1022E00050200D7809EBC500024408EB4200185A53
:1022F0008A69C0F3090082420CD9121A8A610BD094
:102300004A6902444A61CA691044C861206801F000
:10231000F1FA0AE000208861E9B22046FEF7EFF901
:1023200003E03A462046FEF7C4FA2068B0F84410AD
:1023300009043FF585AE0020BDE8F88F10B5FEF723
:102340002BF903F093F9012803D0BDE8104002F007
:1023500033BF10BD30B593B028216846FDF749FF63
:1023600014210AA8FDF745FF002401200F941094C2
:102370001194010412948DE8130004904FF4E010BE
:10238000CDE90810022507956846FEF7D5FF08B18C
:1023900072B6FEE70F20CDE90A054FF48060CDE963
:1023A0000C4002210AA80E94FEF7C8FE08B172B6CE
:1023B000FEE710200F9012940FA8FEF747FE08B119
:1023C00072B6FEE7FEF750FF13B030BD7047000055
:1023D000F0B50268164B174C174D4FF080479842E6
:1023E00005D0B84203D0A04201D0A84203D122F0C8
:1023F00070064A683243984205D0B84203D0A042E2
:1024000001D0A84203D122F44074CA6822434C6927
:1024100022F08002224302608A68C2620A688262F5
:10242000984201D10969016301214161F0BD0000B9
:10243000002C0140000400400008004010B501F0ED
:102440001F030121046A99408C430462016A9A4087
:102450001143016210BD000030B5026A22F0010292
:102460000262026A4368846924F073050C682C4395
:1024700022F002058A682A430A4DA8420BD122F0B5
:102480000805CA6823F440732A434D6922F0040208
:102490001D438B692B434360846149684163026239
:1024A00030BD0000002C014030B5026A22F010025D
:1024B0000262026A436884690D6824F4E64444EACF
:1024C00005248D6822F0200242EA05120B4DA84235
:1024D0000ED1CD6822F0800242EA05124D6923F444
:1024E000406343EA85038D6922F0400243EA850395
:1024F0004360846149688163026230BD002C014001
:1025000030B5026A22F480720262036A4268C469CA
:1025100023F4007324F073050C682C438D6843EAA0
:1025200005230C4DA8420ED1CD6823F4006343EA85
:1025300005234D6922F4405242EA05128D6923F4C5
:10254000806342EA05124260C4614968C163036264
:1025500030BD0000002C014030B5026A22F48052E8
:102560000262046A4268C3690D6823F4E64343EAE1
:1025700005238D6824F4005444EA0534064DA8422E
:1025800004D14D6922F4804242EA85124260C3615F
:1025900049680164046230BD002C014070B50446F6
:1025A00000680169E26821F4405111430161216929
:1025B000A0680843616908432168CA6841F20C6356
:1025C0009A430243CA6020684169A26921F44071BC
:1025D000114341611E492068884202D1FEF75AFE2C
:1025E00001E0FEF747FE00EBC00101EB001260685E
:1025F00064218000B2FBF0F3B3FBF1F36FF0180637
:102600007343B2FBF0F5B2FBF0F605EB8305322322
:1026100003EB0515B5FBF1F5B6FBF1F605F0F0059A
:1026200005EB0615B2FBF0F6B2FBF0F0B0FBF1F0F3
:102630006FF01802504306EB800003EB0010B0FB74
:10264000F1F0216800F00F002844886070BD0000A0
:10265000003801402DE9F041984617460E460446E1
:10266000069D1DE0681C1BD02DB1FDF78FFFA0EB70
:102670000800A84214D92068C16821F4D071C16053
:102680002068416921F001014161202084F83D006A
:1026900084F83E00002084F83C000320BDE8F0816F
:1026A0002068006836EA000004D00020B842D9D083
:1026B0000020F3E70120F9E710B5D0F8B422526802
:1026C0009047002010BD90F89C22012A05D0022AD4
:1026D00003D0032A01D000F019B84988012904D198
:1026E0000021C0F8A41200F035B8704710B51346A9
:1026F0000A46002100F0F9FB002010BD10B513467A
:102700000A46002100F08FFC002010BD10B50446E1
:102710008021204600F06CFC2046BDE810400021DE
:1027200000F066BC10B50521C0F8941200231A46CB
:10273000194600F0DAFB002010BD10B50223C0F8E6
:102740009432C261026213460A46002100F06BFC1B
:10275000002010BD10B50421C0F8941200231A46C1
:10276000194600F060FC002010BD000010B50028E4
:1027700006D00A46054906A000F088F9034810BDB6
:102780000A46024902A000F081F9F7E7F03A00207A
:1027900048494420436F6E66696700001220088034
:1027A00000487047B800002010B5002806D00A463F
:1027B000054906A000F06AF9034810BD0A4602491F
:1027C00002A000F063F9F7E7F03A002048494420FE
:1027D000496E7465726661636500000004200880BC
:1027E00000487047B400002010B50A46024903A013
:1027F00000F04CF9004810BDF03A002053544D69E8
:1028000063726F656C656374726F6E6963730000E9
:1028100010B5002806D00A46054906A000F036F992
:10282000034810BD0A46024902A000F02FF9F7E75D
:10283000F03A002053544D33322048756D616E20BC
:10284000696E7465726661636500000010B51A20D8
:102850000880FDF73FFD014810BD0000CC000020BE
:10286000CA88012A01D0FFF751BF90F89C22012AA3
:1028700005D0022A03D0032A08D0FFF747BF002162
:102880008160012200F10801FFF757BF0122011DFD
:10289000FFF753BF2DE9F84304460F460020009090
:1028A000002600257888010A082970D2DFE801F0A7
:1028B000AB040C22ABAB8B9AD4F8B012207C0A6824
:1028C000694690470646A3E0207C4FF0020840B1DD
:1028D000D4F8B402C16A68468847064686F8018083
:1028E00096E0D4F8B402816A68468847064686F8BE
:1028F00001808DE0C0B206285FD2DFE800F003124D
:1029000021303F4FD4F8B002426822B1207C6946A2
:10291000904706467CE039462046FFF7F7FE012542
:1029200076E0D4F8B002826822B1207C69469047F4
:1029300006466DE039462046FFF7E8FE012567E0D0
:10294000D4F8B002C26822B1207C6946904706469E
:102950005EE039462046FFF7D9FE012558E0D4F85D
:10296000B002026922B1207C6946904706464FE0DA
:1029700039462046FFF7CAFE012549E0D4F8B002E7
:1029800042692AB1207C69469047064640E03AE019
:1029900039462046FFF7BAFE012539E0D4F8B002E7
:1029A000826922B1207C69469047064630E039466C
:1029B0002046FFF7ABFE01252AE039462046FFF707
:1029C000A5FE012524E0207C28B139462046FFF7EA
:1029D0009DFE01251CE0D4F8B402416B684688478F
:1029E000064615E0207C28B139462046FFF78EFECA
:1029F00001250DE0D4F8B402016B6846884706460D
:102A00000721717004E039462046FFF77FFE01255B
:102A1000002D12D1BDF8000048B1FA883AB18242C7
:102A200000D90246009231462046FFF786FEF8881C
:102A3000002802D12046FFF78DFEBDE8F883002173
:102A40000278002A05D0491CC9B2401C0278002A2D
:102A5000F9D10846704790F89C22012A05D0022A35
:102A600003D0032A01D0FFF751BECA88022A01D041
:102A7000FFF74CBE0121C160D0F8A41209B10321B7
:102A8000C160022200F10C01FFF757BE70B5044689
:102A90000D461646002C1AD02046FFF7D0FF022123
:102AA00001EB4000308030782870032102206970EB
:102AB000217800290BD0002214F8013B411CC9B237
:102AC0002B54481CC0B26A5421780029F4D170BD3F
:102AD00001460020002906D0012905D0022905D091
:102AE000032905D00220704702207047012070475B
:102AF00002207047D0F8B80200210173002070470F
:102B000070B504468121204600F0E7F80025E56213
:102B1000D4F8B80218B100F0C7FCC4F8B8520020CD
:102B200070BD00000A210180004870479801002014
:102B300022210180004870472001002022210180CD
:102B4000004870474401002022210180004870475E
:102B50006801002010B50446042303228121204689
:102B600000F0B7F90120E062102000F09FFCC4F8EB
:102B7000B80218B100210173002010BD022010BD61
:102B800038B50346D3F8B8020022009200240A7830
:102B900012F0600228D0202A05D01846FFF7B6FDB3
:102BA0000224204638BD4A78022A17D0032A0BD0C7
:102BB0000A2A0FD00B2A04D01846FFF7A7FD0224DB
:102BC000EFE789780160ECE7014601221846FFF73C
:102BD000B4FDE6E74988090A4160E2E7011D0122E8
:102BE0001846FFF7AAFDDCE74A7852B1062A17D04B
:102BF0000A2A33D00B2A41D01846FFF787FD02245A
:102C0000CFE793F89C02032804D01846FFF77EFD17
:102C10000224C6E7022269461846FFF78EFDC0E788
:102C200048882222B2EB102F05D1CA884A2A00D93F
:102C30004A22184808E02122B2EB102F09D1164889
:102C4000CA88092A00D9092201461846FFF775FDEE
:102C5000A7E71846FFF75AFD0224A2E793F89C2243
:102C6000032A04D01846FFF751FD022499E700F12A
:102C7000080101221846FFF760FD92E793F89C22B5
:102C8000032A04D01846FFF741FD022489E789781A
:102C9000816086E7A40100208C01002010B5002887
:102CA00010D0D0F8B43213B10023C0F8B43209B157
:102CB000C0F8B012012180F89C12027000F0C6F832
:102CC000002010BD022010BD10B5D0F8C002FDF7E5
:102CD0004FFDBDE81040FFF7FBBE10B5D0F8C002B5
:102CE000FDF720FDBDE81040FFF7F2BE70B50446C9
:102CF0009446002909D0D4F8B40242691AB194F874
:102D00009C02032859D0022070BD04F11400D4F8AD
:102D100094120025022904D0042940D000293ED075
:102D200041E0C36801698B420DD9591AC1608AB26A
:102D300061462046FFF7E2FC00231A46194620466A
:102D400000F0D3F82FE08068B0FBF1F201FB120233
:102D50009AB9884211D3D4F8981288420DD2002231
:102D600011462046FFF7CAFCC4F8985200231A46C1
:102D70001946204600F0B9F815E0D4F8B402C1684D
:102D800029B194F89C02032801D12046884780216C
:102D9000204600F02DF92046FFF7C4FC03E0802117
:102DA000204600F025F994F8A002012807D120461A
:102DB00000F05FF984F8A05201E02046904700201F
:102DC00070BD10B5044608461146002809D0D4F855
:102DD000B4128A691AB194F89C12032931D00220E6
:102DE00010BD04F5AA70D4F89432032B02D0052B41
:102DF0001FD029E0D0F810C0C36863450BD9A3EBFE
:102E00000C03C3600069834200D303469AB2204694
:102E1000FFF76CFC18E0D4F8B402016929B194F80A
:102E20009C02032801D1204688472046FFF792FCE8
:102E30000AE00020C4F894020021204600F0D8F8EF
:102E400002E0014620469047002010BD10B5044620
:102E50001548C0F8E842C4F8C002144901600821CE
:102E600041600221816000218161C1610162FDF741
:102E7000FFFF08B1FDF72CFA002218231146D4F801
:102E8000C002FDF71DFC582300228021D4F8C002A7
:102E9000FDF716FC4FF4807300228121D4F8C002A4
:102EA000FDF70EFC002010BD043D0020005C00403A
:102EB00011F0800F01F07F01D0F8C00201EB810119
:102EC00000EBC10002D090F82A00704790F86A0128
:102ED000704710B59C461346D0F8C0026246FDF715
:102EE00080FEBDE81040FFF7F3BD10B5D0F8C0027A
:102EF000FDF7A7FEBDE81040FFF7EABD70B5044638
:102F00000022402311462046FFF7E3FF0125C4F8C5
:102F100058514026C4F86461402300228021204695
:102F2000FFF7D7FFA561666284F89C520020C4F8C1
:102F300094026060C4F8A402D4F8B80228B1D4F8AE
:102F4000B4020021426820469047002070BD90F8EE
:102F50009C12042903D190F89D1280F89C12002045
:102F6000704710B590F89C12032904D1D0F8B41220
:102F7000C96901B18847002010BD01740020704765
:102F800010B5D0F8C002FEF71AF8BDE81040FFF700
:102F90009FBD10B5044604F52A7000F04DF80120DD
:102FA000C4F89402B4F8AE02C4F8980294F8A812D7
:102FB00011F01F000AD001280ED0022812D001F013
:102FC0008001204600F014F8002010BD04F52A719D
:102FD000204600F0FCF8F7E704F52A71204600F0DF
:102FE0002EFAF1E704F52A71204600F030F9EBE7FC
:102FF00010B5D0F8C002FDF73DFEBDE81040FFF768
:1030000067BD10B5D0F8C002FDF7F4FFBDE8104071
:10301000FFF75EBD90F89C1280F89D12042180F8A5
:103020009C120020704710B5D0F8C002FDF75BFE7F
:10303000BDE81040FFF74CBD0A7802704A78427034
:103040008A78CB7802EB032242800A794B7902EB33
:10305000032282808A79C97902EB0121C1807047FD
:1030600002460020002902D0C2F8B41270470220A4
:1030700070470020704770B504468888002821D129
:10308000C888F8B9488880281CD200F07F0594F8D9
:103090009C0203280DD084F89E5229462046FFF753
:1030A0006FFF2046FFF756FB45B1022084F89C02D3
:1030B00070BD2046BDE87040FFF728BB012084F8B2
:1030C0009C0270BD2046BDE87040FFF71FBB10B5E5
:1030D0000224D0F8B422002A03D01268904700B925
:1030E0000024204610BD000070B504460D46304E49
:1030F000A9783170012905D929462046BDE87040DC
:10310000FFF704BB94F89C0202280BD0032823D0BD
:1031100029462046FFF7FAFA31782046BDE870408C
:10312000FFF7CABA99B16160032084F89C02204677
:10313000FFF7CDFF022804D02046BDE87040FFF71E
:1031400009BB29462046BDE87040FFF7DFBA20469C
:10315000BDE87040FFF7FEBA91B16068884221D0A7
:10316000C1B22046FFF7A8FA317861602046FFF728
:10317000AEFF022810D02046BDE87040FFF7EABA43
:10318000022084F89C0261602046FFF795FA2046F1
:10319000BDE87040FFF7DEBA29462046BDE8704022
:1031A000FFF7B4BA2046BDE87040FFF7D3BA00007D
:1031B000E60000204988012903D1C0F8A412FFF7D6
:1031C000C9BA704710B5FFF71CFF002010BD10B53D
:1031D00003460024087810F060020ED0202A06D0A2
:1031E000402A04D01846FFF791FA204610BDD3F8C4
:1031F000B402826818469047F7E748780A2822D236
:10320000DFE800F0151D211921090521110D1846CF
:10321000FFF740FBE9E71846FFF72DFFE5E7184603
:10322000FFF762FFE1E71846FFF71AFBDDE71846F4
:10323000FFF711FCD9E71846FFF7BCFFD5E71846A2
:10324000FFF741FAD1E71846FFF760FACDE72DE91D
:10325000F0410446084600260179037813F0600225
:1032600011D0202A08D0402A06D001462046FFF778
:103270004DFA3046BDE8F081D4F8B4128A680146B0
:1032800020469047F5E703F06002202A0BD04278F1
:10329000002A61D0012A37D0032A0CD001462046EB
:1032A000FFF734FAE5E7D4F8B4128A6801462046FD
:1032B000BDE8F041104794F89C22022A06D0032A68
:1032C00014D001462046FFF721FAD2E749B1802900
:1032D00007D02046FFF78CFE80212046FFF788FEAE
:1032E000C7E701462046FFF711FAC2E742883AB91C
:1032F00031B1802904D0C08810B92046FFF778FE8C
:103300002046FFF727FAB4E794F89C22022A06D059
:10331000032A14D001462046FFF7F8F9A9E749B17E
:10332000802907D02046FFF763FE80212046FFF763
:103330005FFE9EE701462046FFF7E8F999E74088DF
:10334000002896D111F07F0F02D02046FFF7BCFC79
:103350002046FFF7FFF98CE794F89C220027022A09
:1033600006D0032A26D001462046FFF7CFF980E792
:1033700031B1802904D001462046FFF7C7F978E72C
:1033800011F0800F08D001F07F0000EB800004EB0B
:10339000800000F1140107E001F07F0000EB8000E5
:1033A00004EB800000F5AA710F6002222046FFF7AF
:1033B000C4F95EE711F0800F0CD001F00F0202EBB0
:1033C000820204EB820292696AB901462046FFF745
:1033D0009DF94EE701F00F0202EB820204EB82023C
:1033E000D2F858215AB111F0800F0DD001F07F00B2
:1033F00000EB800004EB800000F114050CE00146B6
:103400002046FFF783F934E701F07F0000EB8000EE
:1034100004EB800000F5AA7541B1802906D0204652
:10342000FFF746FD20B10120286002E02F6000E098
:103430002F60022229462046FFF77FF919E770B571
:1034400005460C46207810F0600209D0202A07D0EB
:10345000402A05D021462846FFF758F9002070BDC4
:1034600095F89C22012A08D0022A06D0032A04D00B
:1034700021462846FFF74AF9F0E7207901280ED8BF
:10348000D5F8B4022146826828469047E188002991
:10349000E4D10028E2D12846FFF75CF9DEE72146B7
:1034A0002846FFF733F9D9E7704700000048704716
:1034B000F03C00202DE9F0470C78002630F824304D
:1034C00048F68F121340CA78002A7DD0012A7CD09A
:1034D000022A02D0032A7FD0012648F28002134339
:1034E00020F824300D7830F8254048F68F731C40C2
:1034F0002C43144320F825400D7B48F2C00C48F6BD
:10350000BF744CF280074BF68F79EDB391F80080D1
:10351000C24630F8285048F280181D4045EA080598
:1035200020F82A50B0F8505091F80080054405EB7F
:103530000815B1F8088028F00108A5F80084B0F853
:10354000505091F80080054405EB0815B1F80A8049
:1035500028F00108A5F808844D78002D0D7830F882
:1035600025804FEA48487DD0B8F1000F07DA30F8DF
:10357000258008EA030848EA070820F825800F7824
:1035800030F827506D0600E02CE006D530F82750C3
:103590001D4045EA0C0520F82750CB780D78012B0B
:1035A00030F8253003EA040301D083F020031343ED
:1035B00020F825300B7830F8231001EA0901114377
:1035C00020F82310304602E003E008E004E0BDE804
:1035D000F08743F4007380E743F4C0637DE743F46E
:1035E00080637AE74D782DB3B0F850500F780544DA
:1035F00005EB0715CF8827F00107A5F800740F78B1
:1036000030F827506D0606D530F827501D4045EAA2
:103610000C0520F82750CB78012B06D00B7830F81A
:103620002310214081F02001C9E70B7830F82310E6
:103630002140C4E7B0F850400D78044404EB051471
:10364000CD8825F00105A4F80854B0F850400D7855
:10365000044404EB05140D6904F20C4475B13E2DCD
:1036600014D800E030E04FEA550CED0701D00CF122
:10367000010C4FF6FF7505EA8C2511E0258825F42D
:10368000F8452580258845F4004509E04FEA551C9A
:10369000ED0601D1ACF1010C4FF4004545EA8C2553
:1036A00025800D7830F82540640405D530F8254094
:1036B0001C403C4320F825400B7830F8231001EAE9
:1036C000090181F440517AE7B8F1000F07DA30F8C8
:1036D000258008EA030848EA070820F825800F78C3
:1036E00030F827506D0606D530F827501D4045EAC2
:1036F0000C0520F827500D7830F8253003EA09032F
:1037000083F44053134320F825308EE700207047A0
:103710002DE9F04391F80C804F780A7848F6BF7C89
:103720004BF68F7948F2800348F2C0054CF28006D0
:1037300048F68F74B8F1000F28D0002F30F82270AF
:103740004FEA474748D0002F05DA30F8227027406B
:10375000374320F822700A7830F822707F0605D5AA
:1037600030F8227027402F4320F822700D7830F86F
:1037700025202240324320F825200C7830F82420E0
:1037800002EA0C021A4320F824201AE07FB130F834
:103790002260760605D530F8226026402E4320F8B8
:1037A00022600A7830F8221001EA0C010EE030F8AD
:1037B00022506D0405D530F822502540354320F8BD
:1037C00022500A7830F8221001EA0901194320F842
:1037D00022100020BDE8F083002F05DA30F82270B7
:1037E0002740374320F822700A7830F822607606A6
:1037F00005D530F8226026402E4320F822600E784E
:1038000030F8262022402A4320F826200C7830F871
:10381000242002EA09021A4320F82420C1E70020EC
:10382000704700207047012120F8401F00210180CF
:10383000818001820846704730F8401F21F43F41E3
:103840000180002070470020704730B50A7BB2BB72
:103850004A7848F68F7548F28004C2B10B7830F888
:103860002320520607D530F823202A4048F2C0050D
:103870002A4320F82320CA78012A20D00A7830F879
:10388000221048F6BF73194081F0200114E00A7835
:1038900030F822305B0407D530F822302B404CF250
:1038A00080052B4320F822300A7830F822104BF69E
:1038B0008F73194081F44051214320F822100020D9
:1038C00030BD10B54A780978002A48F2800330F8F4
:1038D000212005D048F6BF74224082F0100204E097
:1038E0004BF68F74224082F480521A4320F8212034
:1038F000002010BD2DE9F0470E464B78097B0446A9
:103900004FF0000948F68F7248F2800A4FF6FF77B1
:103910004FF40048012B09D000296ED0F07802281E
:103920006CD001286BD00120BDE8F087B569306903
:10393000854200D90546C9B1F17848F280130229C1
:1039400023D0317834F821001040184324F82100A6
:10395000306A401B3062307834F8201049067178A4
:103960007ED500297DD001297CD03FE1ABB2F28821
:103970002046716900F0F6FAB4F85000317820441E
:1039800000EB0110A0F80454EAE0316A81426AD9E0
:10399000317834F821001040184324F82100306AAF
:1039A000401B3062307834F82010490671786CD5AD
:1039B00011B1012924D02AE0B4F85010214401EBC0
:1039C000001000F20C404DB13E2D0FD86908EA07F7
:1039D00000D0491C07EA8121018018E0018821F408
:1039E000F8410180018841F40041F5E76909EA06E0
:1039F00000D1491E48EA8121EEE79CE1BCE126E2C4
:103A0000B4F85020111901EB0010A0F80C54728981
:103A1000ABB22046716900F0A5FA70692844706164
:103A20003169306A884202D9401B306202E00546A3
:103A3000C6F82090707800287CD1B4F85000317816
:103A4000204400EB011000F204406DB13E2D13D86C
:103A50006908EA0700D0491C07EA8121018012E0C9
:103A600001E19BE0BBE084E0018821F4F8410180A2
:103A7000018841F40041F1E76909EA0600D1491ED5
:103A800048EA8121EAE7328965E011B1012921D0B4
:103A900027E0B4F85010214401EB001000F204407C
:103AA0004DB13E2D0FD86908EA0700D0491C07EA3E
:103AB0008121018015E0018821F4F841018001880D
:103AC00041F40041F5E76909EA0600D1491E48EAD8
:103AD0008121EEE7B4F85010214401EB0010A0F86A
:103AE00004543289ABB22046716900F03BFA706928
:103AF000284470613169306A884202D9401B3062C3
:103B000002E00546C6F82090707800287ED1B4F80F
:103B100050003178204400EB011000F20C4055B108
:103B20003E2D10D86908EA0700D0491C07EA812118
:103B300001800FE072E0018821F4F84101800188E2
:103B400041F40041F4E76909EA0600D1491E48EA58
:103B50008121EDE77289ABB22046716900F002FA6B
:103B6000317834F8210048F6BF72104080F0300000
:103B7000C0E1327834F8220048F68F63184040EAFA
:103B80000A0024F82200B4F850003278204400EBF8
:103B900002108BB2A0F804343289DDE7B4F850107B
:103BA000214401EB001000F20C404DB13E2D0FD826
:103BB0006908EA0700D0491C07EA8121018015E065
:103BC000018821F4F8410180018841F40041F5E7C2
:103BD0006909EA0600D1491E48EA8121EEE7B4F8F6
:103BE0005020111901EB0010A0F80C547289ABB2EF
:103BF0002046716900F0B6F9706928447061316936
:103C0000306A884203D9401B306203E06EE005460B
:103C1000C6F82090002DA3D0707858B101287FF409
:103C20001EAFB4F850003178204400EB0110A0F82A
:103C3000045428E7B4F850003178204400EB011117
:103C400001F204413E2D06D86808EA0700D0401C66
:103C500007EA802005E06809EA0600D1401E48EA2C
:103C6000802008800FE711B1012921D027E0B4F8A6
:103C70005010214401EB001000F204404DB13E2DE4
:103C80000FD86908EA0700D0491C07EA81210180A2
:103C900015E0018821F4F8410180018841F40041D8
:103CA000F5E76909EA0600D1491E48EA8121EEE7F5
:103CB000B4F85010214401EB0010A0F804543289EC
:103CC000ABB22046716900F04DF97069284470610B
:103CD0003169306A884202D9401B306202E00546F1
:103CE000C6F82090002D96D0707858B101287FF446
:103CF00020AFB4F850100819317800EB0110A0F88B
:103D00000C5427E7B4F850003178204400EB01113F
:103D100001F20C413E2D06D86808EA0700D0401C8D
:103D200007EA802005E06809EA0600D1401E48EA5B
:103D3000802008800EE7B1693069814202D9091AF2
:103D4000B161B5E00846C6F81890B1E0088820F4E3
:103D5000F8400880088840F400400BE03E2875D801
:103D60004208C00700D0521C07EA822002E000BFD0
:103D700048EA82200880B5E093B9B4F85000317861
:103D8000204400EB0110316900F2044069B13E2982
:103D900013D84B08C90700D05B1C07EA83210180B8
:103DA000707888B1012832D03AE0018821F4F841D6
:103DB0000180018841F40041F1E74B09C90600D1B7
:103DC0005B1E48EA8321EAE7B4F8500031782044CA
:103DD00000EB0110316900F20C4049B13E290FD8C7
:103DE0004B08C90700D05B1C07EA8321018017E05C
:103DF000018821F4F8410180018841F40041F5E790
:103E00004B09C90600D15B1E48EA8321EEE7B4F8EE
:103E100050100819317800EB0110318AA0F80C1409
:103E2000F069A8B3317834F82100430401D5430682
:103E300003D444F24003184254D134F82100104016
:103E400048F2C002104324F821004BE03CE0B16985
:103E50003069814202D9091AB16102E00846C6F808
:103E600018908BB9B4F850103278214401EB02114C
:103E700001F2044168B13E2813D84208C30700D0BC
:103E8000521C07EA82220A80717889B1012921D067
:103E900028E00A8822F4F8420A800A8842F40042A4
:103EA000F1E74209C30600D1521E48EA8222EAE73E
:103EB000B4F850103278214401EB021101F20C41A8
:103EC00000287FF44BAF41E74209C0067FF450AFB2
:103ED000521E4DE7B4F850201119327801EB02114F
:103EE000A1F80C04317834F821004BF68F721040A1
:103EF00080F4405040EA0A0024F82100002013E535
:103F00000021A0F844104FF43F41A0F840100020D9
:103F1000704700000148FCF700BF0000043D00208E
:103F2000B0F844007047000010B500EB42005C0898
:103F300000F5806009D000BF30F8042B01F8012B98
:103F4000120A01F8012B641EF6D1DA0701D00088AD
:103F5000087010BD0020704711B98021A0F84C10E6
:103F60000020704710B55B1C00EB42005B0800F5B9
:103F7000806009D011F8012B11F8014B42EA0422AC
:103F800020F8042B5B1EF5D110BDFEE75FF00004A6
:103F900001F076F8642000F045F9641CE4B20A2CC4
:103FA000F6D9002401F0AEF8642000F03BF9641C5F
:103FB000E4B20A2CF6D9E9E70FB4054B10B503A912
:103FC000044A029800F028F810BC5DF814FB0000C9
:103FD0006D410008F00100200907090E002804DBEC
:103FE00000F1E02080F80014704700F00F0000F1AD
:103FF000E02080F8141D704702E008C8121F08C1B5
:10400000002AFAD170477047002001E001C1121F59
:10401000002AFBD1704700002DE9FF4F89B09B4675
:104020000446002506E025280BD05A460B999047F8
:10403000641C6D1C20780028F5D10DB02846BDE821
:10404000F08F0027B8460122474900E0074314F8E3
:10405000013F203B02FA03F00842F7D120782E28D6
:1040600019D114F8010F47F004072A280ED06FF079
:104070002F022078A0F1300109290CD808EB880123
:1040800002EB410100EB0108641CF2E70A98641C92
:1040900050F8048B0A9020780028CED0642808D0ED
:1040A000692806D075281ED05A460B9990476D1C7A
:1040B00058E00A994FF00A0901C90A91002802DA6A
:1040C00040422D2102E0390504D52B218DF8201026
:1040D000012103E0F90704D02021F7E78A4608AE62
:1040E0000DE00021FAE70A994FF00A0901C90A9187
:1040F000F7E74946FCF788F8303106F8011D00283B
:10410000F7D1ADEB060000F12009780701D44FF09C
:104110000108C84502DDA8EB090000E00020804648
:10412000002706E008A85A46C05D0B9990476D1C11
:104130007F1C5745F6DB04E030205A460B99904728
:104140006D1CB8F10001A8F10108F5DC05E016F8D6
:10415000010B5A460B9990476D1CB9F10001A9F16A
:104160000109F4DC641C65E70928010013B54FF070
:10417000FF33012269460248FDF7CCFC00981CBDC4
:10418000140300204FF400510148FCF7F2B900007D
:1041900000100140FCF708FAFEF7DCF8FDF786FD99
:1041A000FDF72AFEFDF770FEFDF7B6FEFDF7D4FD24
:1041B000FDF7FAFE00211748FDF7F4FB0021164831
:1041C000FDF7F0FB04211448FDF7ECFB0C2112482D
:1041D000FDF7E8FB00211148FDF7E4FB04210F483F
:1041E000FDF7E0FB0C210D48FDF7DCFB00210C483E
:1041F000FDF7D8FB04210A48FDF7D4FB0C21084841
:10420000FDF7D0FB00F028F8FDF720FD00F040F8A6
:10421000FEE70000F40100203C02002084020020A0
:10422000CC02002010B5EFF3058149B9EFF31081FE
:1042300031B908490968022905D1EFF3118111B19B
:104240006FF0050403E0002408B100F065FE20468D
:1042500010BD000078000020EFF3058058B9EFF39F
:10426000108040B909490868022801D030B109E03E
:10427000EFF3118030B16FF0050070470120086046
:10428000002070474FF0FF3070470000780000209A
:1042900010B5EFF3058060B9EFF3108048B90B4912
:1042A0000868022802D0012806D00BE0EFF3118045
:1042B00040B16FF0050010BD0220086000F076FEEE
:1042C000002010BD4FF0FF3010BD0000780000202E
:1042D000F8B51D466FF003026FF002064FF00004C0
:1042E000EFF305834BB9EFF3108333B9154B1B681C
:1042F000022B17D1EFF31183A3B1F0B1E9B1E5B906
:10430000002200926A4601F00FF9012817D10098A7
:10431000B0B10D494FF080500860BFF34F8FBFF32D
:104320006F8F0DE048B141B12A4601F085F80128B0
:1043300006D025B16FF0010402E0144600E03446D7
:104340002046F8BD7800002004ED00E0F8B51446E2
:104350004FF00005EFF305826ABBEFF3108252BB0A
:10436000164A1268022A02D1EFF311821ABB10B367
:1043700009B3ACB1D4E902326BB1502A1BD3226924
:10438000CAB1676900FB01F6B74214D30025009556
:1043900000F05AFF07E072B9226962B9626952B946
:1043A000002200F036FF050005D00CB1216800E0C6
:1043B000002100F059FD2846F8BD000078000020DB
:1043C000F8B51D466FF003026FF002064FF00004CF
:1043D000EFF305834BB9EFF3108333B9164B1B682A
:1043E000022B18D1EFF31183ABB100B3F9B1F5B9DA
:1043F0000022134600926A4600F0EAFF012818D115
:104400000098B8B10D494FF080500860BFF34F8F4E
:10441000BFF36F8F0EE050B149B100232A4600F080
:104420005BFF012806D025B16FF0010402E01446BD
:1044300000E034462046F8BD7800002004ED00E09E
:10444000F8B5144603460E464FF00005EFF305801D
:10445000E8BBEFF31080D0BB24480068022802D1EB
:10446000EFF3118098BB93B39E423DD84CB1A06846
:104470000028E06803D0502836D3012002E008B1BC
:1044800032E00020012B05D010B31846A26800F0DE
:10449000B3FE20E040B1032000900022114601202D
:1044A000A36800F0D1FE04E003220021012000F007
:1044B000B0FE050018D086B100231A46194600F058
:1044C0000BFF012809D0284600F0E2FC00250BE094
:1044D000184600F087FE050006D00CB1216800E008
:1044E0000021284600F0C0FC2846F8BD78000020D6
:1044F000F0B585B04FEA01034FF00004EFF30581FA
:104500000394A1BBEFF3108189BB214909680229FB
:1045100002D1EFF3118151BB48B3802618218DF8E9
:10452000104004AD42B3176807B13D4697691FB10B
:1045300039467F1E382F02D21779FF0702D000209C
:1045400005B0F0BD576907B1BE08D2F808C0BCF18C
:10455000000F0DD0D4685C2C18D312693AB137B172
:104560008DE806103246294601F065F803900DE00B
:10457000D7685FB912694AB903AACDE90012B2B28D
:10458000294601F02BF8012800D003940398D7E7BF
:10459000780000202DE9F041134C0F46054666696E
:1045A0002068001D00F0BAFB681C07D137B12168F4
:1045B000BDE8F0410D48091D00F000BC20683544FD
:1045C000B5424560216805D2A068BDE8F041091DEB
:1045D00000F0DCBB6068091D00F0D8FB206B854251
:1045E00000D22563BDE8F0812800002048080020A3
:1045F0002DE9F041054600F0EDFB2D4C2069401CF3
:10460000206120682B4F10B1E06930B32BE02560AA
:104610002069012827D1002606EB860007EB8000E1
:1046200000F0A6FB761C382EF6D3234800F0A0FB42
:104630002148143000F09CFB1F48283000F098FB04
:104640001D483C3000F094FB1B48503000F090FBBC
:10465000194860601430A06005E02068E96AC06A0B
:10466000884200D82560E06A401CE0626864E86A1D
:10467000A169884200D9A06100EB800007EB8000AF
:10468000291D00F09BFB00F0B3FBE06900280CD073
:104690002068E96AC06A884207D208494FF0805012
:1046A0000860BFF34F8FBFF36F8FBDE8F08100004C
:1046B0002800002098030020F807002004ED00E007
:1046C00038B500F087FB104CA068C8B90F4800F05F
:1046D0004FFB0E48143000F04BFB0C4820601430A8
:1046E00060600A4B00202833009003F15002102133
:1046F0000A2000F0A9FDA06010B105A100F0B4FBF4
:10470000BDE8384000F074BB640000205C08002065
:10471000546D72510000000030B4026C0B46002A48
:104720000BD0C1681144C1604468A14201D3016843
:10473000C16030BC1846FBF743BD30BC70472DE963
:10474000F041856B174604460026026C82B1C7B162
:10475000E068FBF735FDE168206C091AE16022682A
:10476000914202D26168081AE060022F16D017E069
:104770002068A8B9606800F0E5FF06460020606088
:104780000EE0A068FBF71CFD216CA0680844A06047
:104790006168884204D32068A06001E005B16D1E05
:1047A0006D1CA5633046BDE8F08110B5044690F855
:1047B000590030B1012808D12046BDE8104000F072
:1047C00021BB206B00F01EFBF6E710BD10484FF434
:1047D0002051420706D0C01D0D4920F00700411AA4
:1047E000C1F520510B4A00230144C2E900030839F6
:1047F000103A21F0070111604B600B600B1AC0E901
:10480000001393604FF000405360D0607047000089
:104810002C1000208C000020144E154CA6F29C4752
:104820004FF08058DFF84C9012E000BF00F0D2FA51
:10483000F068C568281D00F071FA2069401E2061EB
:10484000E068401EE06000F0D3FA2846FFF7ADFFB5
:10485000E0680028EAD138680128F9D9C9F8008051
:10486000BFF34F8FBFF36F8FF2E7000034080020D3
:104870002800002004ED00E070B51D46049C51B1F5
:10488000C4F80020C4E90F010121204600F0EAFC31
:1048900084F84C5070BD2460F4E72DE9F0470E46D3
:1048A000DDE909841746824691009946089DA522B4
:1048B000206BFBF797FC6FF00301206B01EB870186
:1048C000084420F0070700202218315C82F83410D9
:1048D000315C11B1401C1028F6D3002684F84360E7
:1048E000382D00D33725E562C4E91356201D00F0AA
:1048F0004AFA04F1180000F046FA2461C5F13800C4
:104900006462A061666584F858604A46514638463C
:1049100000F0EAF92060B8F1000F01D0C8F80040BB
:10492000BDE8F08730B5114900E011460A688242BF
:10493000FBD34B685C18844203D14068184448603C
:10494000084643681C18944209D1084C103C24685E
:10495000A24209D052681A4442600A681268026092
:10496000814200D0086030BD0460F9E78C0000206F
:1049700070B5002441600B4D0061914206D8D11AF8
:104980008269914206D2011D686807E09A4203D20B
:10499000994201D3012403E0011D286800F0F6F9D3
:1049A000204670BD6400002010B5044600F012FAE5
:1049B000A06B28B15FF0000400F01AFA204610BD89
:1049C0000124F9E730B589B0274D44E00498002868
:1049D00006DADDE90601059A9047049800283ADBDB
:1049E000069C606910B1201D00F098F902A800F043
:1049F0009FF8024604980A282DD2DFE800F005054A
:104A0000052C1E2605052C1E0598A16903460144A8
:104A10002046FFF7ADFFF0B1616A20468847E069A4
:104A2000012818D1002000900598A16900234218A0
:104A30001946204600F060FF0DE00598A06181183E
:104A400013462046FFF794FF05E094F82C0010B9B8
:104A5000204600F0D7F9002204A9A86800F0ECFC79
:104A60000028B3D109B030BD640000202DE9FC411D
:104A70000F46054600F0D4FA01A800F059F80446A4
:104A8000019818B100F0B6FEBDE8FC811E4EAFB132
:104A900070680068A0B30027291B3A46B06800F090
:104AA00019FA00F0A7FE0028EED118494FF0805007
:104AB0000860BFF34F8FBFF36F8FE5E7A542EBD8D8
:104AC00000F098FE30682746C068C468201D00F0DA
:104AD00025F9E06901280FD1A0692B4641193A4612
:104AE0002046FFF745FF38B10020034601460090FD
:104AF0002A46204600F000FF616A20468847C3E747
:104B0000FFE70127C8E700006400002004ED00E093
:104B100006484168096829B14168C968C968496897
:104B2000016370474FF0FF31FAE7000028000020D2
:104B300070B5054600F0A8FD064E04463069844273
:104B400003D200F009F8012000E000202860204690
:104B5000346170BD64000020F8B5144D1EE0C068DB
:104B6000C4680668201D00F0D9F8616A20468847AD
:104B7000E069012812D1A0693044B04206D924610D
:104B80006060211D286800F001F907E0002003465D
:104B9000014600903246204600F0AEFE28680168CB
:104BA0000029DCD16968C5E90010F8BD6400002067
:104BB000502080F31188BFF34F8FBFF36F8FFEE754
:104BC000074C2068016841B1C0680021D0F800009E
:104BD000FFF74CFFFFF7F6FEF3E701210020F7E7B0
:104BE000640000202DE9F041044600F0F3F894F948
:104BF000455004F1240609E0606A48B1304600F0EF
:104C0000CBFD08B100F0A8F96D1E6DB2002DF3DCEC
:104C10004FF0FF3684F8456000F0EAF800F0DAF86B
:104C200094F9445004F1100709E0206948B138466E
:104C300000F0B2FD08B100F08FF96D1E6DB2002DCD
:104C4000F3DC84F84460BDE8F04100F0D1B8000026
:104C50002DE9F0410546002700F0E2F9214E3068C9
:104C600008B9FFF7B3FDF068054236D1ADB308359A
:104C7000680704D005F00700C0F10800054465B3DB
:104C80007068854229D81748103001460C6801E049
:104C900020460C466168A94202D221680029F7D15A
:104CA00031688C4219D00768216801606068083754
:104CB000411B102904D9601941606560FFF732FE7D
:104CC00061687068401A7060B268904200D2B0604B
:104CD000F06801430020C4E9000100F08BFD384674
:104CE000BDE8F0817C00002010B5031F4FF08074F8
:104CF0001C601B1F21F001011960191F024B0B6082
:104D0000143940380A6010BDB14B0008B0F57A7F05
:104D100001DB00207047643000B27047D0E90132F7
:104D200001699A60D0E901235A604A68824201D140
:104D300082684A60002202610868401E08600868B4
:104D400070470000034B036003F15C0008608020A3
:104D50001060704774090020044B036003F15C008D
:104D600008604FF48070106070470000D00B002086
:104D700000F108014FF0FF32C0E90112C16001618A
:104D800000210160704700210161704730B50B6858
:104D90005A1C02D000F1080202E0026904E0224637
:104DA000546825689D42FAD953684B6099608A60BF
:104DB000516008610168491C016030BD42684A6069
:104DC00093688B6093685960916008610168491C21
:104DD00001607047502080F31188BFF34F8FBFF3FD
:104DE0006F8F02480168491C0160704794000020E1
:104DF00003490868401E086001D180F3118870479C
:104E00009400002070B5002818D00D4DA0F10804C2
:104E10006068E968084211D02268002A0ED18843F0
:104E2000606000F0FDF860686968084468602046CA
:104E3000FFF778FDBDE8704000F0DCBC70BD0000FD
:104E40007C0000204FF0E0200021016181610549D4
:104E50004FF47A720968B1FBF2F1491E41610721F2
:104E6000016170472400002010B5084B002200BFEC
:104E700053F832401CB1521C082AF9D310BD43F834
:104E8000321003EBC201486010BD0000580300203F
:104E900010B5044600F00AF894F84600002804D142
:104EA0002046BDE81040FFF7ADBF10BD084A002105
:104EB00002EBC1035B68834206D1002042F8310057
:104EC00002EBC10148607047491C0829F0D37047C4
:104ED0005803002070B515460E460446FFF77AFFCA
:104EE00094F944100020491C01D184F8440094F93D
:104EF0004510491C01D184F84500FFF779FFA06BEC
:104F000028B92A46314604F1240000F03BF8204637
:104F1000BDE87040FFF766BE10B5020009D000F092
:104F20007FF800211046FFF735FB00F063FC0028F6
:104F300007D104494FF080500860BFF34F8FBFF393
:104F40006F8F10BD04ED00E002498A6A0260496972
:104F500041607047280000200149012048627047E5
:104F60002800002010B50C46054909681831FFF7E4
:104F70000DFF2046BDE810400121FFF70BBB0000EC
:104F80002800002070B50D460749144609681831FD
:104F9000FFF714FF0CB14FF0FF3521462846BDE85E
:104FA0007040FFF7F7BA00002800002030B587B046
:104FB0000024039405AA04A903A80494FFF7C2FEE1
:104FC000DDE903010094CDE90110002310A112488E
:104FD000059A00F030FB114D0028686315D000F0F1
:104FE00061FC012811D1502080F31188BFF34F8F4D
:104FF000BFF36F8F4FF0FF3028630120E8616C61D1
:1050000007B0BDE8304000F0BFB807B030BD0000C9
:1050100049444C45000000001948000828000020C1
:105020000248816B491C8163704700002800002002
:10503000114810B5816B11B10121416210BD0021F1
:10504000416282690D4900E0521E02EB820351F871
:105050002330002BF8D002EB820301EB830101F136
:1050600008044B685B684B60A34201D15B684B60EE
:10507000D9680160826110BD2800002098030020DB
:1050800070B51C4CB4F90000FFF740FE4FF08045AE
:1050900020806863FFF73AFE2080A863FFF736FEA2
:1050A00020802864FFF732FE134920800860FFF754
:1050B0002DFE11492080091D0860FFF727FE0E49CB
:1050C00020800C310860FFF721FE0C492080086029
:1050D000FFF71CFE0A4920800860FFF717FE084909
:1050E0002080091D0860FFF711FE054920800C3162
:1050F000086070BD1400002034040040342C0140CE
:105100003408004070B51C4CB4F90200FFF7FEFDF6
:105110001A4960800860FFF7F9FD18496080083976
:105120000860FFF7F3FD154960800C390860FFF750
:10513000EDFD134960800860FFF7E8FD11496080CC
:105140000860FFF7E3FD0F49608008390860FFF74A
:10515000DDFD0C4960800C390860FFF7D7FD4FF08A
:10516000804560802864FFF7D1FD6080A863FFF769
:10517000CDFD6080686370BD1400002040080040D1
:10518000342C014040040040094810B5016841F446
:1051900070010160016841F070410160FFF752FE4B
:1051A000044900200860FAF7BFFF002010BD00008E
:1051B00020ED00E09400002010B5502080F311880D
:1051C000BFF34F8FBFF36F8F00F064FA18B104493B
:1051D0004FF080500860002080F3118810BD00005F
:1051E00004ED00E010B50C460222002100F011F899
:1051F000002800D0846310BD38B50C460221134648
:1052000000220091114600F01FF8002800D08463AE
:1052100038BDF8B517460E00054613D005FB06F05D
:105220005030FFF715FD04000AD0002084F8460036
:1052300004F150023B46314628460094FFF71CFB20
:105240002046F8BD0020EBE738B51C00049D06D0D1
:10525000012384F846302B460094FFF70DFB2046CF
:1052600038BD000070B50D460446FFF7B3FDD4E924
:105270000F12206801FB020060600020A06320681C
:10528000A0600146E06B401E00FB0210E0604FF0A2
:10529000FF3084F8440084F8450004F110004DB15B
:1052A000FFF766FD04F12400FFF762FDFFF7A0FDA4
:1052B000012070BD21690029F8D000F06DFA0028A6
:1052C000F4D004494FF080500860BFF34F8FBFF314
:1052D0006F8FEBE704ED00E02DE9FF4700273B4E21
:1052E00082B099468A460446B8464FF0805500BFC2
:1052F000FFF770FDA06BE16B884206D3B9F1020F96
:1053000003D00498C0B1D7B11DE04A4651462046AB
:10531000FFF715FA616A19B104F1240000F03CFAB4
:1053200020B13560BFF34F8FBFF36F8FFFF760FD84
:10533000012006B0BDE8F087FFF75AFD21E068467E
:10534000FFF702FE0127FFF753FDFFF769FEFFF7A6
:1053500041FD94F94400401C01D184F8448094F943
:105360004500401C01D184F84580FFF741FD04A9A8
:10537000684600F00BF930B12046FFF733FC00F02F
:1053800039FA0020D5E7FFF725FDA06BE16B8842D5
:1053900013D1FFF72DFD04F110000499FFF7E2FD92
:1053A0002046FFF71FFC00F025FA0028A0D1356049
:1053B000BFF34F8FBFF36F8F9AE7FFF719FD2046BA
:1053C000FFF710FC00F016FA92E7000004ED00E091
:1053D0002DE9F041044617465020EFF3118680F383
:1053E0001188BFF34F8FBFF36F8FA26BE06B8242C8
:1053F00006D3022B04D0002086F31188BDE8F0818B
:1054000094F945501A462046FFF799F9681C04D0D4
:105410006D1C84F845500120EEE7606A0028FAD040
:1054200004F1240000F0B8F90028F4D0002FF2D0E5
:1054300001203860EFE700002DE9F7470026DFF88C
:10544000E48083B08A460446B1464FF0805700BFDF
:10545000FFF7C0FCA56BC5B151462046FFF75CF9CC
:105460006D1EA563206950B104F1100000F094F99D
:1054700028B1C8F80070BFF34F8FBFF36F8FFFF7ED
:10548000B7FC012006B0BDE8F087059808B11EB151
:1054900006E0FFF7ADFC27E06846FFF755FD012663
:1054A000FFF7A6FCFFF7BCFDFFF794FC94F944005E
:1054B000401C01D184F8449094F94500401C01D16E
:1054C00084F84590FFF794FC05A9684600F05EF863
:1054D000002820460AD0FFF785FB00F08BF9204614
:1054E000FFF762FA0028B3D00020CBE7FFF75CFAA1
:1054F00090B104F124000599FFF734FD2046FFF731
:1055000071FB00F077F90028A2D1C8F80070BFF352
:105510004F8FBFF36F8F9BE72046FFF763FB00F0D1
:1055200069F995E704ED00E02DE9F0410446904665
:105530005020EFF3118680F31188BFF34F8FBFF334
:105540006F8FA76BEFB194F944502046FFF7E4F852
:105550007F1EA763681C04D06D1C84F84450012092
:1055600010E020690028FAD004F1100000F014F9CE
:105570000028F4D0B8F1000FF1D00121C8F80010D4
:10558000EDE7002086F31188BDE8F0812DE9F041B8
:105590000C460546FFF71EFC0F4B5A696E682168E2
:1055A000901B4F1C07D02F689B6A9F4209D09642E0
:1055B00007D8012400E00024FFF71AFC2046BDE8CC
:1055C000F081814205D9081A20602846FFF7BCFC0B
:1055D000F1E700202060ECE7280000202DE9FF5FC4
:1055E0008346DDE90E87994616468A469000FFF706
:1055F0002FFB05001CD05C20FFF72AFB040014D011
:105600000020256384F85900CDE90240CDE90087E8
:105610004B46324651465846FFF73FF92046FEF7C3
:10562000E7FF012004B0BDE8F09F2846FFF7EAFB42
:105630004FF0FF30F6E7F0B585B00026DDE90B54FA
:105640000A9F7CB175B12563022584F8595004ADD9
:1056500000970396CDE90154FFF71FF92046FEF7A6
:10566000C7FF00E00496049805B0F0BD0548C16985
:1056700019B1806B18B100207047012070470220DB
:105680007047000028000020014840697047000072
:10569000280000202DE9F041284C0027A06B40B1E4
:1056A000206A401C2062606A00B101273846BDE8CC
:1056B000F0816669761C666108D16068A1686160E6
:1056C000A060A06A401CA062FFF722FA206BDFF8FE
:1056D0007080864209D36068006880B16068C068E5
:1056E000C568686886420DD220632068C06A00EBF6
:1056F000800158F821000128D5D90127D3E74FF0C0
:10570000FF30F1E7281DFFF709FBA86A18B105F182
:105710001800FFF703FBE86AA169884200D9A0617D
:1057200000EB800108EB8100291DFFF747FBE86AC9
:105730002168C96A8842CED30127CCE7280000201F
:105740009803002010B504004FF000011ED0206D1A
:10575000401E2065E36CE26A9A4217D0B0B9201D62
:10576000FFF7DCFAE06CE062C0F138000849A061A4
:10577000E06A8A69904200D98861064900EB80009E
:1057800001EB8000211DFFF719FB0121084610BD28
:10579000280000209803002070B5C068C46804F198
:1057A00018000646FFF7BAFA0F4DA86B10B1314644
:1057B0000E480DE0201DFFF7B1FAE06AA9698842A2
:1057C00000D9A8610A4900EB800001EB8000211D8F
:1057D000FFF7F4FAE06A2968C96A884202D9012011
:1057E000686270BD002070BD2800002020080020E5
:1057F000980300202DE9F04700242746FFF7EAFA36
:10580000254DA86B401EA863A86BE0BB2969234EF9
:105810000120C1B3A6F5916980463068E0B1F06817
:10582000C46804F11800FFF779FA201DFFF776FA33
:10583000E06AA969884200D9A86100EB800109EB00
:105840008100211DFFF7BAFAE06A2968C96A884217
:10585000E3D3C5F82480E0E70CB1FFF759F92C6ACF
:1058600044B14646FFF716FF00B16E62641EF9D1DF
:1058700000202862686A30B10949012738070860AA
:10588000BFF34F8F00E001E0BFF36F8FFFF7B0FA77
:105890003846BDE8F08700002800002020080020DE
:1058A00004ED00E030B587B00024FEF709FF0E4D8F
:1058B000A868A8B100200390049005AA04A903A831
:1058C000FFF74AFADDE9032102208DE807000023F3
:1058D00006A10848059AFFF7AEFEE86000B1012472
:1058E00007B0204630BD000064000020546D7220D7
:1058F00053766300C14B00082DE9FF41114C1F4650
:105900000346A66800200A9D002E0ED08DE80E00EA
:1059100006290FDAFFF7AAFE02284FF0000307D08E
:1059200000226946A068FFF7D7FC04B0BDE8F0810B
:105930002A46F6E700233A4669463046FFF748FD17
:10594000F3E7000064000020005A00080000000097
:105950000000000000000000000000000002000045
:10596000080000000000000000000000185A0008B5
:105970000000000000000000000000000000000027
:10598000000200000A00000000000000000000000B
:10599000085A00080000000000000000000000009D
:1059A00000000000000200000900000000000000EC
:1059B00000000000F4590008000000000000000092
:1059C000000000000000000000000000205A000855
:1059D00000000000000000000000000000000000C7
:1059E000000000000102030406070809000000008F
:1059F000010203044B65795175657565000000006F
:105A00004C45445461736B0057617465726C616DF1
:105A1000705461736B0000004B65795461736B00C7
:105A20004B657942696E61727953656D00000000C3
:105A3000505A000800000020F4010000580200083D
:105A40002C5B0008F4010020FC4100000840000825
:105A5000011832018210036D24F41AAA01139D2744
:105A60001B08DD041AE9041311281B084D041A6DE4
:105A70000C1AA90417040309041201320216408308
:105A8000042B571D02010203B1031A1A0313552BED
:105A90001B0801041A8104818BF52A0C811A3D2010
:105AA0001A31041A49041A250414090222130101A7
:105AB00025E0320904150103010215092111011421
:105AC00001224A160705810304220A091F240A211C
:105AD000072429486912314B0A06E019D711100A28
