:020000040800F2
:1000000000500020B9640008ED080008F508000859
:10001000F7080008F9080008FB08000800000000C5
:100020000000000000000000000000005157000820
:10003000FD08000800000000B1570008FF08000894
:1000400001650008016500080165000801650008F8
:1000500001650008016500080165000801650008E8
:1000600001650008016500080165000801650008D8
:1000700001650008016500080165000801650008C8
:1000800001650008016500080165000801650008B8
:1000900015090008016500080165000801650008F0
:1000A0000165000801650008016500080165000898
:1000B0000165000801650008016500080165000888
:1000C0000165000801650008016500080165000878
:1000D0000165000801650008016500080165000868
:1000E00025090008016500080165000800000000FE
:1000F0000000000000000000000000000000000000
:0C01000000000000000000005FF808F1A3
:1001100010B5054C237833B9044B13B10448AFF341
:1001200000800123237010BDC801002000000000E2
:100130001C75000808B5034B1BB103490348AFF316
:10014000008008BD00000000CC0100201C750008E4
:1001500072B6FEE700B595B0282200210DEB020033
:1001600006F002FA00230593069307930893099378
:10017000019302930393049301220A924FF4803374
:100180000B930E920222119212934FF46013139369
:100190000AA802F0A9FDD8B90F2305930221069100
:1001A000002307934FF480620892099305A802F098
:1001B000E1FF78B9102301934FF48003049301A861
:1001C00003F0C6F840B902F097FF15B05DF804FBE4
:1001D000FFF7BEFFFFF7BCFFFFF7BAFF08B502F05D
:1001E00049FDFFF7B7FF00F045F800F02FFA00F0E7
:1001F0007FFA00F0D1FA00F0CFF900F021FB0021E6
:10020000184803F067FC184C0021204603F062FCFC
:100210000421204603F05EFC0C21204603F05AFC2A
:10022000124C0021204603F055FC0421204603F027
:1002300051FC0C21204603F04DFC0D4C00212046C2
:1002400003F048FC0421204603F044FC0C21204626
:1002500003F040FC04F0FCFE00F094F804F01AFFF8
:10026000FEE700BFF80100204002002088020020C5
:10027000D002002030B589B000240494059406947F
:100280000794264B9A6942F010029A619A6902F02B
:1002900010020092009A9A6942F020029A619A69CB
:1002A00002F020020192019A9A6942F004029A61D6
:1002B0009A6902F004020292029A9A6942F00802D4
:1002C0009A619B6903F008030393039B144D224634
:1002D0004FF40051284603F0E0F94FF40053049323
:1002E0000123059306940223079304A9284603F0EB
:1002F000BBF84FF4E04304930A4B0593069404A91A
:10030000094803F0B1F822460521282003F0F4F94A
:10031000282003F029FA09B030BD00BF00100240C8
:100320000010014000001110000C014008B500F061
:1003300027FB06F043F84FF4FA7004F047FFF8E7A4
:1003400000B583B000238DF807304FF0FF33002253
:100350000DF107010548006805F074F80028F4D194
:100360009DF90710024806F007F9EEE7E8010020C2
:100370003475000808B506F02BF8642004F026FF59
:10038000F9E7000008B5124A0121084604F040FFD1
:10039000104B1860104A0221102004F0A5FF0F4BEB
:1003A00018600F4A00210F4804F09AFE0E4B1860A7
:1003B0000E4A00210E4804F093FE0E4B18600E4AC0
:1003C00000210E4804F08CFE0D4B186008BD00BFE4
:1003D00074750008E401002084750008E80100201D
:1003E000C07500082D030008F00100209C7500086E
:1003F00041030008EC010020E475000875030008C3
:10040000F401002084B003681C4A934213D0B3F176
:10041000804F1CD01A4A934225D01A4A934214D1D5
:10042000194BDA6942F00402DA61DB6903F0040374
:100430000393039B09E0144B9A6942F400629A61AA
:100440009B6903F400630093009B04B0704703F5BD
:100450000433DA6942F00102DA61DB6903F0010377
:100460000193019BF1E7084BDA6942F00202DA617D
:10047000DB6903F002030293029BE6E7002C0140D4
:1004800000040040000800400010024010B58AB08F
:10049000002306930793089309930368384A93420D
:1004A0000AD0B3F1804F1CD0364A93422ED0364A40
:1004B00093424FD00AB010BD344B9A6942F0040207
:1004C0009A619B6903F004030193019B4FF48073CD
:1004D000069302230793099306A92D4802F0C4FF4F
:1004E000E8E703F504339A6942F004029A619B69D4
:1004F00003F004030293029B0B230693022307934A
:10050000099306A9224802F0AFFFD3E71F4B9A696F
:1005100042F004029A619A6902F004020392039A7B
:100520009A6942F008029A619B6903F008030493F8
:10053000049BC023069302240794099406A9144837
:1005400002F092FF06940794099406A9114802F05C
:100550008BFFAFE70D4B9A6942F008029A619B69E5
:1005600003F008030593059B4FF4307306930223B1
:100570000793099306A9074802F076FF9AE700BFA0
:10058000002C014000040040000800400010024020
:1005900000080140000C014010B592B000241094F6
:1005A000119409940A940B940C940D940E940F9446
:1005B0002022214601A805F0D7FF2248224B0360E4
:1005C000446084604FF6FF73C360046144618461DA
:1005D00003F0AAF9002829D100231093119310A940
:1005E000184803F0E5FA20BB6023099300220A9221
:1005F0000B920C920D920E920F9209A9114803F0E2
:10060000F1F9C8B90023019302930393049305936E
:100610004FF400520692089301A90A4803F0FEFA2B
:1006200068B90848FFF732FF12B010BDFFF790FD20
:10063000D2E7FFF78DFDD7E7FFF78AFDE2E7FFF787
:1006400087FDEEE7F8010020002C014000B58BB0DB
:100650000023089309930193029303930493059352
:100660000693079321484FF0804202608022426047
:10067000836040F2E732C2600361836103F054F9A2
:1006800028BB00230893099308A9184803F090FA9F
:1006900000BB60230193002202920392059201A9FC
:1006A000124803F09FF9C0B904220DEB02010F4874
:1006B00003F098F9A0B90C2201A90C4803F092F9B3
:1006C00088B90A48FFF7E2FE0BB05DF804FBFFF7BC
:1006D0003FFDD6E7FFF73CFDDBE7FFF739FDE3E73A
:1006E000FFF736FDE7E7FFF733FDEAE740020020BA
:1006F00000B58BB0002308930993019302930393F1
:1007000004930593069307932148224A02608022AE
:100710004260836040F2E732C2600361836103F0AC
:1007200003F928BB00230893099308A9184803F08C
:100730003FFA00BB602301930022029203920592CC
:1007400001A9134803F04EF9C0B904220DEB0201D0
:100750000F4803F047F9A0B90C2201A90C4803F097
:1007600041F988B90A48FFF791FE0BB05DF804FB28
:10077000FFF7EEFCD6E7FFF7EBFCDBE7FFF7E8FC63
:10078000E3E7FFF7E5FCE7E7FFF7E2FCEAE700BF96
:10079000880200200004004000B58BB000230893BD
:1007A000099301930293039304930593069307938C
:1007B0002148224A026080224260836040F2E73290
:1007C000C2600361836103F0AFF828BB0023089384
:1007D000099308A9184803F0EBF900BB60230193C3
:1007E000002202920392059201A9134803F0FAF83D
:1007F000C0B904220DEB02010F4803F0F3F8A0B9D1
:100800000C2201A90C4803F0EDF888B90A48FFF75B
:100810003DFE0BB05DF804FBFFF79AFCD6E7FFF74F
:1008200097FCDBE7FFF794FCE3E7FFF791FCE7E7D2
:10083000FFF78EFCEAE700BFD0020020000800406E
:1008400008B50A480A4B03604FF4E13343600023C4
:100850008360C36003610C2242618361C36103F062
:1008600051FA00B908BDFFF773FCFBE7180300203D
:100870000038014010B586B000230293039304931F
:1008800005930268174B9A4201D006B010BD03F5DC
:1008900058439A6942F480429A619A6902F480420C
:1008A0000092009A9A6942F004029A619B6903F0EF
:1008B00004030193019B4FF40073029302230393FB
:1008C00003230593084C02A9204602F0CDFD4FF406
:1008D0008063029300230393049302A9204602F04D
:1008E000C3FDD2E7003801400008014008B502F01E
:1008F0001FFDFEE7FEE7FEE7FEE7FEE7704708B5EF
:1009000002F0CAF904F084F9012800D108BD04F00E
:1009100071FFFBE708B5024800F06BFF08BD00BFA0
:100920002008002008B54FF4805002F0C5FE4FF4B7
:10093000005002F0C1FE4FF4804002F0BDFE08BD41
:1009400000B583B00D4B9A6942F001029A619A6931
:1009500002F001020092009ADA6942F08052DA61F4
:10096000DB6903F080530193019B00220F216FF09C
:10097000010002F0C1FE03B05DF804FB001002406C
:1009800008B500220B490C4804F07CFF48B90B491C
:10099000094804F08EFF38B9074804F091FF30B9D8
:1009A00008BDFFF7D5FBF2E7FFF7D2FBF4E7FFF74F
:1009B000CFFBF5E7000000205C030020A80000202A
:1009C00012230B80004870471C00002004230B807A
:1009D0000048704730000020002393421ED200B52B
:1009E00010E00CF1370C01F813C000014FEA430C82
:1009F0000CF1010C4FF0000E01F80CE00133DBB2FA
:100A0000934209D24FEA107CB0F1204FE9D20CF1A9
:100A1000300C01F813C0E8E75DF804FB70470000F4
:100A200038B50B4BD3F8E807D3F8EC47D3F8F037D9
:100A3000C01800D138BD074D0822A91CFFF7CCFF14
:100A4000042205F112012046FFF7C6FFF2E700BFBE
:100A500000F0FF1F3400002008B51A230B80FFF7B9
:100A6000DFFF014808BD00BF3400002008B50A467A
:100A700028B90549054805F07AFB034808BD024935
:100A8000024805F074FBF8E720060020087600080D
:100A900010B50A46034C2146034805F068FB204682
:100AA00010BD00BF200600202076000808B50A46C9
:100AB00028B90549054805F05AFB034808BD024915
:100AC000024805F054FBF8E72006002034760008C1
:100AD00008B50A4628B90549054805F048FB03480A
:100AE00008BD0249024805F042FBF8E72006002055
:100AF00040760008022805D8DFE800F0050402006F
:100B0000012070470220704702680E4B9A4200D0C5
:100B1000704700B583B003F5DA33DA6942F40002B6
:100B2000DA61DB6903F400030193019B00220521D4
:100B3000142002F0E1FD142002F016FE03B05DF86F
:100B400004FB00BF005C004008B500F52C71D0F834
:100B5000E80204F0CDFE08BD08B501EB810300EB0F
:100B6000C303D3F87C21D0F8E80204F0EEFE08BD00
:100B700008B501EB810300EBC303DA6BD0F8E802A0
:100B800004F029FF08BD08B5D0F8E80204F0CAFF58
:100B900008BD10B504468368022B09D10121D4F8A1
:100BA000E80204F0A8FFD4F8E80204F07CFF10BDCE
:100BB000FFF7CEFAF2E7000010B50446D0F8E802DD
:100BC00004F09CFFA36923B1024A136943F00603B2
:100BD000136110BD00ED00E008B5D0F8E80204F0A4
:100BE00096FF08BD10B504461648C0F8E842C4F8A0
:100BF000C002154B03600823436002238360002377
:100C00008361C361036200F00FF9B8B918230022B1
:100C10001146D4F8C00201F00BF8582300228021BD
:100C2000D4F8C00201F004F84FF48073002281214F
:100C3000D4F8C00200F0FCFF002010BDFFF788FAD6
:100C4000E4E700BF20080020005C004008B5D0F8B1
:100C5000C00200F075F9FFF74DFF08BD08B59446D6
:100C60001A466346D0F8C00200F0ADFEFFF742FF1F
:100C700008BD08B5D0F8C00200F0E7FEFFF73AFF64
:100C800008BD08B5D0F8C00200F05BFFFFF732FFE7
:100C900008BD08B5D0F8C00200F08FFFFFF72AFFAB
:100CA00008BDD0F8C03211F0800F08D101F07F01EB
:100CB00001EB810103EBC10191F86A01704701F07A
:100CC0007F01013101EB810103EBC101887870479D
:100CD00008B5D0F8C00200F078FDFFF70BFF08BDA3
:100CE00008B5D0F8C00200F004FFFFF703FF08BD0D
:100CF00008B5D0F8C00200F0DAFEFFF7FBFE08BD31
:100D0000004870470C0B00207047704738B512F44C
:100D1000804F44D00468B4F850309BB291F800C0C2
:100D200003EBCC03023304EB4303B3F80044C4F3F6
:100D300009048B69A34228D31B1B8B618B697BB988
:100D4000056835F82C309BB223F4804323F0700300
:100D500083F4005343F4004343F0800325F82C3020
:100D600012F0400F0ED002680D7832F825309BB299
:100D700023F4E04323F0700343F4004343F0C00343
:100D800022F8253024B9204638BD00238B61D5E7F1
:100D900023460A894969006801F02DFFF3E70468DA
:100DA000B4F850309BB291F800C003EBCC0306338B
:100DB00004EB4303B3F80044C4F309048B69A34272
:100DC0002FD31B1B8B618B697BB9056835F82C30E1
:100DD0009BB223F4804323F0700383F4005343F465
:100DE000004343F0800325F82C3012F0400F0FD160
:100DF000026891F800C032F82C309BB223F4E04333
:100E000023F0700343F4004343F0C00322F82C3076
:100E1000002CB8D023464A894969006801F0EBFEEE
:100E2000B1E700238B61CEE770B586B0002800F0F3
:100E30008580044690F8A932EBB1032384F8A932E7
:100E4000206800F021FF254655F8106BEC460FCDC9
:100E5000ACE80F002B68CCF80030231D0ECB3046D9
:100E600000F002FF054658B1022384F8A93201259B
:100E7000284606B070BD80F8A832FFF745FEDCE7D3
:100E80000021206800F00AFF2B461AE05A1C02EBF2
:100E9000820104EBC1010120487002EB820104F8D9
:100EA000313003EB830104EBC101CB8602EB820CF2
:100EB00004EBCC0C00208CF803008863C863086442
:100EC000D3B261688B42E1D316E005EB850304EBF6
:100ED000C303002283F8692183F8685183F86B21EA
:100EE000C3F87821C3F87C2105EB850304EBC30329
:100EF000C3F880210135EDB2A942E6D8254655F860
:100F0000106BEC460FCDACE80F002B68CCF800302E
:100F1000231D0ECB304600F0C3FE054620B1022350
:100F200084F8A9320125A3E7002384F824300123A3
:100F300084F8A932206801F0E9F999E7012597E7DB
:100F400038B590F8A832012B11D00446012580F85D
:100F5000A852006800F08FFE29462046FFF7D5FE14
:100F6000206801F0D1F9002084F8A80238BD0220E1
:100F7000FCE770B505460C46164612F0400F00F02F
:100F80000D810268B2F850309BB2097803EBC103BF
:100F9000023302EB4303B3F80024C2F30902A3694E
:100FA000934252D99B1AA361A369002B6AD163783B
:100FB000002B4DD12B68B3F8502092B2134403EBB1
:100FC0000111B1F804349BB223F4F8439BB2A1F8A9
:100FD0000434B1F804346FEA43436FEA53439BB2DD
:100FE000A1F804342B686278002A3ED1B3F850206F
:100FF00092B21344227803EB0213B3F80C2492B29A
:1010000022F4F84292B2A3F80C24B3F80C246FEA4D
:1010100042426FEA524292B2A3F80C242178284649
:10102000FFF7A6FD16F4804F41D02A68217832F8E8
:1010300021309BB223F4E04323F0700343F4404398
:1010400043F0800322F8213031E00023A361ABE7B5
:10105000012BC7D12B68B3F8502092B2134403EB95
:1010600001110023A1F80434BCE7012AD6D1B3F85A
:10107000502092B21344227803EB02130022A3F80B
:101080000C24CBE716F4804F0DD0286830F82130BF
:101090009BB223F4E04323F0700343F4404343F056
:1010A000800320F8213094F82430012B12D02A68D4
:1010B000217832F821309BB223F4E04323F040033F
:1010C00083F0300343F4004343F0800322F82130DF
:1010D000002070BD636913446361E3691344E361F5
:1010E000216A236999421FD3C91A21626278002AB2
:1010F0003FD12A68B2F8501089B20A44217802EB35
:101100000112EBB9B2F8041489B221F4F84189B2A2
:10111000A2F80414B2F804146FEA41416FEA514195
:1011200089B2A2F8041426E021B9002384F82430FF
:101130001346DBE7002384F8243023620B46D5E70F
:101140003E2B09D8590813F0010F00D00131890254
:1011500089B2A2F804140EE0590913F01F0F00D150
:1011600001396FEAC1616FEA514189B2A2F80414F2
:1011700001E0012A06D09BB222896169286801F04A
:10118000CDF894E72A68B2F8501089B20A44217861
:1011900002EB011299B2A2F80414ECE70268B2F86B
:1011A00050309BB2097803EBC103063302EB4303D3
:1011B000B3F80024C2F30902A369934253D39B1AE4
:1011C000A361A369002B6BD16378002B4ED12B68F0
:1011D000B3F8502092B2134403EB0111B1F8043478
:1011E0009BB223F4F8439BB2A1F80434B1F8043461
:1011F0006FEA43436FEA53439BB2A1F804342B6870
:101200006278002A3FD1B3F8502092B2134422787A
:1012100003EB0213B3F80C2492B222F4F84292B218
:10122000A3F80C24B3F80C246FEA42426FEA52424E
:1012300092B2A3F80C2421782846FFF799FC16F403
:10124000804F7FF434AF2A68217832F821309BB286
:1012500023F4E04323F0700343F4404343F080035E
:1012600022F8213023E70023A361AAE7012BC6D18E
:101270002B68B3F8502092B2134403EB0111002302
:10128000A1F80434BBE7012AD5D1B3F8502092B2BB
:101290001344227803EB02130022A3F80C24CAE7BC
:1012A00016F4804F0DD1286830F821309BB223F41A
:1012B000E04323F0700343F4404343F0800320F8FD
:1012C000213094F82430012B7FF4F1AE636913448C
:1012D0006361E3691344E361216A236999421FD37F
:1012E000C91A21622A68617800293ED1B2F85010EB
:1012F00089B20A44217802EB0112EBB9B2F80C145E
:1013000089B221F4F84189B2A2F80C14B2F80C1495
:101310006FEA41416FEA514189B2A2F80C1426E00C
:1013200021B9002384F824301346DBE7002323622D
:1013300084F824300B46D5E73E2B09D8590813F022
:10134000010F00D00131890289B2A2F80C140EE01D
:10135000590913F01F0F00D101396FEAC1616FEA1B
:10136000514189B2A2F80C1401E0012906D09BB2C8
:1013700062896169286800F0D1FF98E6B2F85010E0
:1013800089B20A44217802EB011299B2A2F80C1436
:10139000EDE72DE9F04105462868B0F8443013F434
:1013A000004F00F00F82B0F84440A3B214F00F04D5
:1013B00040F0D88013F0100F61D003889AB213F474
:1013C000006F40F0938012F4004FE5D0038823F0C3
:1013D00070031B051B0D43F0800303802868B0F8E1
:1013E00050309BB295F8682103EBC203063300EB43
:1013F0004303B3F80034C3F30903C5F884318BB158
:10140000D5F87C1171B1B5F86E2101F0F4FBD5F877
:101410008421D5F87C311344C5F87C31002128465D
:10142000FFF79AFB2B681A8812F4006FB4D1B3F857
:10143000502092B21344D5F87821002A79D1B3F81C
:101440000C2492B222F4F84292B2A3F80C24B3F81E
:101450000C246FEA42426FEA524292B2A3F80C2483
:101460002A6813889BB223F4804323F0700383F42B
:10147000405343F4004343F0800313808CE7038818
:101480009BB223F4E14323F070036FEA43436FEA16
:1014900053439BB203802A68B2F850309BB295F850
:1014A000281003EBC103023302EB4303B3F800340B
:1014B000C3F309036B64EA6B1344EB630021284612
:1014C000FFF756FB95F82430002B3FF465AF2B6CEB
:1014D000002B7FF461AF95F824302A6843F0800335
:1014E000A2F84C30002385F8243055E7B0F850308E
:1014F0009BB295F8682103EBC203063300EB43036C
:10150000B3F80034C3F30903C5F88431B5F86E218C
:1015100005F52C7101F06FFB2A68138823F0700326
:101520001B051B0D43F0800313802846FFF70CFBBF
:1015300032E73E2A09D8510812F0010F00D00131DC
:101540008A0292B2A3F80C248AE7510912F01F0F05
:1015500000D101396FEAC1626FEA524292B2A3F838
:101560000C247DE730F824309EB213F4004F4FD1A5
:1015700016F0800F3FF410AF621C02EB820105EB06
:10158000C101286830F824309BB223F4E14323F0F2
:1015900070036FEA43436FEA53439BB220F8243051
:1015A000CB78032B07D033B1022B40F0068116F421
:1015B000807F40F002812868B0F850309BB2621CF6
:1015C00002EB820215F8326003EBC603023300EB34
:1015D0004303B3F80034C3F3090304EB840205EBBF
:1015E000C202126C9A4240F2D48004EB840705EBED
:1015F000C707D21A3A6404EB840205EBC202126CEC
:10160000002A40F0CD8031462846FFF7B1FAC3E604
:1016100030F8243023F070031B051B0D43F08003CA
:1016200020F8243004EB8401C90001F5B47105EB06
:10163000010804EB840305EBC30393F87431002B1A
:1016400042D12868B0F850309BB204EB840205EB1D
:10165000C20292F8682103EBC203063300EB430396
:10166000B3F80074C7F3090717BB04EB840305EB59
:10167000C303D3F884213A44C3F88421D3F87C21EE
:101680003A44C3F87C21D3F880313BB104EB8403A6
:1016900005EBC303D3F878319F4275D204EB840382
:1016A00005EBC30393F868112846FFF755FA5FE787
:1016B00004EB840105EBC1013B46B1F86E21D1F882
:1016C0007C1101F098FAD0E704EB840305EBC30327
:1016D00093F86B31022B35D0296804EB840205EBBB
:1016E000C20292F8680131F820309BB223F4E04343
:1016F00023F0700343F4004343F0C00321F820308B
:10170000286892F8682130F8223013F4804F20D0F6
:10171000B0F850309BB203EBC203023300EB43033B
:10172000B3F80074C7F30907002F9ED004EB8401BF
:1017300005EBC1013B46B1F87021D1F87C1101F0F5
:101740005AFA92E7324641462846FFF7DFFA074643
:101750008BE7B0F850309BB203EBC203063300EBCB
:101760004303B3F80074C7F30907002F3FF47DAFBC
:1017700004EB840105EBC1013B46B1F87221D1F8BD
:101780007C1101F038FA70E74146286800F0DAFD74
:10179000EEE604EB840205EBC202002717642AE799
:1017A00004EB840205EBC202D66B1E44D663546C74
:1017B0002344536400F0C6FDEEE532462846FFF7A9
:1017C000D8FBE9E50020BDE8F08190F8A832012BB4
:1017D0000DD010B50446012380F8A83280F82410FB
:1017E000006800F08BFD002084F8A80210BD0220E4
:1017F000704710B584B00446006800F089FD10F40D
:10180000004F47D1206800F083FD10F4806F45D170
:10181000206800F07DFD10F4804F08D02268B2F8F7
:1018200044309BB223F480439BB2A2F8443020683A
:1018300000F06EFD10F4005F08D02268B2F844306A
:101840009BB223F400539BB2A2F84430206800F00E
:101850005FFD10F4805F32D1206800F059FD10F474
:10186000006F78D1206800F053FD10F4007F40F045
:101870009D80206800F04CFD10F4807F08D0226825
:10188000B2F844309BB223F480739BB2A2F8443088
:1018900004B010BD2046FFF77CFDB3E72268B2F824
:1018A00044309BB223F480639BB2A2F844302046BC
:1018B000FFF76FF900212046FFF787FFA8E72268AE
:1018C000B2F840309BB223F004039BB2A2F8403040
:1018D0002268B2F840309BB223F008039BB2A2F812
:1018E00040302046FFF778F92268B2F844309BB2C6
:1018F00023F480539BB2A2F84430ADE7226832F85B
:10190000231004AA02EB430222F8101C0133DBB2BD
:10191000072BF3D92268B2F840309BB243F00103A1
:10192000A2F840302268B2F840309BB223F00103A5
:101930009BB2A2F840302368B3F8442012F4806FC1
:10194000F9D0B3F8442092B222F4806292B2A3F8A4
:10195000442000230BE00023DAE7226804A901EB0E
:10196000430131F8101C22F823100133DBB2072B9E
:10197000F3D92268B2F840309BB243F00803A2F8D2
:1019800040302268B2F844309BB223F400639BB22B
:10199000A2F844302268B2F840309BB243F004030E
:1019A000A2F840302046FFF707F95BE72268B2F85B
:1019B00044309BB223F400739BB2A2F8443020461B
:1019C000FFF7E1F855E710B504468C4611F0800F9B
:1019D0002AD101F0070000EB8001C90001F5B47EB7
:1019E00004EB0E0100EB800004EBC0004FF0000E92
:1019F00080F869E10CF0070C81F800C00A61CB7037
:101A00004A780AB1A1F80EC0022B19D094F8A83276
:101A1000012B18D0012384F8A832206800F051F976
:101A2000002084F8A80210BD01F00700013000EB8F
:101A3000800104EBC1014FF0010E81F801E0D9E70C
:101A400000230B71E2E70220EDE710B504460B46D8
:101A500011F0800F1FD101F0070202EB8201C900D3
:101A600001F5B471014402EB820200EBC2020020D6
:101A700082F8690103F007030B7094F8A832012B78
:101A800013D0012384F8A832206800F0D6FA002091
:101A900084F8A80210BD01F00702013202EB8201B6
:101AA00000EBC10101204870E4E70220F2E710B525
:101AB00001F0070404EB8401C90001F5B47101448D
:101AC00004EB840C00EBCC0CCCF87C21CCF88031FE
:101AD0000023CCF884318CF869318CF8684124B942
:101AE000006800F02FFC002010BD006800F02AFC08
:101AF000F9E710B501F0070404F1010C0CEB8C01BF
:101B000000EBC10104EB840E00EBCE0ECEF83C20BE
:101B1000CEF8403001228EF84C20CEF84830002319
:101B2000CEF844304A700CEB8C0C00F83C4024B9E1
:101B3000006800F007FC002010BD006800F002FC07
:101B4000F9E738B501F007054268954231D80446F7
:101B50000B4611F0800F1ED101EB8101C90001F588
:101B6000B471014403EB830300EBC303002283F849
:101B7000692101238B700D7094F8A832012B1AD0C3
:101B8000012384F8A832206800F042FB5DB10020F8
:101B900084F8A80238BD6B1C03EB830100EBC10184
:101BA00001224A70E5E704F52C71206800F0B4FBCF
:101BB000EDE70120EEE70220ECE70B4601F00F0114
:101BC0004268914230D810B5044613F0800F21D1FD
:101BD00003F0070202EB8201C90001F5B471014470
:101BE00002EB820200EBC202002082F869010022AF
:101BF0008A7003F007030B7094F8A832012B15D0FC
:101C0000012384F8A832206800F027FB002084F824
:101C1000A80210BD03F00702013202EB820100EBC3
:101C2000C10101204870E2E7012070470220F0E77F
:101C300011F0800F0BD001F00701013101EB8101A0
:101C400000EBC10152B90A73CB800020704701EB51
:101C50008101C90001F5B4710144F3E701220A735F
:101C60000B811B0C4B81F0E784B001A880E80E00CB
:101C7000002004B0704703460020A3F844004FF44E
:101C80003F42A3F840207047B0F8403023F47C5323
:101C90005B045B0CA0F840300020704700207047C8
:101CA00084B0844601A880E80E000123ACF84030DF
:101CB0000020ACF84000ACF84400ACF8500004B090
:101CC000704710B5034691F800C030F82C2092B24E
:101CD00022F4EC4222F0700292B2C878032861D854
:101CE000DFE800F0555C0258002048F2800E42EA1E
:101CF0000E0223F82C2091F800C033F82C2092B269
:101D000022F4E04222F070024CEA020242EA0E02A1
:101D100023F82C200A7B002A40F0C4804A78002A4D
:101D200051D0B3F8502092B21A440C7802EB04124E
:101D3000B1F806C04FEA5C0C4FEA4C0CA2F800C4A4
:101D40000C7833F8242012F0400F0CD033F8242004
:101D500092B222F4E04222F0700242F4004242F0D9
:101D6000C00223F82420CA78012A1DD0097833F84C
:101D7000212092B222F4E04222F0400282F02002BE
:101D800042F4004242F0800223F821206AE042F44B
:101D90000072AAE742F4C0620020A6E742F4806223
:101DA0000020A2E70120A0E7097833F8212092B2B1
:101DB00022F4E04222F0400242F4004242F080026B
:101DC00023F821204EE0B3F8502092B21A440C7848
:101DD00002EB0412B1F806C04FEA5C0C4FEA4C0C5F
:101DE000A2F808C4B3F8502092B21A440C7802EB5F
:101DF00004120C69BCBBB2F80CC41FFA8CFC2CF4A6
:101E0000F84C1FFA8CFCA2F80CC4B2F80CC46FEAB0
:101E10004C4C6FEA5C4C1FFA8CFCA2F80CC40C789A
:101E200033F8242012F4804F0CD033F8242092B2DF
:101E300022F4E04222F0700242F4404242F080027A
:101E400023F82420097833F8212092B222F480422A
:101E500022F0700282F4405242F4004242F08002CA
:101E600023F8212010BD3E2C0DD84FEA540C14F05D
:101E7000010F01D00CF1010C4FEA8C2C1FFA8CFCE5
:101E8000A2F80CC4CBE74FEA541C14F01F0F01D189
:101E90000CF1FF3C6FEACC646FEA5444A4B2A2F8A0
:101EA0000C44BCE791F800C033F82C2092B222F425
:101EB000E04222F0700242F4014242F0800223F834
:101EC0002C20B3F8502092B21A4491F800C002EBD3
:101ED0000C12B1F808C04FEA5C0C4FEA4C0CA2F8A7
:101EE00000C4B3F8502092B21A4491F800C002EB3B
:101EF0000C12B1F80AC04FEA5C0C4FEA4C0CA2F885
:101F000008C44A78002A41D10C7833F8242012F40E
:101F1000804F0CD033F8242092B222F4E04222F019
:101F2000700242F4404242F0800223F824200C78F0
:101F300033F8242012F0400F0CD033F8242092B252
:101F400022F4E04222F0700242F4004242F0C00269
:101F500023F8242091F800C033F82C2092B222F408
:101F6000804222F0700282F4405248F28004224300
:101F700023F82C20097833F8212092B222F4E04291
:101F800022F04002224323F821206BE70C7833F83B
:101F9000242012F4804F0CD033F8242092B222F483
:101FA000E04222F0700242F4404242F0800223F804
:101FB00024200C7833F8242012F0400F0CD033F892
:101FC000242092B222F4E04222F0700242F4004255
:101FD00042F0C00223F82420CA78012A1ED00C78CF
:101FE00033F8242092B222F4E04222F0400282F040
:101FF000200242F4004242F0800223F824200978B3
:1020000033F8212092B222F4804222F0700242F48E
:10201000004242F0800223F8212023E70C7833F8B5
:10202000242092B222F4E04222F0400242F4004224
:1020300042F0800223F82420E1E70B7B002B46D1FD
:102040004B7813B30A7830F8223013F0400F0CD0DD
:1020500030F822309BB223F4E04323F0700343F4C2
:10206000004343F0C00320F822300A7830F82230D1
:102070009BB223F4E04323F0400343F4004343F0D6
:10208000800320F82230002070470A7830F8223090
:1020900013F4804F0CD030F822309BB223F4E0438D
:1020A00023F0700343F4404343F0800320F82230D0
:1020B0000A7830F822309BB223F4804323F0700377
:1020C00043F4004343F0800320F82230DBE74B78F1
:1020D000002B4ED10A7830F8223013F4804F0CD008
:1020E00030F822309BB223F4E04323F0700343F432
:1020F000404343F0800320F822300A7830F8223041
:1021000013F0400F0CD030F822309BB223F4E043A0
:1021100023F0700343F4004343F0C00320F822305F
:102120000A7830F822309BB223F4E04323F07003A6
:1021300043F4004343F0C00320F822300B7830F81A
:10214000232092B222F4804222F0700248F2800CE6
:1021500042EA0C0220F823200A7830F822309BB2A1
:1021600023F4E04323F0400343EA0C0320F8223039
:1021700089E70A7830F8223013F4804F0CD030F819
:1021800022309BB223F4E04323F0700343F4404336
:1021900043F0800320F822300A7830F8223013F020
:1021A000400F0CD030F822309BB223F4E04323F0F0
:1021B000700343F4004343F0C00320F822300A7850
:1021C00030F822309BB223F4E04323F0700343F451
:1021D000404343F0800320F822300B7830F823206E
:1021E00092B222F4E04222F0400248F2800C42EA2D
:1021F0000C0220F823200A7830F822309BB223F416
:10220000804323F0700343EA0C0320F822303AE7BE
:102210004B788BB10A7830F822309BB223F4E0433C
:1022200023F0400383F0100343F4004343F08003A2
:1022300020F82230002070470A7830F822309BB214
:1022400023F4804323F0700383F4805343F400436A
:1022500043F0800320F82230ECE70B7B002B4BD1BE
:102260004B7833B30A7830F8223013F0400F0CD09B
:1022700030F822309BB223F4E04323F0700343F4A0
:10228000004343F0C00320F82230CB78012B33D039
:102290000A7830F822309BB223F4E04323F0400365
:1022A00083F0200343F4004343F0800320F82230FE
:1022B00022E00A7830F8223013F4804F0CD030F846
:1022C00022309BB223F4E04323F0700343F44043F5
:1022D00043F0800320F822300A7830F822309BB295
:1022E00023F4804323F0700383F4405343F400430A
:1022F00043F0800320F822300020704711B980237A
:10230000A0F84C3000207047002070470020704734
:10231000B0F8440080B270470020704710B45C1CD5
:10232000640800EB420202F5806207E00B7848780F
:1023300043EA002322F8043B0231013C002CF5D192
:1023400010BC704770B505460C464B78012B37D052
:102350000A7B002A40F026838B690A69934240F287
:1023600004839B1A8B61B5F850309BB22B442178C3
:1023700003EB0113002A40F0FC82B3F80C2492B264
:1023800022F4F84292B2A3F80C24B3F80C246FEABA
:1023900042426FEA524292B2A3F80C24227835F8F6
:1023A00022309BB223F4804323F0700383F4405324
:1023B00043F4004343F0800325F82230002070BD31
:1023C0008E690A69964200D91646237B002B39D0C4
:1023D000E378022B58D0227835F822309BB223F4D0
:1023E000E04323F0700343F4014343F0800325F8F6
:1023F0002230236A9B1B2362237835F8232012F0B6
:10240000400F00F026826278002A40F0CA81B5F8B9
:10241000502092B22A4402EB0313002E40F0A88110
:10242000B3F80C2492B222F4F84292B2A3F80C242E
:10243000B3F80C246FEA42426FEA524292B2A3F818
:102440000C24B0E1B6B23346E28861692846FFF752
:1024500065FFB5F850309BB22B44227803EB021392
:10246000A3F80464227835F822309BB223F4E043C9
:1024700023F0400383F0300343F4004343F0800330
:1024800025F8223000209AE7236A9A4280F0528190
:10249000227835F822309BB223F4E04323F0700316
:1024A00043F4014343F0800325F82230236A9B1B49
:1024B0002362237835F8232012F0400F00F09D802E
:1024C00062788ABBB5F8502092B22A4402EB03131B
:1024D0008EB9B3F80C2492B222F4F84292B2A3F867
:1024E0000C24B3F80C246FEA42426FEA524292B2D3
:1024F000A3F80C241AE03E2E09D8720816F0010F3A
:1025000000D00132920292B2A3F80C240EE07209BC
:1025100016F01F0F00D1013A6FEAC2626FEA524211
:1025200092B2A3F80C2401E0012A2BD0B3B2628945
:1025300061692846FFF7F2FE636933446361236AE9
:102540002269934228D99B1B23626378002B40D1D8
:10255000B5F850309BB22B44227803EB0213FEB93E
:10256000B3F8042492B222F4F84292B2A3F80424FD
:10257000B3F804246FEA42426FEA524292B2A3F8DF
:10258000042428E0B5F8502092B22A4402EB031349
:10259000B2B2A3F80C24C9E7002222621E46D4E797
:1025A0003E2E09D8720816F0010F00D001329202B7
:1025B00092B2A3F804240EE0720916F01F0F00D1A6
:1025C000013A6FEAC2626FEA524292B2A3F804245F
:1025D00001E0012B06D0B3B2228961692846FFF7DA
:1025E0009DFE3FE7B5F850309BB22B44227803EBB9
:1025F0000213B2B2A3F80424EDE762788ABBB5F8FF
:10260000502092B22A4402EB03138EB9B3F804248B
:1026100092B222F4F84292B2A3F80424B3F804244C
:102620006FEA42426FEA524292B2A3F804241AE0DF
:102630003E2E09D8720816F0010F00D00132920226
:1026400092B2A3F804240EE0720916F01F0F00D115
:10265000013A6FEAC2626FEA524292B2A3F80424CE
:1026600001E0012A2BD0B3B2228961692846FFF725
:1026700055FE636933446361236A2269934228D912
:102680009B1B23626378002B40D1B5F850309BB27E
:102690002B44227803EB0213FEB9B3F80C2492B258
:1026A00022F4F84292B2A3F80C24B3F80C246FEA97
:1026B00042426FEA524292B2A3F80C2428E0B5F8E5
:1026C000502092B22A4402EB0313B2B2A3F80424BE
:1026D000C9E7002222621E46D4E73E2E09D87208BE
:1026E00016F0010F00D00132920292B2A3F80C242E
:1026F0000EE0720916F01F0F00D1013A6FEAC262B4
:102700006FEA524292B2A3F80C2401E0012B06D0EA
:10271000B3B2628961692846FFF700FEA2E6B5F808
:1027200050309BB22B44227803EB0213B2B2A3F8D1
:102730000C24EDE7217835F8212092B222F4E24210
:1027400022F0700242F4004242F0800225F821207B
:10275000B5F8502092B22A44217802EB01129BB2C4
:10276000A2F80434228961692846FFF7D7FD79E68B
:102770003E2E09D8720816F0010F00D001329202E5
:1027800092B2A3F80C240EE0720916F01F0F00D1CC
:10279000013A6FEAC2626FEA524292B2A3F80C2485
:1027A00001E0012A26D0B3B2628961692846FFF7A9
:1027B000B5FD636933446361236A2269934223D977
:1027C0009B1B2362002E3FF44DAE63786BBBB5F8C4
:1027D00050309BB22B44227803EB02133E2E17D8C5
:1027E000720816F0010F00D00132920292B2A3F8E3
:1027F00004241CE0B5F8502092B22A4402EB0313E3
:10280000B2B2A3F80C24CEE7002222621E46D9E71A
:10281000720916F01F0F00D1013A6FEAC2626FEA27
:10282000524292B2A3F8042401E0012B06D0B3B2C5
:10283000228961692846FFF771FD13E6B5F850302B
:102840009BB22B44227803EB0213B2B2A3F8042408
:10285000EDE762788ABBB5F8502092B22A4402EBC9
:1028600003138EB9B3F8042492B222F4F84292B260
:10287000A3F80424B3F804246FEA42426FEA5242F8
:1028800092B2A3F804241AE03E2E09D8720816F07A
:10289000010F00D00132920292B2A3F804240EE09C
:1028A000720916F01F0F00D1013A6FEAC2626FEA97
:1028B000524292B2A3F8042401E0012A26D0B3B216
:1028C000228961692846FFF729FD63693344636102
:1028D000236A2269934223D99B1B2362002E3FF473
:1028E000C1AD63786BBBB5F850309BB22B442278F6
:1028F00003EB02133E2E17D8720816F0010F00D01A
:102900000132920292B2A3F80C241CE0B5F85020D8
:1029100092B22A4402EB0313B2B2A3F80424CEE726
:10292000002222621E46D9E7720916F01F0F00D15D
:10293000013A6FEAC2626FEA524292B2A3F80C24E3
:1029400001E0012B06D0B3B2628961692846FFF726
:10295000E5FC87E5B5F850309BB22B44227803EBB9
:102960000213B2B2A3F80C24EDE700228A611A46E2
:10297000F9E43E2A09D8510812F0010F00D00131C4
:10298000890289B2A3F80C1408E5510912F01F0F4F
:1029900000D101396FEAC1616FEA514189B2A3F8F0
:1029A0000C14FBE4CA78022A45D0012A40F02081A9
:1029B00089692269914240F2D480891AA161D3B910
:1029C000B5F850309BB22B44217803EB0113002A59
:1029D00040F0CB80B3F8041489B221F4F84189B2F5
:1029E000A3F80414B3F804146FEA41416FEA5141AB
:1029F00089B2A3F804146378002B40F0EA80B5F89C
:102A000050309BB22B44217803EB0113002A40F095
:102A1000C580B3F80C2492B222F4F84292B2A3F823
:102A20000C24B3F80C246FEA42426FEA524292B28D
:102A3000A3F80C24B2E4CBB9B0F850309BB20344F5
:102A40000A7803EB02130A6972BBB3F8042492B24A
:102A500022F4F84292B2A3F80424B3F804246FEAF3
:102A600042426FEA524292B2A3F804246378002BE8
:102A70004CD1B5F850309BB22B44227803EB0213B3
:102A8000226952BBB3F80C2492B222F4F84292B2FB
:102A9000A3F80C24B3F80C246FEA42426FEA5242C6
:102AA00092B2A3F80C2433E03E2A09D8510812F060
:102AB000010F00D001318A0292B2A3F80424D5E7B5
:102AC000510912F01F0F00D101396FEAC1626FEA9C
:102AD000524292B2A3F80424C8E73E2A09D851080A
:102AE00012F0010F00D001318A0292B2A3F80C2437
:102AF0000EE0510912F01F0F00D101396FEAC162D7
:102B00006FEA524292B2A3F80C2401E0012B1DD0CF
:102B1000E369002B3FF442AC227835F8221044F2EE
:102B2000400303EA01008B4302D000287FF436AC57
:102B300035F822309BB223F4E04323F0700343F4D2
:102B4000004343F0C00325F8223027E4B5F85030A5
:102B50009BB22B44227803EB0213228AA3F80C24A5
:102B6000D6E70022A2610A4629E73E2A09D8510881
:102B700012F0010F00D00131890289B2A3F80414C8
:102B800039E7510912F01F0F00D101396FEAC16115
:102B90006FEA514189B2A3F804142CE73E2A0AD8FF
:102BA000510812F0010F00D001318A0292B2A3F84D
:102BB0000C24FFF7F3BB510912F01F0F00D10139AC
:102BC0006FEAC1626FEA524292B2A3F80C24FFF797
:102BD000E5BB012B7FF4E2ABB5F850309BB22B4440
:102BE000217803EB011392B2A3F80C24FFF7D6BBB4
:102BF0000120FFF7E4BB10B45C0800EB420000F5D5
:102C0000806007E030F8042B0A70C2F307224A7094
:102C10000231013C002CF5D113F0010F01D00388E3
:102C20000B7010BC7047000010B504460E4B1878AE
:102C30004FF47A73B3FBF0F30C4A1068B0FBF3F077
:102C400000F0A0FD68B90F2C01D901200AE0002294
:102C500021464FF0FF3000F04FFD054B1C60002077
:102C600000E0012010BD00BF4E00002054000020F5
:102C70005000002008B5074A136843F010031360A2
:102C8000032000F027FD0F20FFF7CEFFFDF758FED1
:102C9000002008BD00200240034A1168034B1B7846
:102CA0000B441360704700BF200B00204E00002033
:102CB000014B1868704700BF200B002082B0084B02
:102CC0001B68084AA2FB03235B0A00FB03F3019382
:102CD00000BF019B5A1E0192002BF9D102B0704730
:102CE00054000020D34D6210002800F0F18170B52F
:102CF00082B00446036813F0010F2CD0994B5B6837
:102D000003F00C03042B1DD0964B5B6803F00C03FF
:102D1000082B12D06368B3F5803F41D0002B55D10A
:102D200003F1804303F504331A6822F480321A60F9
:102D30001A6822F480221A6037E08A4B5B6813F429
:102D4000803FE7D0874B1B6813F4003F03D06368D4
:102D5000002B00F0BF81236813F0020F75D0814B68
:102D60005B6813F00C0F5FD07E4B5B6803F00C03C5
:102D7000082B54D02369002B00F08A807A4B012263
:102D80001A60FFF795FF0546764B1B6813F0020F9C
:102D900075D1FFF78DFF401B0228F5D903209EE176
:102DA000704A136843F480331360636843B3FFF7DA
:102DB0007FFF05466B4B1B6813F4003FCBD1FFF739
:102DC00077FF401B6428F5D9032088E1B3F5A02FD5
:102DD00009D0644B1A6822F480321A601A6822F40F
:102DE00080221A60E1E703F18043A3F53C331A68BF
:102DF00042F480221A601A6842F480321A60D4E7E2
:102E0000FFF756FF0546574B1B6813F4003FA2D04F
:102E1000FFF74EFF401B6428F5D903205FE1514BBB
:102E20005B6813F4803FA5D14E4B1B6813F0020F73
:102E300003D02369012B40F04F814A4A136823F0E5
:102E4000F803616943EAC1031360236813F0080FB4
:102E500033D0A369002B5CD0434B0122C3F88024FC
:102E6000FFF726FF05463F4B5B6A13F0020F21D1A7
:102E7000FFF71EFF401B0228F5D903202FE1394A36
:102E8000136823F0F803616943EAC1031360DCE7C8
:102E9000354B00221A60FFF70BFF0546314B1B68CC
:102EA00013F0020FD1D0FFF703FF401B0228F5D922
:102EB000032014E10120FFF701FF236813F0040F42
:102EC00000F09680274BDB6913F0805F34D1254BEF
:102ED000DA6942F08052DA61DB6903F080530193D2
:102EE000019B0125214B1B6813F4807F26D0E368EA
:102EF000012B3DD0002B53D103F1804303F5043364
:102F00001A6A22F001021A621A6A22F004021A6294
:102F100033E0154B0022C3F88024FFF7C9FE0546B5
:102F2000104B5B6A13F0020FC7D0FFF7C1FE401BC6
:102F30000228F5D90320D2E00025D3E70B4A136815
:102F400043F480731360FFF7B3FE0646074B1B681C
:102F500013F4807FCBD1FFF7ABFE801B6428F5D93B
:102F60000320BCE00010024000004242007000401C
:102F70005F4A136A43F001031362E36833B3FFF758
:102F800097FE06465A4B1B6A13F0020F2FD1FFF72C
:102F90008FFE801B41F288339842F3D903209EE0D4
:102FA000052B09D0524B1A6A22F001021A621A6AE2
:102FB00022F004021A62E0E74D4B1A6A42F0040262
:102FC0001A621A6A42F001021A62D6E7FFF770FE2F
:102FD0000646474B1B6A13F0020F08D0FFF768FE46
:102FE000801B41F288339842F3D9032077E0E5B99A
:102FF000E369002B72D03E4A526802F00C02082AA4
:1030000056D0022B17D03B4B00221A66FFF750FE1A
:103010000446374B1B6813F0007F47D0FFF748FE8C
:10302000001B0228F5D9032059E0314AD36923F067
:103030008053D361DCE72F4B00221A66FFF738FE7E
:1030400005462B4B1B6813F0007F06D0FFF730FEC0
:10305000401B0228F5D9032041E0236AB3F5803FE5
:103060001AD023494B6823F47413226A606A02431E
:1030700013434B601F4B01221A66FFF719FE0446EB
:103080001B4B1B6813F0007F0ED1FFF711FE001BD6
:103090000228F5D9032022E0154A536823F40033AF
:1030A000A1680B435360DCE7002018E0002016E025
:1030B000012B16D00E4B5B6803F48031226A9142DB
:1030C00011D103F47013626A93420ED1002006E01E
:1030D00001207047012002E0012000E0002002B042
:1030E00070BD0120FBE70120F9E70120F7E700BFF1
:1030F0000010024000004242014B0122DA64704796
:103100000000424286B0174B0FCB0DF1180C0CE9B2
:103110000F0040F20123ADF80430134B5B6803F05D
:103120000C02082A02D0114806B07047C3F383424C
:1031300018326A4412F8100C13F4803F0DD00A4B79
:103140005B68C3F3404318336B4413F8143C074ADD
:1031500002FB00F0B0FBF3F0E6E7054B03FB00F0E9
:10316000E2E700BF507600080010024000127A002B
:1031700000093D00002800F0A08070B50D4604460F
:10318000524B1B6803F007038B420BD24F4A136864
:1031900023F007030B431360136803F007038B420C
:1031A00040F08D80236813F0020F17D013F0040F46
:1031B00004D0474A536843F4E0635360236813F034
:1031C000080F04D0424A536843F460535360404AA6
:1031D000536823F0F003A1680B435360236813F096
:1031E000010F31D06368012B20D0022B25D0384A43
:1031F000126812F0020F64D035494A6822F00302C7
:1032000013434B60FFF754FD0646314B5B6803F0F8
:103210000C036268B3EB820F16D0FFF749FD801BE9
:1032200041F288339842F0D9032045E0284A1268D9
:1032300012F4003FE0D101203EE0254A126812F06E
:10324000007FD9D1012037E0204B1B6803F0070332
:10325000AB420AD91D4A136823F007032B431360BE
:10326000136803F00703AB422DD1236813F0040F5A
:1032700006D0174A536823F4E063E1680B435360B8
:10328000236813F0080F07D0114A536823F46053E2
:10329000216943EAC1035360FFF734FF0C4B5B68BD
:1032A000C3F303130B4AD35CD8400B4B18600B4B92
:1032B0001868FFF7B9FC002070BD0120704701209D
:1032C000FAE70120F8E70120F6E700BF00200240FE
:1032D00000100240647600085400002050000020D6
:1032E000014B1868704700BF5400002008B5FFF775
:1032F000F7FF044B5B68C3F30223034AD35CD84057
:1033000008BD00BF001002407476000808B5FFF742
:10331000E7FF044B5B68C3F3C223034AD35CD84086
:1033200008BD00BF0010024074760008704700001E
:1033300008B5064B9B6813F0800F00D108BDFFF75E
:10334000F5FF024B80229A72F8E700BF001002409E
:1033500070B582B00446036813F0010F36D03F4BBE
:10336000DB6913F0805F49D13C4BDA6942F080524F
:10337000DA61DB6903F080530193019B0125384B2F
:103380001B6813F4807F3BD0344B1B6A13F44073EB
:1033900013D0626802F440729A420ED02F4A136A28
:1033A00023F440702F490126C1F840640026C1F87B
:1033B0004064106213F0010F36D1284A136A23F4D7
:1033C000407361680B431362002D3ED1236813F0F4
:1033D000020F06D0214A536823F44043A1680B43EF
:1033E0005360236813F0100F34D01C4A536823F441
:1033F0008003E1680B43536000202CE00025BEE70A
:10340000174A136843F480731360FFF751FC0646B4
:10341000134B1B6813F4807FB6D1FFF749FC801B68
:103420006428F5D9032016E0FFF742FC06460B4B53
:103430001B6A13F0020FC0D1FFF73AFC801B41F268
:1034400088339842F3D9032005E0D36923F08053F1
:10345000D361BBE7002002B070BD00BF0010024086
:10346000007000400000424270B582B00024A446C3
:10347000A6E0804DAA4210D007D97F4DAA420CD0B9
:1034800005F58035AA4208D013E0A5F58015AA42BB
:1034900003D005F57025AA4207D18A68002A58D0C2
:1034A000012A51D04361082403E0A5F58015AA4202
:1034B000F3D0BEF1FF0F4ED80646BEF1FF0F4CD839
:1034C0004FEA8C0233680F25954023EA050304FA7E
:1034D00002F2134333604B6813F0805F6ED0674B8A
:1034E0009A6942F001029A619B6903F0010301931A
:1034F000019B4FEA9C02951C614B53F825600CF030
:1035000003039D000F23AB4026EA03065D4B984260
:1035100029D003F58063984200F08E8003F5806324
:10352000984200F08B8003F58063984219D0042301
:103530001AE0CC68BDE7CC680434BAE7CC6808343C
:10354000B7E7CC680C34B4E703610824B1E7002482
:10355000AFE70424ADE7061DAFE7ACF10802920027
:10356000B0E7032300E00023AB4033430232444D75
:1035700045F822304B6813F4803F61D0424A13680B
:1035800043EA0E0313604B6813F4003F5ED03E4ADB
:10359000536843EA0E0353604B6813F4801F5BD0FB
:1035A000394A936843EA0E0393604B6813F4001F93
:1035B00058D0354AD36843EA0E03D3600CF1010CAE
:1035C0000A6832FA0CF353D0012303FA0CF302EA2F
:1035D000030E33EA0202F1D14A68122A3FF649AFDC
:1035E000122A3FF666AF01A555F822F09B34000879
:1035F000333500083D3500084F350008B334000866
:10360000B3340008B3340008B3340008B3340008FE
:10361000B3340008B3340008B3340008B3340008EE
:10362000B3340008B3340008B3340008B3340008DE
:103630003735000843350008012395E7022393E757
:10364000114A136823EA0E0313609CE70E4A53687D
:1036500023EA0E0353609FE70B4A936823EA0E03A5
:103660009360A2E7084AD36823EA0E03D360A5E774
:1036700002B070BD000022100000311000100240A6
:103680000000014000080140000401408368194225
:1036900001D001207047002070470AB101617047D6
:1036A000090401617047C36801EA030221EA0301CA
:1036B00041EA02410161704708B5054B5B6903426D
:1036C00000D108BD024B586102F0BAFEF9E700BF15
:1036D00000040140074AD36823F4E0631B041B0C79
:1036E000000200F4E060034343F0BF6343F400339F
:1036F000D360704700ED00E000B5194BDB68C3F301
:103700000223C3F1070CBCF1040F28BF4FF0040CD7
:1037100003F1040EBEF1060F18D9033B4FF0FF3E34
:103720000EFA0CFC21EA0C0199400EFA03F322EA8E
:103730000303194300280BDB0901C9B200F1604003
:1037400000F5614080F800135DF804FB0023E5E715
:1037500000F00F000901C9B2024B1954F4E700BF91
:1037600000ED00E014ED00E0002807DB00F01F0290
:10377000400901239340024A42F82030704700BFBD
:1037800000E100E00138B0F1807F0BD24FF0E02380
:103790005861054AF02182F8231000209861072221
:1037A0001A6170470120704700ED00E070B4036AB1
:1037B00023F001030362036A4668826922F0730200
:1037C0000C6844EA020523F002028B6813430D4C97
:1037D000A04209D00B4CA0420DD0466085614A68DA
:1037E0004263036270BC704723F00803CA68134346
:1037F00023F00403EEE726F440764A6932438E69EB
:103800001643EAE7002C014030B4036A23F48073C6
:103810000362036A4568C26922F073020C6822439E
:1038200023F400738C6843EA04230F4CA04209D0B0
:103830000D4CA0420ED04560C2614A68C26303626B
:1038400030BC704723F40063CC6843EA042323F4BC
:103850008063EDE725F440554C6945EA04158C6911
:1038600045EA0415E7E700BF002C014030B4036AC5
:1038700023F480530362036A4468C26922F4E64277
:103880000D6842EA052223F400538D6843EA0533AC
:10389000074DA84206D04460C2614A6802640362D0
:1038A00030BC704724F480444D6944EA8514F2E743
:1038B000002C014003681B4A90420AD0B0F1804FAF
:1038C00007D0A2F59432904203D002F58062904274
:1038D00003D123F070034A681343124A90420AD07E
:1038E000B0F1804F07D0A2F59432904203D002F598
:1038F0008062904203D123F44073CA68134323F0DB
:1039000080034A69134303608B68C3620B68836258
:10391000044B984202D00123436170470B69036353
:10392000F9E700BF002C014040B310B5044690F801
:103930003D30F3B1022384F83D30214651F8040BA9
:10394000FFF7B8FF012384F8463084F83E3084F84E
:103950003F3084F8403084F8413084F8423084F8B5
:10396000433084F8443084F8453084F83D300020FA
:1039700010BD80F83C30FCF745FDDBE701207047C7
:1039800030B4036A23F010030362036A4468826957
:1039900022F4E6420D6842EA052223F020038D68F6
:1039A00043EA05130E4DA84209D00D4DA8420ED092
:1039B000446082614A688263036230BC704723F0CE
:1039C0008003CD6843EA051323F04003EDE724F4B8
:1039D00040644D6944EA85048D6944EA8504E7E75B
:1039E000002C014038B590F83C30012B60D00446E3
:1039F0000D46012380F83C300C2A1AD8DFE802F08B
:103A0000071919191D1919193119191944000068D4
:103A1000FFF7CCFE2268936943F0080393612268A4
:103A2000936923F0040393612268936929690B4326
:103A30009361002084F83C0038BD0068FFF7A0FFC8
:103A40002268936943F4006393612268936923F4C5
:103A50008063936122689369296943EA0123936132
:103A6000E7E70068FFF7D0FE2268D36943F0080358
:103A7000D3612268D36923F00403D3612268D36938
:103A800029690B43D361D4E70068FFF7EFFE226892
:103A9000D36943F40063D3612268D36923F480635C
:103AA000D3612268D369296943EA0123D361C0E75E
:103AB0000220C1E701F01F01012303FA01FC036AA0
:103AC00023EA0C030362036A02FA01F10B43036267
:103AD0007047000010B50446084651BB94F83E30CC
:103AE000DBB2013B18BF0123002B5BD1002839D189
:103AF000022384F83E30012201462068FFF7DAFFF6
:103B000023682A4A93423DD02368284A93423ED0F4
:103B1000B3F1804F3BD0A2F59432934237D002F5F7
:103B20008062934233D01A6842F001021A6000208A
:103B300039E0042908D008290DD094F84130DBB2CF
:103B4000013B18BF0123CFE794F83F30DBB2013BC4
:103B500018BF0123C8E794F84030DBB2013B18BF1F
:103B60000123C1E7042805D0082807D0022384F8E0
:103B70004130C0E7022384F83F30BCE7022384F8D9
:103B80004030B8E75A6C42F400425A64BCE79A6885
:103B900002F00702062A07D01A6842F001021A60F2
:103BA000002000E0012010BD0020FCE7002C0140B7
:103BB00090F83C30012B2CD010B4012380F83C301D
:103BC000022380F83D3003685A689C6822F0700C2C
:103BD0000A6842EA0C025A6003680F4A93420AD00C
:103BE000B3F1804F07D0A2F59432934203D002F58F
:103BF0008062934204D124F080044A6814439C609C
:103C0000012380F83D30002380F83C30184610BC7A
:103C100070470220704700BF002C014090F83C30F4
:103C2000012B22D0012380F83C30CB6823F4407371
:103C30008A68134323F480634A68134323F40063C0
:103C40000A68134323F480530A69134323F400538F
:103C50004A69134323F48043CA69134302685364D7
:103C6000002380F83C30184670470220704700005F
:103C700010B504460268136923F44053C1680B432E
:103C8000136183680269134342691A430168CB6870
:103C900023F4B05323F00C031343CB600268536941
:103CA00023F4407381690B4353610268134B9A42BA
:103CB00020D0FFF71BFB024602EB820202EB8202DE
:103CC00063689B00B2FBF3F20D48A0FB0231490987
:103CD000642303FB11231B013233A0FB03235B0985
:103CE00003F0F00202EB011203F00F03216813440A
:103CF0008B6010BDFFF70AFB0246DDE7003801408C
:103D00001F85EB5158B310B5044690F83D300BB306
:103D1000242384F83D302268D36823F40053D36011
:103D20002046FFF7A5FF2268136923F4904313612F
:103D30002268536923F02A0353612268D36843F44D
:103D40000053D36000202064202384F83D3084F8A1
:103D50003E3010BD80F83C30FCF78CFDD8E70120E8
:103D60007047704700F1080343604FF0FF328260F4
:103D7000C360036100230360704700230361704741
:103D800043684B609A688A60516099600861036873
:103D900001330360704730B40D68B5F1FF3F11D0B7
:103DA00000F108031C465B681A68AA42FAD96368E6
:103DB0004B6099608C606160086103680133036047
:103DC00030BC70470469F2E70369416882688A6021
:103DD000416851605A68824206D0002202611A6826
:103DE000013A1A601868704782685A60F5E710B5A2
:103DF000044601F0BFFCA26BE36B9A4204D000249E
:103E000001F0C8FC204610BD0124F9E710B50446B6
:103E100001F0B0FCA36B23B9012401F0BBFC2046E8
:103E200010BD0024F9E770B504461546866B026C98
:103E30005AB903681BB100200136A66370BD406803
:103E400000F0F6FE00236360F6E76DB9806802F0CB
:103E50007DFB226CA3681344A3606268934219D36C
:103E60002368A3602846E7E7C06802F06FFB226C76
:103E70005142E3689B1AE3602268934202D263686E
:103E80000B44E360022D01D00020D5E726B1013EAE
:103E90000020D1E72846CFE70020CDE708B503464C
:103EA000026C62B10846D9681144D960D3F804C0E5
:103EB000614501D31968D960D96802F047FB08BD94
:103EC00038B5054601F056FC95F8454064B201E06E
:103ED000013C64B2002C0ADD6B6A43B105F1240099
:103EE00000F01AFE0028F3D000F08CFEF0E7FF236C
:103EF00085F8453001F04EFC01F03CFC95F844405B
:103F000064B201E0013C64B2002C0ADD2B6943B1CC
:103F100005F1100000F000FE0028F3D000F072FE62
:103F2000F0E7FF2385F8443001F034FC38BD38B5A4
:103F300004460D4601F01EFC2368E26B216C01FB78
:103F4000023060600020A063A360013A02FB0133ED
:103F5000E360FF2384F8443084F84530B5B9236921
:103F60001BB901F017FC012038BD04F1100000F06E
:103F7000D3FD0028F5D04FF0E0234FF08052C3F876
:103F8000042DBFF34F8FBFF36F8FEAE704F11000EA
:103F9000FFF7E8FE04F12400FFF7E4FEE1E738B59F
:103FA0001D46049C0B4649B92460E063236401214B
:103FB0002046FFF7BCFF84F84C5038BD2260F4E780
:103FC00010B582B01C463BB1012384F84630009402
:103FD0009DF81030FFF7E3FF204602B010BDF0B5AA
:103FE00083B0044616460F46A1B100FB01F05030E5
:103FF00001F0F0FA054650B1002380F846300090F9
:10400000334600F1500239462046FFF7C8FF2846E4
:1040100003B0F0BD0846EAE710B582B00C4613467F
:104020000222009200221146FFF7CAFF00B184630A
:1040300002B010BD10B50C4602220021FFF7CFFFE1
:1040400000B1846310BDF0B585B004460F460192FF
:104050001D4600263DE02A4639462046FFF7E3FE8E
:10406000636A7BB948B14FF0E0234FF08052C3F848
:10407000042DBFF34F8FBFF36F8F01F08BFB012037
:1040800005B0F0BD04F1240000F046FD0028F4D096
:104090004FF0E0234FF08052C3F8042DBFF34F8F51
:1040A000BFF36F8FE9E701F075FB0020E8E702A896
:1040B00000F06EFD012619E0002384F8443021E071
:1040C000002384F8453023E02046FFF7F9FE00F096
:1040D00037FC01F04FFBA26BE36B9A42BBD3022D7E
:1040E000B9D0019B002BDED0002EE0D001F052FBB6
:1040F00000F098FB01F03EFB94F8440040B2B0F1B0
:10410000FF3FD9D094F8450040B2B0F1FF3FD7D07F
:1041100001F040FB01A902A800F046FDD8B92046F5
:10412000FFF765FE0028CFD0019904F1100000F0E0
:10413000D3FC2046FFF7C4FE00F002FC0028C8D1E3
:104140004FF0E0234FF08052C3F8042DBFF34F8FA0
:10415000BFF36F8FBDE72046FFF7B2FE00F0F0FB24
:1041600000208DE7F8B5044617461A46EFF311868E
:104170004FF0500383F31188BFF36F8FBFF34F8F5E
:10418000806BE36B984205D3022A03D0002086F3AC
:104190001188F8BD94F845506DB22046FFF743FEF4
:1041A000B5F1FF3F05D001356DB284F845500120CF
:1041B000EDE7636A0BB90120E9E704F1240000F0A0
:1041C000ABFC18B127B101203860E0E70120DEE741
:1041D0000120DCE7F0B585B004460F4601920026C9
:1041E0003EE039462046FFF759FE013DA5632369AD
:1041F00023B901F0CFFA012005B0F0BD04F11000A1
:1042000000F08AFC0028F4D04FF0E0234FF08052F9
:10421000C3F8042DBFF34F8FBFF36F8FE9E701F0B1
:10422000B9FA0020E8E702A800F0B2FC012621E07C
:10423000002384F8443029E0002384F845302BE043
:104240002046FFF73DFE00F07BFB09E02046FFF72C
:1042500037FE00F075FB2046FFF7D8FD00283FD160
:1042600001F088FAA56B002DBBD1019B002BD6D0A5
:10427000002ED8D001F08EFA00F0D4FA01F07AFACC
:1042800094F844305BB2B3F1FF3FD1D094F845309D
:104290005BB2B3F1FF3FCFD001F07CFA01A902A8D5
:1042A00000F082FC0028D1D12046FFF7AFFD0028A6
:1042B000C6D0019904F1240000F00EFC2046FFF75F
:1042C000FFFD00F03DFB0028CAD14FF0E0234FF086
:1042D0008052C3F8042DBFF34F8FBFF36F8FBFE73A
:1042E000002089E72DE9F041EFF311884FF05003EA
:1042F00083F31188BFF36F8FBFF34F8F866B26B99F
:10430000002088F31188BDE8F0810446154690F836
:1043100044707FB2FFF7C2FD013EA663B7F1FF3FD5
:1043200005D001377FB284F844700120E9E72369A2
:104330000BB90120E5E704F1100000F0EDFB18B126
:1043400025B101202860DCE70120DAE70120D8E769
:104350000023072B0CD8074A52F833200AB1013347
:10436000F7E7044A42F8331002EBC3035860704782
:10437000704700BF240B00200023072B0FD8084AEA
:1043800002EBC3025268824201D00133F5E7044ACE
:10439000002142F8331002EBC303596070477047A5
:1043A000240B002010B50446FFF7E6FF94F84630D2
:1043B00003B110BD204601F06DF9FAE770B504466F
:1043C0000D46164601F0D6F994F844305BB2B3F1CD
:1043D000FF3F0DD094F845305BB2B3F1FF3F0BD0F7
:1043E00001F0D8F9A36B5BB12046FFF769FD70BD02
:1043F000002384F84430EDE7002384F84530EFE7EC
:104400003246294604F1240000F074FBECE700007A
:10441000084B1B681B6823B9074B4FF0FF321A602B
:104420007047044B1B68DB68DB685A68024B1A60F4
:10443000704700BF680B0020141000202DE9F047E2
:1044400080460D4617469946089EDDF824A00A9C32
:104450009200A521206B02F087F8236B07F18042C0
:10446000013A03EB820727F007074FF0000CBCF17D
:104470000F0F0BD815F80C2004EB0C0383F8342035
:1044800015F80C3013B10CF1010CF0E7002384F89F
:104490004330372E00D93726E662E66400252565CD
:1044A000201DFFF76AFC04F11800FFF766FC246189
:1044B000C6F13806A6616462656584F858504A46BC
:1044C0004146384601F02CF92060BAF1000F01D0C6
:1044D000CAF80040BDE8F08738B5002407E004EBD7
:1044E000840293000E481844FFF73CFC0134372C3B
:1044F000F5D90C4D2846FFF735FC0B4C2046FFF74D
:1045000031FC0A48FFF72EFC0948FFF72BFC09484D
:10451000FFF728FC084B1D60084B1C6038BD00BF2E
:10452000700B0020E80F0020FC0F00201C10002062
:104530004810002034100020680B00206C0B002075
:1045400010B5044601F016F9224A136801331360CE
:10455000214B1B685BB1214B1B686BB91E4B1B6861
:10456000DA6AE36A9A4207D81B4B1C6004E01A4BD4
:104570001C601368012B29D0194A1368013313609A
:104580006364E06A174B1B68984201D9154B1860A9
:1045900000EB8000211D144B03EB8000FFF7F0FBC4
:1045A00001F0F8F80D4B1B687BB10B4B1B68DA6A06
:1045B000E36A9A4209D24FF0E0234FF08052C3F8E9
:1045C000042DBFF34F8FBFF36F8F10BDFFF784FF34
:1045D000D2E700BFD00F0020640B00203010002075
:1045E000E00F0020E40F0020700B002010B50446FF
:1045F00090F8593013B1012B07D010BD006B01F0BA
:1046000049F8204601F046F8F7E701F043F8F4E7EF
:104610000F4B1B68D3B110B501F0ACF80D4BDB6844
:10462000DC68201DFFF7D0FB0B4A1368013B1360C9
:10463000074A1368013B136001F0ACF82046FFF70E
:10464000D5FF034B1B68002BE6D110BD704700BFA0
:10465000D40F002048100020D00F002008B5FFF72D
:10466000D7FF074B1B68012BF9D94FF0E0234FF020
:104670008052C3F8042DBFF34F8FBFF36F8FEEE767
:10468000700B002070B504460D46174B1E68174B83
:1046900018680430FFF798FBB4F1FF3F0DD03444A5
:1046A000124B1B685C60A64210D9114B18680F4B67
:1046B00019680431FFF76FFB70BD002DEFD00B4B75
:1046C000196804310B48FFF75BFBF5E70A4B1868E4
:1046D000064B19680431FFF75EFB084B1B68A342C9
:1046E000EAD9064B1C60E7E75C100020640B002051
:1046F0006C0B002034100020680B002014100020E8
:1047000030B587B00B9D0C9C8CB185B1256302251B
:1047100084F8595000250395029405AD01950A9D32
:104720000095FFF78BFE2046FFF70AFF01E000230C
:104730000593059807B030BD2DE9F04385B00746D5
:10474000884614461E46900000F044FF00B38146A0
:104750005C2000F03FFF0546B0B1C0F83090E5B1F5
:10476000002385F85930039302950D9B01930C9B10
:1047700000933346224641463846FFF75FFE2846FF
:10478000FFF7DEFE012005E0484600F083FFE6E784
:104790004FF0FF3005B0BDE8F0834FF0FF30F9E790
:1047A00010B588B000240594069407AA06A905A8A8
:1047B00000F096FE059B0293069B0193009423460E
:1047C000079A12491248FFF79BFF124B186028B155
:1047D00000F0C8FA012803D008B010BD0020F9E7A6
:1047E0004FF0500383F31188BFF36F8FBFF34F8FE8
:1047F000094B4FF0FF321A60084B01221A60084B38
:1048000000221A6001F020F8E6E700BF7C7600087D
:104810005D46000810100020141000203010002009
:104820005C100020024A136801331360704700BF18
:10483000DC0F0020014B1868704700BF5C1000209F
:10484000F8B5344B1B68002B58D1334B1E6801362A
:104850001E6086B1314B1B68B34245D90027304BEF
:104860001B68DB6A03EB83039A002E4B9B58012BDA
:1048700049D9012747E02C4A11682C4B1868106071
:1048800019602B4A136801331360FFF7C1FDE1E79C
:104890000127254B1B681B6843B3234B1B68DB6850
:1048A000DC6863689E4226D3251D2846FFF78CFAF4
:1048B000A36A1BB104F11800FFF786FAE36A1D4AE8
:1048C0001268934201D91B4A136003EB83039A00D9
:1048D000294614481044FFF753FAE26A104B1B684C
:1048E000DB6A9A42D4D2D4E70027D2E70B4B4FF0D1
:1048F000FF321A60B3E7094A1360B0E70E4A136843
:104900000133136000270D4B1B6803B101273846A4
:10491000F8BD00BFDC0F00205C1000201410002048
:10492000640B0020700B0020680B00206C0B002033
:1049300018100020E40F0020D80F00206010002085
:1049400038B500F017FF2E4B1A68013A1A601B6841
:10495000002B4FD12B4B1B680BB900244BE00024DC
:10496000294B1B681BB3284BDB68DC6804F118007B
:10497000FFF72AFA251D2846FFF726FAE06A234B9F
:104980001B68984201D9214B186000EB8000294632
:104990001F4B03EB8000FFF7F3F9E26A1D4B1B6826
:1049A000DB6A9A42DCD31C4B01221A60D8E70CB1B7
:1049B000FFF72EFD194B1C6884B9174B1C68D4B146
:1049C0004FF0E0234FF08052C3F8042DBFF34F8F18
:1049D000BFF36F8F01240EE0013C07D0FFF730FFDB
:1049E0000028F9D00C4B01221A60F5E70B4B00228E
:1049F0001A60E2E7002400F0CDFE204638BD00BF7B
:104A0000DC0F0020D00F00201C100020E40F00203D
:104A1000700B0020640B002060100020D80F0020D5
:104A200010B550B94FF0E0234FF08052C3F8042D79
:104A3000BFF34F8FBFF36F8F10BD0446FFF7F2FE39
:104A400000212046FFF71EFEFFF77AFF0028F3D172
:104A5000E8E700001B4B1B681BB11B4B01221A60CF
:104A60007047194B00221A60184B1B6800E0013B8D
:104A700003EB83018A0016498A58002AF7D003EB1A
:104A8000830082000A4450684068506003EB830C46
:104A90004FEA8C020832114488420BD003EB8302A8
:104AA00091000B4A0A445268D1680A4A1160074AC9
:104AB00013607047406862469100054A0A4450609E
:104AC000ECE700BFDC0F002060100020E40F0020A6
:104AD000700B0020640B002010B50C46044B1968C5
:104AE0001831FFF758F901212046FFF7CBFD10BD23
:104AF000640B002038B50D461446064B1968183172
:104B0000FFF73EF90CB14FF0FF3521462846FFF77D
:104B1000B9FD38BD640B002038B5C368DC6804F10A
:104B200018052846FFF750F9134B1B68E3B9251DFC
:104B30002846FFF749F9E06A104B1B68984201D9F3
:104B40000E4B186000EB800029460D4B03EB8000F4
:104B5000FFF716F9E26A0B4B1B68DB6A9A4208D929
:104B60000120094B186038BD29460848FFF708F9AD
:104B7000F0E70020F7E700BFDC0F0020E40F002083
:104B8000700B0020640B0020601000201C1000201F
:104B9000034B1B680360034B1B684360704700BFF7
:104BA000181000205C10002070B504460D4600F07F
:104BB000E1FD124B19686368C81A2A68B2F1FF3F19
:104BC00015D00F4E3668D4F800C0B44501D08B42E2
:104BD00012D9824203D800232B60012408E05B1A1B
:104BE00013442B602046FFF7D3FF002400E000248D
:104BF00000F0D0FD204670BD0124F9E75C100020D4
:104C000018100020014B01221A607047601000202C
:104C1000054B1B6833B1054B1B680BB10020704777
:104C2000022070470120704730100020DC0F002068
:104C300020B338B50446036D013B0365C16AC26CFD
:104C400091421DD00BB1002038BD051D2846FFF74D
:104C5000BBF8E06CE062C0F13803A361094B1B684C
:104C6000984201D9074B186000EB80002946064B9B
:104C700003EB8000FFF784F80120E5E70020704790
:104C80000020E1E7E40F0020700B0020064B1A68BB
:104C90001368B3FA83F35B09036013B9D368186828
:104CA00070470020704700BF6410002008B54160C5
:104CB000006191420CD8D21A83699A4201D3012033
:104CC00008BD011D094B1868FFF765F80020F7E7DC
:104CD0009A4201D2994206D2011D054B1868FFF78E
:104CE0005AF80020ECE70120EAE700BF6810002036
:104CF0006410002030B583B000F03CFD114B1B6800
:104D00001BB100F047FD03B030BD0F4D2846FFF743
:104D100029F80E4C2046FFF725F80D4B1D600D4B72
:104D20001C60002300930C4B0C4A10210A20FFF753
:104D300047F9044B18600028E3D00949FFF708FB46
:104D4000DFE700BF881100200C1100202011002097
:104D50006410002068100020381100206C10002022
:104D60008476000810B588B0FFF7C4FF104B1B68AD
:104D7000D3B100240594069407AA06A905A800F05B
:104D8000BBFB059B0293069B0193022300932346E2
:104D9000079A08490848FFF7B3FC084B186008B1A8
:104DA000012002E0204600E0002008B010BD00BF56
:104DB000881100208C760008395000088C110020E2
:104DC00010B584B09C46134B1C6804B3009101924B
:104DD0000290052913DCFFF71BFF022807D00023F0
:104DE0001A4669460B480068FFF72DF90DE00023CD
:104DF000069A694607480068FFF725F905E0002391
:104E0000624669462046FFF7ADF904B010BD0020A8
:104E1000FBE700BF8811002070B582B0154B1B68FE
:104E20001A6802B3DB681E68DC68251D2846FEF799
:104E3000CBFF636A20469847E369012BEED1A36953
:104E400033449E4207D2636024612946094B1868A7
:104E5000FEF7A1FFE2E7002100910B463246204613
:104E6000FFF7AEFFDAE7044A1068024908601360F2
:104E700002B070BD641000206810002038B50546EF
:104E8000FFF7D8FC0446074B1B68834205D8002374
:104E90002B60044B1C60204638BDFFF7BDFF01238B
:104EA0002B60F6E73411002070B582B006460D463F
:104EB0000F490968C968CC68201DFEF785FFE169C4
:104EC000012904D0636A2046984702B070BDA169E9
:104ED00033462A4631442046FFF7E8FE0028F1D049
:104EE000002100910B4632462046FFF769FFE9E7B3
:104EF0006410002070B582B006460C46FFF792FCA5
:104F000001A8FFF7BBFF019B2BBB05460CB9B042C4
:104F10001AD22CB1124B1B681C68B4FA84F46409D1
:104F20002246711B0F4B1868FFF748FAFFF708FD80
:104F300098B94FF0E0234FF08052C3F8042DBFF32F
:104F40004F8FBFF36F8F08E0FFF7FAFC294630461A
:104F5000FFF7AAFF01E0FFF7F3FC02B070BD00BF4E
:104F6000681000208811002010B588B002E0049B72
:104F7000002B0FDA002204A92E4B1868FFF72AF93C
:104F8000002855D0049B002BF1DA07990698059B61
:104F90009847ECE7069C636913B1201DFEF714FFE8
:104FA00003A8FFF76BFF049B092BE3D801A252F87B
:104FB00023F000BFDD4F0008DD4F0008DD4F000883
:104FC000754F00080F50000821500008DD4F000801
:104FD000DD4F0008754F00080F500008059BA169C0
:104FE000024619442046FFF761FE0028C2D0636ADA
:104FF00020469847E369012BBCD1A26900210091AA
:105000000B46059802442046FFF7DAFEB2E7059901
:10501000A1610346024601442046FFF747FEA9E787
:1050200094F82C30002BA5D1204600F033FBA1E7EB
:1050300008B010BD8811002000B583B001A8FFF7AB
:1050400025FE0199FFF756FFFFF78EFFF6E70000F8
:10505000EFF3058393B9EFF3108393B90C4B186802
:10506000022804D080B90A4B01221A607047EFF37E
:105070001183002BF6D06FF0050070476FF005002C
:1050800070476FF0050070474FF0FF30704700BF6A
:10509000EC13002008B5EFF30583B3B9EFF31083E9
:1050A000B3B90E4B1B68022B08D0012B13D10B4B4D
:1050B00002221A60FFF774FB002008BDEFF3118293
:1050C000002AF2D06FF00500F7E76FF00500F4E773
:1050D0006FF00500F1E74FF0FF30EEE7EC13002032
:1050E000F0B587B000240494EFF30584002C43D17D
:1050F000EFF31083002B3FD1334B1B68022B16D0EC
:10510000002839D000238DF8173062B3156895B1A7
:10511000936903B918235C1E372C51D8546814F0D6
:10512000010F4FD156694EB14FEA960C08E0EFF3EC
:1051300011830BBBE4E70DF11705E9E74FF0800C95
:1051400094682CB1D7685B2F02D9176907B1B6B93B
:1051500014B14FF0FF340CE0D46894B914699CB1D9
:105160004FF0FF3405E0002418234FF0800C0DF1C0
:105170001705012C0AD0ACB1049807B0F0BD01248A
:10518000F7E74FF0FF34F4E70024F2E71469926880
:105190000292019400930B4662462946FFF7B0FA4B
:1051A0000490E9E704AA019200930B461FFA8CF2DF
:1051B0002946FFF7C1FA0128DED000230493DBE77C
:1051C0000020DAE70020D8E7EC13002008B5EFF361
:1051D0000583A3B9EFF31083A3B90C4B1B68022B13
:1051E00002D040B9002008BDEFF31183002BF8D0A6
:1051F0006FF00500F7E7FFF713FC0020F3E76FF00F
:105200000500F0E76FF00500EDE700BFEC130020AC
:1052100070B582B0EFF30583002B57D10E461546CB
:10522000EFF31083002B55D12E4B1B68022B0ED0B1
:10523000002851D0B04251D37DB1AC6814B1EB68B5
:105240004F2B1AD8002C4BD1EB683BB13FE0EFF36A
:105250001183002BECD0002439E0002301280ED06C
:1052600073BB3146FEF7E6FE044684B305B12D68F4
:1052700029462046FFF76CF829E00123EEE7B3B991
:10528000032200210120FEF7AAFE0446002CECD0E8
:10529000002EEAD000231A4619462046FEF7D3FE18
:1052A0000128E2D02046FFF77DF800240FE0AB682C
:1052B0000322009200221146FEF782FE0446E5E733
:1052C000AA683146FEF7A8FE0446CEE70024204631
:1052D00002B070BD0024FAE70024F8E70024F6E7E6
:1052E0000024F4E7EC13002030B583B0EFF305831E
:1052F000002B49D11546EFF31083002B48D1284BE2
:105300001B68022B21D0002844D0002944D0A5B32B
:10531000AB6853B1EA684F2A07D92A692AB101FB61
:1053200000F4D5F814C0A44521D2A3B14FF0FF3347
:10533000A3BB0022FEF753FE044634B305B12D682B
:1053400029462046FFF704F81FE0EFF31183002BF6
:10535000D9D0002419E0EB688BB92B6913B14FF059
:10536000FF33E5E76B696BB14FF0FF33E0E70024F3
:105370000094FEF725FE0446DFE70023D8E74FF050
:10538000FF33D5E70023D3E70024204603B030BD28
:105390000024FAE70024F8E70024F6E70024F4E705
:1053A000EC13002010B582B01C46EFF30583B3B9AF
:1053B000EFF310839BB9224B1B68022B0BD098B3E1
:1053C000A9B300232246FEF73EFE012832D09CB34B
:1053D0006FF001001AE0EFF31183002BEFD0B8B1AA
:1053E000C9B1DCB90023019301AAFEF7BBFE012875
:1053F00017D1019850B14FF0E0234FF08052C3F81D
:10540000042DBFF34F8FBFF36F8F002002B010BD8C
:105410006FF00300FAE76FF00300F7E76FF00300A7
:10542000F4E76FF00200F1E76FF00300EEE76FF0D2
:105430000300EBE70020E9E76FF00200E6E700BFBA
:10544000EC13002010B582B01C46EFF30583ABB916
:10545000EFF3108393B9214B1B68022B0AD090B352
:10546000A1B32246FEF7B6FE012832D09CB36FF0FE
:1054700001001AE0EFF31183002BF0D0B8B1C9B1ED
:10548000DCB90023019301AAFEF72CFF012817D1F4
:10549000019850B14FF0E0234FF08052C3F8042D33
:1054A000BFF34F8FBFF36F8F002002B010BD6FF0BE
:1054B0000300FAE76FF00300F7E76FF00300F4E78B
:1054C0006FF00200F1E76FF00300EEE76FF003000A
:1054D000EBE70020E9E76FF00200E6E7EC130020BD
:1054E000034B0360034B0B6080231360704700BFC6
:1054F0009013002090110020034B0360034B0B60BE
:105500004FF4807313607047F0170020F0130020F1
:10551000124A12F0070F1ED0D11D21F00701C1F56C
:10552000205313440A460E48026000214160134490
:10553000083B23F007030B48036059601960991A70
:1055400051601360084B1960084B1960084B4FF00D
:1055500000421A6070474FF42053E4E750180020CF
:105560005C4000204C18002058400020544000208F
:1055700050400020154B1A461B688342FBD35168EC
:1055800002EB010C844509D0416800EB010C634536
:1055900009D00360904218D0106070474068014401
:1055A00051601046F0E710B4094C2468A3420AD0B9
:1055B0005B681944416013681B680360904200D027
:1055C000106010BC70470460F8E770475C40002032
:1055D0004C18002070B50546FFF724F9284B1B68CE
:1055E000A3B1284B1B681D4242D135B1083515F0D7
:1055F000070F02D025F007050835002D3AD0224BC1
:105600001B68AB4238D3214A146804E0FFF780FFDF
:10561000E7E722461C466368AB4202D22368002BB0
:10562000F7D1174B1B68A34228D0166808362368A9
:10563000136063685B1B102B14D8626812490B68F7
:105640009B1A0B60124909688B4201D210490B600A
:105650000C4B1B681343636000232360FFF770F952
:10566000304670BD601943606560FFF783FFE4E773
:105670000026F3E70026F1E70026EFE70026EDE736
:105680004C18002050400020544000205C40002076
:1056900058400020F8B138B50446A0F1080550F88C
:1056A000043C0D4A1268134202D050F8081C01B1A4
:1056B00038BD23EA020340F8043CFFF7B3F854F87E
:1056C000041C064A13680B4413602846FFF752FF78
:1056D000FFF736F9ECE770475040002054400020B7
:1056E00082B0002301934FF0500383F31188BFF37E
:1056F0006F8FBFF34F8F019B002BFCD002B0704720
:1057000006480068006880F3088862B661B6BFF397
:105710004F8FBFF36F8F00DF00BF000008ED00E088
:105720004FF0807340F8043C21F0010140F8081C60
:10573000034B40F80C3C40F8202C4038704700BF29
:10574000E15600080000000000000000000000001A
:10575000074B19680868B0E8F00F80F30988BFF3B9
:105760006F8F4FF0000080F311884EF00D0E7047E0
:10577000640B00204FF0500383F31188BFF36F8F49
:10578000BFF34F8F024A136801331360704700BFA5
:1057900058000020034A1368013B13600BB983F3E0
:1057A0001188704758000020000000000000000031
:1057B000EFF30980BFF36F8F0D4B1A6820E9F00FEC
:1057C00010602DE908404FF0500080F31188FFF77A
:1057D00041F94FF0000080F31188BDE808401968D6
:1057E0000868B0E8F00F80F30988BFF36F8F704747
:1057F000640B002008B54FF0500383F31188BFF30A
:105800006F8FBFF34F8FFFF71BF828B14FF0E023E6
:105810004FF08052C3F8042D002383F3118808BD94
:105820004FF0E022002313619361054B1B6805498B
:10583000A1FB03139B09013B5361072313617047CD
:1058400054000020D34D621010B54FF0E023D3F880
:10585000202D42F47002C3F8202DD3F8202D42F001
:105860007042C3F8202DFFF7DBFF0024044B1C60BF
:10587000FFF746FFFFF7EEF8FFF732FF204610BDB7
:105880005800002098B108B50346D0F8B40210B112
:105890000020C3F8B40209B1C3F8B012012183F8A3
:1058A0009C121A701846FBF79DF9002008BD0220D3
:1058B000704719B1C0F8B412002070470220704739
:1058C00008B5FBF7C3F9002008BD08B5D0F8B4321D
:1058D0002BB11B68984700B908BD0220FCE70220E5
:1058E000FAE708B5D0F8B4325B689847002008BDE5
:1058F00038B5044600F52A75284600F035F901232D
:10590000C4F89432B4F8AE32C4F8983294F8A812BD
:1059100001F01F03012B0ED0022B11D02BB101F08F
:1059200080012046FBF7ADF903E02946204600F050
:10593000C9FA002038BD2946204600F0F7FAF8E7FA
:105940002946204600F022FBF3E738B504460D4611
:1059500091BB1346D0F89422032A03D0052A24D001
:10596000084633E0D0F86011D0F8642191420DD997
:10597000891AC0F860118A4206D98AB219462046AF
:1059800000F027FC284621E092B2F7E7D0F8B432C5
:105990001B691BB190F89C22032A04D0204600F01A
:1059A00020FC284612E09847F8E70021C0F894123E
:1059B000FBF767F9284609E0D0F8B4329B6933B1A8
:1059C00090F89C22032A04D19847002038BD022079
:1059D000FCE70220FAE738B504460D46002953D10A
:1059E0001346D0F89422022A0CD0042A00D01AB907
:1059F00080212046FBF745F994F8A032012B3ED0D8
:105A0000284638BD016A426A91421BD8C169B1FB80
:105A1000F2F302FB13132BB98A4203D8D0F8983261
:105A200099421CD3D4F8B432DB681BB194F89C22A1
:105A3000032A21D080212046FBF723F9204600F0DD
:105A4000DBFBD9E78A1A026292B2194600F0B9FB71
:105A500000231A4619462046FBF74AF9CCE70022F4
:105A6000114600F0AEFB0021C4F898120B460A461E
:105A70002046FBF73DF9BFE720469847DAE70023C9
:105A800084F8A0322846BCE7D0F8B4325B6933B161
:105A900090F89C22032A04D198470020B1E7022005
:105AA000AFE70220ADE770B504464023002211465F
:105AB000FBF7D4F80125C4F858514026C4F86461B6
:105AC0003346002280212046FBF7C8F8A5616662B4
:105AD00084F89C520023C4F894326360C4F8A43262
